{
	"contracts/Twitter.sol": {
		"Twitter": {
			"abi": [
				{
					"inputs": [],
					"stateMutability": "nonpayable",
					"type": "constructor"
				},
				{
					"inputs": [
						{
							"internalType": "uint16",
							"name": "newTweetLength",
							"type": "uint16"
						}
					],
					"name": "changeTweetlength",
					"outputs": [],
					"stateMutability": "nonpayable",
					"type": "function"
				},
				{
					"inputs": [
						{
							"internalType": "string",
							"name": "tweet",
							"type": "string"
						}
					],
					"name": "createTweet",
					"outputs": [],
					"stateMutability": "nonpayable",
					"type": "function"
				},
				{
					"inputs": [
						{
							"internalType": "address",
							"name": "_owner",
							"type": "address"
						}
					],
					"name": "getAllTweets",
					"outputs": [
						{
							"components": [
								{
									"internalType": "uint256",
									"name": "id",
									"type": "uint256"
								},
								{
									"internalType": "address",
									"name": "creator",
									"type": "address"
								},
								{
									"internalType": "uint256",
									"name": "likes",
									"type": "uint256"
								},
								{
									"internalType": "uint256",
									"name": "createdAt",
									"type": "uint256"
								},
								{
									"internalType": "string",
									"name": "content",
									"type": "string"
								}
							],
							"internalType": "struct Twitter.Tweet[]",
							"name": "",
							"type": "tuple[]"
						}
					],
					"stateMutability": "view",
					"type": "function"
				},
				{
					"inputs": [],
					"name": "getMyTweets",
					"outputs": [
						{
							"components": [
								{
									"internalType": "uint256",
									"name": "id",
									"type": "uint256"
								},
								{
									"internalType": "address",
									"name": "creator",
									"type": "address"
								},
								{
									"internalType": "uint256",
									"name": "likes",
									"type": "uint256"
								},
								{
									"internalType": "uint256",
									"name": "createdAt",
									"type": "uint256"
								},
								{
									"internalType": "string",
									"name": "content",
									"type": "string"
								}
							],
							"internalType": "struct Twitter.Tweet[]",
							"name": "",
							"type": "tuple[]"
						}
					],
					"stateMutability": "view",
					"type": "function"
				},
				{
					"inputs": [
						{
							"internalType": "address",
							"name": "_owner",
							"type": "address"
						}
					],
					"name": "getTweet",
					"outputs": [
						{
							"components": [
								{
									"internalType": "uint256",
									"name": "id",
									"type": "uint256"
								},
								{
									"internalType": "address",
									"name": "creator",
									"type": "address"
								},
								{
									"internalType": "uint256",
									"name": "likes",
									"type": "uint256"
								},
								{
									"internalType": "uint256",
									"name": "createdAt",
									"type": "uint256"
								},
								{
									"internalType": "string",
									"name": "content",
									"type": "string"
								}
							],
							"internalType": "struct Twitter.Tweet",
							"name": "",
							"type": "tuple"
						}
					],
					"stateMutability": "view",
					"type": "function"
				},
				{
					"inputs": [
						{
							"internalType": "address",
							"name": "_owner",
							"type": "address"
						},
						{
							"internalType": "uint256",
							"name": "id",
							"type": "uint256"
						}
					],
					"name": "likeTweet",
					"outputs": [],
					"stateMutability": "nonpayable",
					"type": "function"
				},
				{
					"inputs": [],
					"name": "maxTweetLength",
					"outputs": [
						{
							"internalType": "uint16",
							"name": "",
							"type": "uint16"
						}
					],
					"stateMutability": "view",
					"type": "function"
				},
				{
					"inputs": [],
					"name": "owner",
					"outputs": [
						{
							"internalType": "address",
							"name": "",
							"type": "address"
						}
					],
					"stateMutability": "view",
					"type": "function"
				}
			],
			"devdoc": {
				"kind": "dev",
				"methods": {},
				"version": 1
			},
			"evm": {
				"assembly": "    /* \"contracts/Twitter.sol\":59:1624  contract Twitter{... */\n  mstore(0x40, 0x80)\n    /* \"contracts/Twitter.sol\":410:413  280 */\n  0x0118\n    /* \"contracts/Twitter.sol\":380:413  uint16 public maxTweetLength= 280 */\n  0x00\n  exp(0x0100, 0x14)\n  dup2\n  sload\n  dup2\n  0xffff\n  mul\n  not\n  and\n  swap1\n  dup4\n  0xffff\n  and\n  mul\n  or\n  swap1\n  sstore\n  pop\n    /* \"contracts/Twitter.sol\":595:647  constructor(){... */\n  callvalue\n  dup1\n  iszero\n  tag_1\n  jumpi\n  revert(0x00, 0x00)\ntag_1:\n  pop\n    /* \"contracts/Twitter.sol\":627:637  msg.sender */\n  caller\n    /* \"contracts/Twitter.sol\":619:624  owner */\n  0x00\n  0x00\n    /* \"contracts/Twitter.sol\":619:637  owner = msg.sender */\n  0x0100\n  exp\n  dup2\n  sload\n  dup2\n  0xffffffffffffffffffffffffffffffffffffffff\n  mul\n  not\n  and\n  swap1\n  dup4\n  0xffffffffffffffffffffffffffffffffffffffff\n  and\n  mul\n  or\n  swap1\n  sstore\n  pop\n    /* \"contracts/Twitter.sol\":59:1624  contract Twitter{... */\n  dataSize(sub_0)\n  dup1\n  dataOffset(sub_0)\n  0x00\n  codecopy\n  0x00\n  return\nstop\n\nsub_0: assembly {\n        /* \"contracts/Twitter.sol\":59:1624  contract Twitter{... */\n      mstore(0x40, 0x80)\n      callvalue\n      dup1\n      iszero\n      tag_1\n      jumpi\n      revert(0x00, 0x00)\n    tag_1:\n      pop\n      jumpi(tag_2, lt(calldatasize, 0x04))\n      shr(0xe0, calldataload(0x00))\n      dup1\n      0x7c9cd2bc\n      gt\n      tag_11\n      jumpi\n      dup1\n      0x7c9cd2bc\n      eq\n      tag_7\n      jumpi\n      dup1\n      0x8da5cb5b\n      eq\n      tag_8\n      jumpi\n      dup1\n      0x97213d07\n      eq\n      tag_9\n      jumpi\n      dup1\n      0xaefedbc2\n      eq\n      tag_10\n      jumpi\n      jump(tag_2)\n    tag_11:\n      dup1\n      0x12e7ee1c\n      eq\n      tag_3\n      jumpi\n      dup1\n      0x13ce9358\n      eq\n      tag_4\n      jumpi\n      dup1\n      0x1d6b664e\n      eq\n      tag_5\n      jumpi\n      dup1\n      0x63378216\n      eq\n      tag_6\n      jumpi\n    tag_2:\n      revert(0x00, 0x00)\n        /* \"contracts/Twitter.sol\":1209:1327  function getAllTweets(address _owner)public  view returns (Tweet[] memory){... */\n    tag_3:\n      tag_12\n      0x04\n      dup1\n      calldatasize\n      sub\n      dup2\n      add\n      swap1\n      tag_13\n      swap2\n      swap1\n      tag_14\n      jump\t// in\n    tag_13:\n      tag_15\n      jump\t// in\n    tag_12:\n      mload(0x40)\n      tag_16\n      swap2\n      swap1\n      tag_17\n      jump\t// in\n    tag_16:\n      mload(0x40)\n      dup1\n      swap2\n      sub\n      swap1\n      return\n        /* \"contracts/Twitter.sol\":380:413  uint16 public maxTweetLength= 280 */\n    tag_4:\n      tag_18\n      tag_19\n      jump\t// in\n    tag_18:\n      mload(0x40)\n      tag_20\n      swap2\n      swap1\n      tag_21\n      jump\t// in\n    tag_20:\n      mload(0x40)\n      dup1\n      swap2\n      sub\n      swap1\n      return\n        /* \"contracts/Twitter.sol\":1335:1457  function getTweet(address _owner) public view returns (Tweet memory)... */\n    tag_5:\n      tag_22\n      0x04\n      dup1\n      calldatasize\n      sub\n      dup2\n      add\n      swap1\n      tag_23\n      swap2\n      swap1\n      tag_14\n      jump\t// in\n    tag_23:\n      tag_24\n      jump\t// in\n    tag_22:\n      mload(0x40)\n      tag_25\n      swap2\n      swap1\n      tag_26\n      jump\t// in\n    tag_25:\n      mload(0x40)\n      dup1\n      swap2\n      sub\n      swap1\n      return\n        /* \"contracts/Twitter.sol\":1463:1620  function likeTweet (address _owner, uint256 id) external {... */\n    tag_6:\n      tag_27\n      0x04\n      dup1\n      calldatasize\n      sub\n      dup2\n      add\n      swap1\n      tag_28\n      swap2\n      swap1\n      tag_29\n      jump\t// in\n    tag_28:\n      tag_30\n      jump\t// in\n    tag_27:\n      stop\n        /* \"contracts/Twitter.sol\":661:1085  function createTweet(string memory tweet) public {... */\n    tag_7:\n      tag_31\n      0x04\n      dup1\n      calldatasize\n      sub\n      dup2\n      add\n      swap1\n      tag_32\n      swap2\n      swap1\n      tag_33\n      jump\t// in\n    tag_32:\n      tag_34\n      jump\t// in\n    tag_31:\n      stop\n        /* \"contracts/Twitter.sol\":237:257  address public owner */\n    tag_8:\n      tag_35\n      tag_36\n      jump\t// in\n    tag_35:\n      mload(0x40)\n      tag_37\n      swap2\n      swap1\n      tag_38\n      jump\t// in\n    tag_37:\n      mload(0x40)\n      dup1\n      swap2\n      sub\n      swap1\n      return\n        /* \"contracts/Twitter.sol\":422:536  function changeTweetlength(uint16 newTweetLength) public onlyowner{... */\n    tag_9:\n      tag_39\n      0x04\n      dup1\n      calldatasize\n      sub\n      dup2\n      add\n      swap1\n      tag_40\n      swap2\n      swap1\n      tag_41\n      jump\t// in\n    tag_40:\n      tag_42\n      jump\t// in\n    tag_39:\n      stop\n        /* \"contracts/Twitter.sol\":1093:1201  function getMyTweets () public view returns (Tweet[] memory){... */\n    tag_10:\n      tag_43\n      tag_44\n      jump\t// in\n    tag_43:\n      mload(0x40)\n      tag_45\n      swap2\n      swap1\n      tag_17\n      jump\t// in\n    tag_45:\n      mload(0x40)\n      dup1\n      swap2\n      sub\n      swap1\n      return\n        /* \"contracts/Twitter.sol\":1209:1327  function getAllTweets(address _owner)public  view returns (Tweet[] memory){... */\n    tag_15:\n        /* \"contracts/Twitter.sol\":1268:1282  Tweet[] memory */\n      0x60\n        /* \"contracts/Twitter.sol\":1301:1311  userTweets */\n      0x01\n        /* \"contracts/Twitter.sol\":1301:1319  userTweets[_owner] */\n      0x00\n        /* \"contracts/Twitter.sol\":1312:1318  _owner */\n      dup4\n        /* \"contracts/Twitter.sol\":1301:1319  userTweets[_owner] */\n      0xffffffffffffffffffffffffffffffffffffffff\n      and\n      0xffffffffffffffffffffffffffffffffffffffff\n      and\n      dup2\n      mstore\n      0x20\n      add\n      swap1\n      dup2\n      mstore\n      0x20\n      add\n      0x00\n      keccak256\n        /* \"contracts/Twitter.sol\":1294:1319  return userTweets[_owner] */\n      dup1\n      sload\n      dup1\n      0x20\n      mul\n      0x20\n      add\n      mload(0x40)\n      swap1\n      dup2\n      add\n      0x40\n      mstore\n      dup1\n      swap3\n      swap2\n      swap1\n      dup2\n      dup2\n      mstore\n      0x20\n      add\n      0x00\n      swap1\n    tag_47:\n      dup3\n      dup3\n      lt\n      iszero\n      tag_48\n      jumpi\n      dup4\n      dup3\n      swap1\n      0x00\n      mstore\n      keccak256(0x00, 0x20)\n      swap1\n      0x05\n      mul\n      add\n      mload(0x40)\n      dup1\n      0xa0\n      add\n      0x40\n      mstore\n      swap1\n      dup2\n      0x00\n      dup3\n      add\n      sload\n      dup2\n      mstore\n      0x20\n      add\n      0x01\n      dup3\n      add\n      0x00\n      swap1\n      sload\n      swap1\n      0x0100\n      exp\n      swap1\n      div\n      0xffffffffffffffffffffffffffffffffffffffff\n      and\n      0xffffffffffffffffffffffffffffffffffffffff\n      and\n      0xffffffffffffffffffffffffffffffffffffffff\n      and\n      dup2\n      mstore\n      0x20\n      add\n      0x02\n      dup3\n      add\n      sload\n      dup2\n      mstore\n      0x20\n      add\n      0x03\n      dup3\n      add\n      sload\n      dup2\n      mstore\n      0x20\n      add\n      0x04\n      dup3\n      add\n      dup1\n      sload\n      tag_50\n      swap1\n      tag_51\n      jump\t// in\n    tag_50:\n      dup1\n      0x1f\n      add\n      0x20\n      dup1\n      swap2\n      div\n      mul\n      0x20\n      add\n      mload(0x40)\n      swap1\n      dup2\n      add\n      0x40\n      mstore\n      dup1\n      swap3\n      swap2\n      swap1\n      dup2\n      dup2\n      mstore\n      0x20\n      add\n      dup3\n      dup1\n      sload\n      tag_52\n      swap1\n      tag_51\n      jump\t// in\n    tag_52:\n      dup1\n      iszero\n      tag_53\n      jumpi\n      dup1\n      0x1f\n      lt\n      tag_54\n      jumpi\n      0x0100\n      dup1\n      dup4\n      sload\n      div\n      mul\n      dup4\n      mstore\n      swap2\n      0x20\n      add\n      swap2\n      jump(tag_53)\n    tag_54:\n      dup3\n      add\n      swap2\n      swap1\n      0x00\n      mstore\n      keccak256(0x00, 0x20)\n      swap1\n    tag_55:\n      dup2\n      sload\n      dup2\n      mstore\n      swap1\n      0x01\n      add\n      swap1\n      0x20\n      add\n      dup1\n      dup4\n      gt\n      tag_55\n      jumpi\n      dup3\n      swap1\n      sub\n      0x1f\n      and\n      dup3\n      add\n      swap2\n    tag_53:\n      pop\n      pop\n      pop\n      pop\n      pop\n      dup2\n      mstore\n      pop\n      pop\n      dup2\n      mstore\n      0x20\n      add\n      swap1\n      0x01\n      add\n      swap1\n      jump(tag_47)\n    tag_48:\n      pop\n      pop\n      pop\n      pop\n      swap1\n      pop\n        /* \"contracts/Twitter.sol\":1209:1327  function getAllTweets(address _owner)public  view returns (Tweet[] memory){... */\n      swap2\n      swap1\n      pop\n      jump\t// out\n        /* \"contracts/Twitter.sol\":380:413  uint16 public maxTweetLength= 280 */\n    tag_19:\n      0x00\n      0x14\n      swap1\n      sload\n      swap1\n      0x0100\n      exp\n      swap1\n      div\n      0xffff\n      and\n      dup2\n      jump\t// out\n        /* \"contracts/Twitter.sol\":1335:1457  function getTweet(address _owner) public view returns (Tweet memory)... */\n    tag_24:\n        /* \"contracts/Twitter.sol\":1390:1402  Tweet memory */\n      tag_56\n      tag_57\n      jump\t// in\n    tag_56:\n        /* \"contracts/Twitter.sol\":1427:1437  userTweets */\n      0x01\n        /* \"contracts/Twitter.sol\":1427:1445  userTweets[_owner] */\n      0x00\n        /* \"contracts/Twitter.sol\":1438:1444  _owner */\n      dup4\n        /* \"contracts/Twitter.sol\":1427:1445  userTweets[_owner] */\n      0xffffffffffffffffffffffffffffffffffffffff\n      and\n      0xffffffffffffffffffffffffffffffffffffffff\n      and\n      dup2\n      mstore\n      0x20\n      add\n      swap1\n      dup2\n      mstore\n      0x20\n      add\n      0x00\n      keccak256\n        /* \"contracts/Twitter.sol\":1447:1448  0 */\n      0x00\n        /* \"contracts/Twitter.sol\":1427:1449  userTweets[_owner] [0] */\n      dup2\n      sload\n      dup2\n      lt\n      tag_59\n      jumpi\n      tag_60\n      tag_61\n      jump\t// in\n    tag_60:\n    tag_59:\n      swap1\n      0x00\n      mstore\n      keccak256(0x00, 0x20)\n      swap1\n      0x05\n      mul\n      add\n        /* \"contracts/Twitter.sol\":1420:1449  return userTweets[_owner] [0] */\n      mload(0x40)\n      dup1\n      0xa0\n      add\n      0x40\n      mstore\n      swap1\n      dup2\n      0x00\n      dup3\n      add\n      sload\n      dup2\n      mstore\n      0x20\n      add\n      0x01\n      dup3\n      add\n      0x00\n      swap1\n      sload\n      swap1\n      0x0100\n      exp\n      swap1\n      div\n      0xffffffffffffffffffffffffffffffffffffffff\n      and\n      0xffffffffffffffffffffffffffffffffffffffff\n      and\n      0xffffffffffffffffffffffffffffffffffffffff\n      and\n      dup2\n      mstore\n      0x20\n      add\n      0x02\n      dup3\n      add\n      sload\n      dup2\n      mstore\n      0x20\n      add\n      0x03\n      dup3\n      add\n      sload\n      dup2\n      mstore\n      0x20\n      add\n      0x04\n      dup3\n      add\n      dup1\n      sload\n      tag_63\n      swap1\n      tag_51\n      jump\t// in\n    tag_63:\n      dup1\n      0x1f\n      add\n      0x20\n      dup1\n      swap2\n      div\n      mul\n      0x20\n      add\n      mload(0x40)\n      swap1\n      dup2\n      add\n      0x40\n      mstore\n      dup1\n      swap3\n      swap2\n      swap1\n      dup2\n      dup2\n      mstore\n      0x20\n      add\n      dup3\n      dup1\n      sload\n      tag_64\n      swap1\n      tag_51\n      jump\t// in\n    tag_64:\n      dup1\n      iszero\n      tag_65\n      jumpi\n      dup1\n      0x1f\n      lt\n      tag_66\n      jumpi\n      0x0100\n      dup1\n      dup4\n      sload\n      div\n      mul\n      dup4\n      mstore\n      swap2\n      0x20\n      add\n      swap2\n      jump(tag_65)\n    tag_66:\n      dup3\n      add\n      swap2\n      swap1\n      0x00\n      mstore\n      keccak256(0x00, 0x20)\n      swap1\n    tag_67:\n      dup2\n      sload\n      dup2\n      mstore\n      swap1\n      0x01\n      add\n      swap1\n      0x20\n      add\n      dup1\n      dup4\n      gt\n      tag_67\n      jumpi\n      dup3\n      swap1\n      sub\n      0x1f\n      and\n      dup3\n      add\n      swap2\n    tag_65:\n      pop\n      pop\n      pop\n      pop\n      pop\n      dup2\n      mstore\n      pop\n      pop\n      swap1\n      pop\n        /* \"contracts/Twitter.sol\":1335:1457  function getTweet(address _owner) public view returns (Tweet memory)... */\n      swap2\n      swap1\n      pop\n      jump\t// out\n        /* \"contracts/Twitter.sol\":1463:1620  function likeTweet (address _owner, uint256 id) external {... */\n    tag_30:\n        /* \"contracts/Twitter.sol\":1566:1568  id */\n      dup1\n        /* \"contracts/Twitter.sol\":1539:1549  userTweets */\n      0x01\n        /* \"contracts/Twitter.sol\":1539:1557  userTweets[_owner] */\n      0x00\n        /* \"contracts/Twitter.sol\":1550:1556  _owner */\n      dup5\n        /* \"contracts/Twitter.sol\":1539:1557  userTweets[_owner] */\n      0xffffffffffffffffffffffffffffffffffffffff\n      and\n      0xffffffffffffffffffffffffffffffffffffffff\n      and\n      dup2\n      mstore\n      0x20\n      add\n      swap1\n      dup2\n      mstore\n      0x20\n      add\n      0x00\n      keccak256\n        /* \"contracts/Twitter.sol\":1558:1560  id */\n      dup3\n        /* \"contracts/Twitter.sol\":1539:1561  userTweets[_owner][id] */\n      dup2\n      sload\n      dup2\n      lt\n      tag_69\n      jumpi\n      tag_70\n      tag_61\n      jump\t// in\n    tag_70:\n    tag_69:\n      swap1\n      0x00\n      mstore\n      keccak256(0x00, 0x20)\n      swap1\n      0x05\n      mul\n      add\n        /* \"contracts/Twitter.sol\":1539:1564  userTweets[_owner][id].id */\n      0x00\n      add\n      sload\n        /* \"contracts/Twitter.sol\":1539:1568  userTweets[_owner][id].id==id */\n      eq\n        /* \"contracts/Twitter.sol\":1531:1569  require(userTweets[_owner][id].id==id) */\n      tag_72\n      jumpi\n      revert(0x00, 0x00)\n    tag_72:\n        /* \"contracts/Twitter.sol\":1580:1590  userTweets */\n      0x01\n        /* \"contracts/Twitter.sol\":1580:1598  userTweets[_owner] */\n      0x00\n        /* \"contracts/Twitter.sol\":1591:1597  _owner */\n      dup4\n        /* \"contracts/Twitter.sol\":1580:1598  userTweets[_owner] */\n      0xffffffffffffffffffffffffffffffffffffffff\n      and\n      0xffffffffffffffffffffffffffffffffffffffff\n      and\n      dup2\n      mstore\n      0x20\n      add\n      swap1\n      dup2\n      mstore\n      0x20\n      add\n      0x00\n      keccak256\n        /* \"contracts/Twitter.sol\":1599:1601  id */\n      dup2\n        /* \"contracts/Twitter.sol\":1580:1602  userTweets[_owner][id] */\n      dup2\n      sload\n      dup2\n      lt\n      tag_73\n      jumpi\n      tag_74\n      tag_61\n      jump\t// in\n    tag_74:\n    tag_73:\n      swap1\n      0x00\n      mstore\n      keccak256(0x00, 0x20)\n      swap1\n      0x05\n      mul\n      add\n        /* \"contracts/Twitter.sol\":1580:1608  userTweets[_owner][id].likes */\n      0x02\n      add\n      0x00\n        /* \"contracts/Twitter.sol\":1580:1610  userTweets[_owner][id].likes++ */\n      dup2\n      sload\n      dup1\n      swap3\n      swap2\n      swap1\n      tag_76\n      swap1\n      tag_77\n      jump\t// in\n    tag_76:\n      swap2\n      swap1\n      pop\n      sstore\n      pop\n        /* \"contracts/Twitter.sol\":1463:1620  function likeTweet (address _owner, uint256 id) external {... */\n      pop\n      pop\n      jump\t// out\n        /* \"contracts/Twitter.sol\":661:1085  function createTweet(string memory tweet) public {... */\n    tag_34:\n        /* \"contracts/Twitter.sol\":751:765  maxTweetLength */\n      0x00\n      0x14\n      swap1\n      sload\n      swap1\n      0x0100\n      exp\n      swap1\n      div\n      0xffff\n      and\n        /* \"contracts/Twitter.sol\":729:765  bytes (tweet).length<=maxTweetLength */\n      0xffff\n      and\n        /* \"contracts/Twitter.sol\":736:741  tweet */\n      dup2\n        /* \"contracts/Twitter.sol\":729:749  bytes (tweet).length */\n      mload\n        /* \"contracts/Twitter.sol\":729:765  bytes (tweet).length<=maxTweetLength */\n      gt\n      iszero\n        /* \"contracts/Twitter.sol\":721:786  require(bytes (tweet).length<=maxTweetLength,\"the tweet is long\") */\n      tag_79\n      jumpi\n      mload(0x40)\n      0x08c379a000000000000000000000000000000000000000000000000000000000\n      dup2\n      mstore\n      0x04\n      add\n      tag_80\n      swap1\n      tag_81\n      jump\t// in\n    tag_80:\n      mload(0x40)\n      dup1\n      swap2\n      sub\n      swap1\n      revert\n    tag_79:\n        /* \"contracts/Twitter.sol\":801:822  Tweet memory newTweet */\n      0x00\n        /* \"contracts/Twitter.sol\":825:1023  Tweet({... */\n      mload(0x40)\n      dup1\n      0xa0\n      add\n      0x40\n      mstore\n      dup1\n        /* \"contracts/Twitter.sol\":851:861  userTweets */\n      0x01\n        /* \"contracts/Twitter.sol\":851:873  userTweets[msg.sender] */\n      0x00\n        /* \"contracts/Twitter.sol\":862:872  msg.sender */\n      caller\n        /* \"contracts/Twitter.sol\":851:873  userTweets[msg.sender] */\n      0xffffffffffffffffffffffffffffffffffffffff\n      and\n      0xffffffffffffffffffffffffffffffffffffffff\n      and\n      dup2\n      mstore\n      0x20\n      add\n      swap1\n      dup2\n      mstore\n      0x20\n      add\n      0x00\n      keccak256\n        /* \"contracts/Twitter.sol\":851:880  userTweets[msg.sender].length */\n      dup1\n      sload\n      swap1\n      pop\n        /* \"contracts/Twitter.sol\":825:1023  Tweet({... */\n      dup2\n      mstore\n      0x20\n      add\n        /* \"contracts/Twitter.sol\":905:915  msg.sender */\n      caller\n        /* \"contracts/Twitter.sol\":825:1023  Tweet({... */\n      0xffffffffffffffffffffffffffffffffffffffff\n      and\n      dup2\n      mstore\n      0x20\n      add\n        /* \"contracts/Twitter.sol\":938:939  0 */\n      0x00\n        /* \"contracts/Twitter.sol\":825:1023  Tweet({... */\n      dup2\n      mstore\n      0x20\n      add\n        /* \"contracts/Twitter.sol\":966:981  block.timestamp */\n      timestamp\n        /* \"contracts/Twitter.sol\":825:1023  Tweet({... */\n      dup2\n      mstore\n      0x20\n      add\n        /* \"contracts/Twitter.sol\":1006:1011  tweet */\n      dup4\n        /* \"contracts/Twitter.sol\":825:1023  Tweet({... */\n      dup2\n      mstore\n      pop\n        /* \"contracts/Twitter.sol\":801:1023  Tweet memory newTweet = Tweet({... */\n      swap1\n      pop\n        /* \"contracts/Twitter.sol\":1036:1046  userTweets */\n      0x01\n        /* \"contracts/Twitter.sol\":1036:1058  userTweets[msg.sender] */\n      0x00\n        /* \"contracts/Twitter.sol\":1047:1057  msg.sender */\n      caller\n        /* \"contracts/Twitter.sol\":1036:1058  userTweets[msg.sender] */\n      0xffffffffffffffffffffffffffffffffffffffff\n      and\n      0xffffffffffffffffffffffffffffffffffffffff\n      and\n      dup2\n      mstore\n      0x20\n      add\n      swap1\n      dup2\n      mstore\n      0x20\n      add\n      0x00\n      keccak256\n        /* \"contracts/Twitter.sol\":1064:1072  newTweet */\n      dup2\n        /* \"contracts/Twitter.sol\":1036:1073  userTweets[msg.sender].push(newTweet) */\n      swap1\n      dup1\n      0x01\n      dup2\n      sload\n      add\n      dup1\n      dup3\n      sstore\n      dup1\n      swap2\n      pop\n      pop\n      0x01\n      swap1\n      sub\n      swap1\n      0x00\n      mstore\n      keccak256(0x00, 0x20)\n      swap1\n      0x05\n      mul\n      add\n      0x00\n      swap1\n      swap2\n      swap1\n      swap2\n      swap1\n      swap2\n      pop\n      0x00\n      dup3\n      add\n      mload\n      dup2\n      0x00\n      add\n      sstore\n      0x20\n      dup3\n      add\n      mload\n      dup2\n      0x01\n      add\n      exp(0x0100, 0x00)\n      dup2\n      sload\n      dup2\n      0xffffffffffffffffffffffffffffffffffffffff\n      mul\n      not\n      and\n      swap1\n      dup4\n      0xffffffffffffffffffffffffffffffffffffffff\n      and\n      mul\n      or\n      swap1\n      sstore\n      pop\n      0x40\n      dup3\n      add\n      mload\n      dup2\n      0x02\n      add\n      sstore\n      0x60\n      dup3\n      add\n      mload\n      dup2\n      0x03\n      add\n      sstore\n      0x80\n      dup3\n      add\n      mload\n      dup2\n      0x04\n      add\n      swap1\n      dup2\n      tag_83\n      swap2\n      swap1\n      tag_84\n      jump\t// in\n    tag_83:\n      pop\n      pop\n      pop\n        /* \"contracts/Twitter.sol\":710:1085  {... */\n      pop\n        /* \"contracts/Twitter.sol\":661:1085  function createTweet(string memory tweet) public {... */\n      pop\n      jump\t// out\n        /* \"contracts/Twitter.sol\":237:257  address public owner */\n    tag_36:\n      0x00\n      0x00\n      swap1\n      sload\n      swap1\n      0x0100\n      exp\n      swap1\n      div\n      0xffffffffffffffffffffffffffffffffffffffff\n      and\n      dup2\n      jump\t// out\n        /* \"contracts/Twitter.sol\":422:536  function changeTweetlength(uint16 newTweetLength) public onlyowner{... */\n    tag_42:\n        /* \"contracts/Twitter.sol\":316:326  msg.sender */\n      caller\n        /* \"contracts/Twitter.sol\":309:326  owner==msg.sender */\n      0xffffffffffffffffffffffffffffffffffffffff\n      and\n        /* \"contracts/Twitter.sol\":309:314  owner */\n      0x00\n      0x00\n      swap1\n      sload\n      swap1\n      0x0100\n      exp\n      swap1\n      div\n      0xffffffffffffffffffffffffffffffffffffffff\n      and\n        /* \"contracts/Twitter.sol\":309:326  owner==msg.sender */\n      0xffffffffffffffffffffffffffffffffffffffff\n      and\n      eq\n        /* \"contracts/Twitter.sol\":301:352  require(owner==msg.sender, \"you are not the owner\") */\n      tag_86\n      jumpi\n      mload(0x40)\n      0x08c379a000000000000000000000000000000000000000000000000000000000\n      dup2\n      mstore\n      0x04\n      add\n      tag_87\n      swap1\n      tag_88\n      jump\t// in\n    tag_87:\n      mload(0x40)\n      dup1\n      swap2\n      sub\n      swap1\n      revert\n    tag_86:\n        /* \"contracts/Twitter.sol\":514:528  newTweetLength */\n      dup1\n        /* \"contracts/Twitter.sol\":499:513  maxTweetLength */\n      0x00\n      0x14\n        /* \"contracts/Twitter.sol\":499:528  maxTweetLength=newTweetLength */\n      0x0100\n      exp\n      dup2\n      sload\n      dup2\n      0xffff\n      mul\n      not\n      and\n      swap1\n      dup4\n      0xffff\n      and\n      mul\n      or\n      swap1\n      sstore\n      pop\n        /* \"contracts/Twitter.sol\":422:536  function changeTweetlength(uint16 newTweetLength) public onlyowner{... */\n      pop\n      jump\t// out\n        /* \"contracts/Twitter.sol\":1093:1201  function getMyTweets () public view returns (Tweet[] memory){... */\n    tag_44:\n        /* \"contracts/Twitter.sol\":1138:1152  Tweet[] memory */\n      0x60\n        /* \"contracts/Twitter.sol\":1171:1181  userTweets */\n      0x01\n        /* \"contracts/Twitter.sol\":1171:1193  userTweets[msg.sender] */\n      0x00\n        /* \"contracts/Twitter.sol\":1182:1192  msg.sender */\n      caller\n        /* \"contracts/Twitter.sol\":1171:1193  userTweets[msg.sender] */\n      0xffffffffffffffffffffffffffffffffffffffff\n      and\n      0xffffffffffffffffffffffffffffffffffffffff\n      and\n      dup2\n      mstore\n      0x20\n      add\n      swap1\n      dup2\n      mstore\n      0x20\n      add\n      0x00\n      keccak256\n        /* \"contracts/Twitter.sol\":1164:1193  return userTweets[msg.sender] */\n      dup1\n      sload\n      dup1\n      0x20\n      mul\n      0x20\n      add\n      mload(0x40)\n      swap1\n      dup2\n      add\n      0x40\n      mstore\n      dup1\n      swap3\n      swap2\n      swap1\n      dup2\n      dup2\n      mstore\n      0x20\n      add\n      0x00\n      swap1\n    tag_91:\n      dup3\n      dup3\n      lt\n      iszero\n      tag_92\n      jumpi\n      dup4\n      dup3\n      swap1\n      0x00\n      mstore\n      keccak256(0x00, 0x20)\n      swap1\n      0x05\n      mul\n      add\n      mload(0x40)\n      dup1\n      0xa0\n      add\n      0x40\n      mstore\n      swap1\n      dup2\n      0x00\n      dup3\n      add\n      sload\n      dup2\n      mstore\n      0x20\n      add\n      0x01\n      dup3\n      add\n      0x00\n      swap1\n      sload\n      swap1\n      0x0100\n      exp\n      swap1\n      div\n      0xffffffffffffffffffffffffffffffffffffffff\n      and\n      0xffffffffffffffffffffffffffffffffffffffff\n      and\n      0xffffffffffffffffffffffffffffffffffffffff\n      and\n      dup2\n      mstore\n      0x20\n      add\n      0x02\n      dup3\n      add\n      sload\n      dup2\n      mstore\n      0x20\n      add\n      0x03\n      dup3\n      add\n      sload\n      dup2\n      mstore\n      0x20\n      add\n      0x04\n      dup3\n      add\n      dup1\n      sload\n      tag_94\n      swap1\n      tag_51\n      jump\t// in\n    tag_94:\n      dup1\n      0x1f\n      add\n      0x20\n      dup1\n      swap2\n      div\n      mul\n      0x20\n      add\n      mload(0x40)\n      swap1\n      dup2\n      add\n      0x40\n      mstore\n      dup1\n      swap3\n      swap2\n      swap1\n      dup2\n      dup2\n      mstore\n      0x20\n      add\n      dup3\n      dup1\n      sload\n      tag_95\n      swap1\n      tag_51\n      jump\t// in\n    tag_95:\n      dup1\n      iszero\n      tag_96\n      jumpi\n      dup1\n      0x1f\n      lt\n      tag_97\n      jumpi\n      0x0100\n      dup1\n      dup4\n      sload\n      div\n      mul\n      dup4\n      mstore\n      swap2\n      0x20\n      add\n      swap2\n      jump(tag_96)\n    tag_97:\n      dup3\n      add\n      swap2\n      swap1\n      0x00\n      mstore\n      keccak256(0x00, 0x20)\n      swap1\n    tag_98:\n      dup2\n      sload\n      dup2\n      mstore\n      swap1\n      0x01\n      add\n      swap1\n      0x20\n      add\n      dup1\n      dup4\n      gt\n      tag_98\n      jumpi\n      dup3\n      swap1\n      sub\n      0x1f\n      and\n      dup3\n      add\n      swap2\n    tag_96:\n      pop\n      pop\n      pop\n      pop\n      pop\n      dup2\n      mstore\n      pop\n      pop\n      dup2\n      mstore\n      0x20\n      add\n      swap1\n      0x01\n      add\n      swap1\n      jump(tag_91)\n    tag_92:\n      pop\n      pop\n      pop\n      pop\n      swap1\n      pop\n        /* \"contracts/Twitter.sol\":1093:1201  function getMyTweets () public view returns (Tweet[] memory){... */\n      swap1\n      jump\t// out\n    tag_57:\n      mload(0x40)\n      dup1\n      0xa0\n      add\n      0x40\n      mstore\n      dup1\n      0x00\n      dup2\n      mstore\n      0x20\n      add\n      and(0xffffffffffffffffffffffffffffffffffffffff, 0x00)\n      dup2\n      mstore\n      0x20\n      add\n      0x00\n      dup2\n      mstore\n      0x20\n      add\n      0x00\n      dup2\n      mstore\n      0x20\n      add\n      0x60\n      dup2\n      mstore\n      pop\n      swap1\n      jump\t// out\n        /* \"#utility.yul\":7:82   */\n    tag_99:\n        /* \"#utility.yul\":40:46   */\n      0x00\n        /* \"#utility.yul\":73:75   */\n      0x40\n        /* \"#utility.yul\":67:76   */\n      mload\n        /* \"#utility.yul\":57:76   */\n      swap1\n      pop\n        /* \"#utility.yul\":7:82   */\n      swap1\n      jump\t// out\n        /* \"#utility.yul\":88:205   */\n    tag_100:\n        /* \"#utility.yul\":197:198   */\n      0x00\n        /* \"#utility.yul\":194:195   */\n      0x00\n        /* \"#utility.yul\":187:199   */\n      revert\n        /* \"#utility.yul\":211:328   */\n    tag_101:\n        /* \"#utility.yul\":320:321   */\n      0x00\n        /* \"#utility.yul\":317:318   */\n      0x00\n        /* \"#utility.yul\":310:322   */\n      revert\n        /* \"#utility.yul\":334:460   */\n    tag_102:\n        /* \"#utility.yul\":371:378   */\n      0x00\n        /* \"#utility.yul\":411:453   */\n      0xffffffffffffffffffffffffffffffffffffffff\n        /* \"#utility.yul\":404:409   */\n      dup3\n        /* \"#utility.yul\":400:454   */\n      and\n        /* \"#utility.yul\":389:454   */\n      swap1\n      pop\n        /* \"#utility.yul\":334:460   */\n      swap2\n      swap1\n      pop\n      jump\t// out\n        /* \"#utility.yul\":466:562   */\n    tag_103:\n        /* \"#utility.yul\":503:510   */\n      0x00\n        /* \"#utility.yul\":532:556   */\n      tag_166\n        /* \"#utility.yul\":550:555   */\n      dup3\n        /* \"#utility.yul\":532:556   */\n      tag_102\n      jump\t// in\n    tag_166:\n        /* \"#utility.yul\":521:556   */\n      swap1\n      pop\n        /* \"#utility.yul\":466:562   */\n      swap2\n      swap1\n      pop\n      jump\t// out\n        /* \"#utility.yul\":568:690   */\n    tag_104:\n        /* \"#utility.yul\":641:665   */\n      tag_168\n        /* \"#utility.yul\":659:664   */\n      dup2\n        /* \"#utility.yul\":641:665   */\n      tag_103\n      jump\t// in\n    tag_168:\n        /* \"#utility.yul\":634:639   */\n      dup2\n        /* \"#utility.yul\":631:666   */\n      eq\n        /* \"#utility.yul\":621:684   */\n      tag_169\n      jumpi\n        /* \"#utility.yul\":680:681   */\n      0x00\n        /* \"#utility.yul\":677:678   */\n      0x00\n        /* \"#utility.yul\":670:682   */\n      revert\n        /* \"#utility.yul\":621:684   */\n    tag_169:\n        /* \"#utility.yul\":568:690   */\n      pop\n      jump\t// out\n        /* \"#utility.yul\":696:835   */\n    tag_105:\n        /* \"#utility.yul\":742:747   */\n      0x00\n        /* \"#utility.yul\":780:786   */\n      dup2\n        /* \"#utility.yul\":767:787   */\n      calldataload\n        /* \"#utility.yul\":758:787   */\n      swap1\n      pop\n        /* \"#utility.yul\":796:829   */\n      tag_171\n        /* \"#utility.yul\":823:828   */\n      dup2\n        /* \"#utility.yul\":796:829   */\n      tag_104\n      jump\t// in\n    tag_171:\n        /* \"#utility.yul\":696:835   */\n      swap3\n      swap2\n      pop\n      pop\n      jump\t// out\n        /* \"#utility.yul\":841:1170   */\n    tag_14:\n        /* \"#utility.yul\":900:906   */\n      0x00\n        /* \"#utility.yul\":949:951   */\n      0x20\n        /* \"#utility.yul\":937:946   */\n      dup3\n        /* \"#utility.yul\":928:935   */\n      dup5\n        /* \"#utility.yul\":924:947   */\n      sub\n        /* \"#utility.yul\":920:952   */\n      slt\n        /* \"#utility.yul\":917:1036   */\n      iszero\n      tag_173\n      jumpi\n        /* \"#utility.yul\":955:1034   */\n      tag_174\n      tag_100\n      jump\t// in\n    tag_174:\n        /* \"#utility.yul\":917:1036   */\n    tag_173:\n        /* \"#utility.yul\":1075:1076   */\n      0x00\n        /* \"#utility.yul\":1100:1153   */\n      tag_175\n        /* \"#utility.yul\":1145:1152   */\n      dup5\n        /* \"#utility.yul\":1136:1142   */\n      dup3\n        /* \"#utility.yul\":1125:1134   */\n      dup6\n        /* \"#utility.yul\":1121:1143   */\n      add\n        /* \"#utility.yul\":1100:1153   */\n      tag_105\n      jump\t// in\n    tag_175:\n        /* \"#utility.yul\":1090:1153   */\n      swap2\n      pop\n        /* \"#utility.yul\":1046:1163   */\n      pop\n        /* \"#utility.yul\":841:1170   */\n      swap3\n      swap2\n      pop\n      pop\n      jump\t// out\n        /* \"#utility.yul\":1176:1311   */\n    tag_106:\n        /* \"#utility.yul\":1264:1270   */\n      0x00\n        /* \"#utility.yul\":1298:1303   */\n      dup2\n        /* \"#utility.yul\":1292:1304   */\n      mload\n        /* \"#utility.yul\":1282:1304   */\n      swap1\n      pop\n        /* \"#utility.yul\":1176:1311   */\n      swap2\n      swap1\n      pop\n      jump\t// out\n        /* \"#utility.yul\":1317:1522   */\n    tag_107:\n        /* \"#utility.yul\":1437:1448   */\n      0x00\n        /* \"#utility.yul\":1471:1477   */\n      dup3\n        /* \"#utility.yul\":1466:1469   */\n      dup3\n        /* \"#utility.yul\":1459:1478   */\n      mstore\n        /* \"#utility.yul\":1511:1515   */\n      0x20\n        /* \"#utility.yul\":1506:1509   */\n      dup3\n        /* \"#utility.yul\":1502:1516   */\n      add\n        /* \"#utility.yul\":1487:1516   */\n      swap1\n      pop\n        /* \"#utility.yul\":1317:1522   */\n      swap3\n      swap2\n      pop\n      pop\n      jump\t// out\n        /* \"#utility.yul\":1528:1681   */\n    tag_108:\n        /* \"#utility.yul\":1616:1620   */\n      0x00\n        /* \"#utility.yul\":1639:1642   */\n      dup2\n        /* \"#utility.yul\":1631:1642   */\n      swap1\n      pop\n        /* \"#utility.yul\":1669:1673   */\n      0x20\n        /* \"#utility.yul\":1664:1667   */\n      dup3\n        /* \"#utility.yul\":1660:1674   */\n      add\n        /* \"#utility.yul\":1652:1674   */\n      swap1\n      pop\n        /* \"#utility.yul\":1528:1681   */\n      swap2\n      swap1\n      pop\n      jump\t// out\n        /* \"#utility.yul\":1687:1764   */\n    tag_109:\n        /* \"#utility.yul\":1724:1731   */\n      0x00\n        /* \"#utility.yul\":1753:1758   */\n      dup2\n        /* \"#utility.yul\":1742:1758   */\n      swap1\n      pop\n        /* \"#utility.yul\":1687:1764   */\n      swap2\n      swap1\n      pop\n      jump\t// out\n        /* \"#utility.yul\":1770:1878   */\n    tag_110:\n        /* \"#utility.yul\":1847:1871   */\n      tag_181\n        /* \"#utility.yul\":1865:1870   */\n      dup2\n        /* \"#utility.yul\":1847:1871   */\n      tag_109\n      jump\t// in\n    tag_181:\n        /* \"#utility.yul\":1842:1845   */\n      dup3\n        /* \"#utility.yul\":1835:1872   */\n      mstore\n        /* \"#utility.yul\":1770:1878   */\n      pop\n      pop\n      jump\t// out\n        /* \"#utility.yul\":1884:1992   */\n    tag_111:\n        /* \"#utility.yul\":1961:1985   */\n      tag_183\n        /* \"#utility.yul\":1979:1984   */\n      dup2\n        /* \"#utility.yul\":1961:1985   */\n      tag_103\n      jump\t// in\n    tag_183:\n        /* \"#utility.yul\":1956:1959   */\n      dup3\n        /* \"#utility.yul\":1949:1986   */\n      mstore\n        /* \"#utility.yul\":1884:1992   */\n      pop\n      pop\n      jump\t// out\n        /* \"#utility.yul\":1998:2097   */\n    tag_112:\n        /* \"#utility.yul\":2050:2056   */\n      0x00\n        /* \"#utility.yul\":2084:2089   */\n      dup2\n        /* \"#utility.yul\":2078:2090   */\n      mload\n        /* \"#utility.yul\":2068:2090   */\n      swap1\n      pop\n        /* \"#utility.yul\":1998:2097   */\n      swap2\n      swap1\n      pop\n      jump\t// out\n        /* \"#utility.yul\":2103:2262   */\n    tag_113:\n        /* \"#utility.yul\":2177:2188   */\n      0x00\n        /* \"#utility.yul\":2211:2217   */\n      dup3\n        /* \"#utility.yul\":2206:2209   */\n      dup3\n        /* \"#utility.yul\":2199:2218   */\n      mstore\n        /* \"#utility.yul\":2251:2255   */\n      0x20\n        /* \"#utility.yul\":2246:2249   */\n      dup3\n        /* \"#utility.yul\":2242:2256   */\n      add\n        /* \"#utility.yul\":2227:2256   */\n      swap1\n      pop\n        /* \"#utility.yul\":2103:2262   */\n      swap3\n      swap2\n      pop\n      pop\n      jump\t// out\n        /* \"#utility.yul\":2268:2407   */\n    tag_114:\n        /* \"#utility.yul\":2357:2363   */\n      dup3\n        /* \"#utility.yul\":2352:2355   */\n      dup2\n        /* \"#utility.yul\":2347:2350   */\n      dup4\n        /* \"#utility.yul\":2341:2364   */\n      mcopy\n        /* \"#utility.yul\":2398:2399   */\n      0x00\n        /* \"#utility.yul\":2389:2395   */\n      dup4\n        /* \"#utility.yul\":2384:2387   */\n      dup4\n        /* \"#utility.yul\":2380:2396   */\n      add\n        /* \"#utility.yul\":2373:2400   */\n      mstore\n        /* \"#utility.yul\":2268:2407   */\n      pop\n      pop\n      pop\n      jump\t// out\n        /* \"#utility.yul\":2413:2515   */\n    tag_115:\n        /* \"#utility.yul\":2454:2460   */\n      0x00\n        /* \"#utility.yul\":2505:2507   */\n      0x1f\n        /* \"#utility.yul\":2501:2508   */\n      not\n        /* \"#utility.yul\":2496:2498   */\n      0x1f\n        /* \"#utility.yul\":2489:2494   */\n      dup4\n        /* \"#utility.yul\":2485:2499   */\n      add\n        /* \"#utility.yul\":2481:2509   */\n      and\n        /* \"#utility.yul\":2471:2509   */\n      swap1\n      pop\n        /* \"#utility.yul\":2413:2515   */\n      swap2\n      swap1\n      pop\n      jump\t// out\n        /* \"#utility.yul\":2521:2878   */\n    tag_116:\n        /* \"#utility.yul\":2599:2602   */\n      0x00\n        /* \"#utility.yul\":2627:2666   */\n      tag_189\n        /* \"#utility.yul\":2660:2665   */\n      dup3\n        /* \"#utility.yul\":2627:2666   */\n      tag_112\n      jump\t// in\n    tag_189:\n        /* \"#utility.yul\":2682:2743   */\n      tag_190\n        /* \"#utility.yul\":2736:2742   */\n      dup2\n        /* \"#utility.yul\":2731:2734   */\n      dup6\n        /* \"#utility.yul\":2682:2743   */\n      tag_113\n      jump\t// in\n    tag_190:\n        /* \"#utility.yul\":2675:2743   */\n      swap4\n      pop\n        /* \"#utility.yul\":2752:2817   */\n      tag_191\n        /* \"#utility.yul\":2810:2816   */\n      dup2\n        /* \"#utility.yul\":2805:2808   */\n      dup6\n        /* \"#utility.yul\":2798:2802   */\n      0x20\n        /* \"#utility.yul\":2791:2796   */\n      dup7\n        /* \"#utility.yul\":2787:2803   */\n      add\n        /* \"#utility.yul\":2752:2817   */\n      tag_114\n      jump\t// in\n    tag_191:\n        /* \"#utility.yul\":2842:2871   */\n      tag_192\n        /* \"#utility.yul\":2864:2870   */\n      dup2\n        /* \"#utility.yul\":2842:2871   */\n      tag_115\n      jump\t// in\n    tag_192:\n        /* \"#utility.yul\":2837:2840   */\n      dup5\n        /* \"#utility.yul\":2833:2872   */\n      add\n        /* \"#utility.yul\":2826:2872   */\n      swap2\n      pop\n        /* \"#utility.yul\":2603:2878   */\n      pop\n        /* \"#utility.yul\":2521:2878   */\n      swap3\n      swap2\n      pop\n      pop\n      jump\t// out\n        /* \"#utility.yul\":2936:4056   */\n    tag_117:\n        /* \"#utility.yul\":3037:3040   */\n      0x00\n        /* \"#utility.yul\":3073:3077   */\n      0xa0\n        /* \"#utility.yul\":3068:3071   */\n      dup4\n        /* \"#utility.yul\":3064:3078   */\n      add\n        /* \"#utility.yul\":3158:3162   */\n      0x00\n        /* \"#utility.yul\":3151:3156   */\n      dup4\n        /* \"#utility.yul\":3147:3163   */\n      add\n        /* \"#utility.yul\":3141:3164   */\n      mload\n        /* \"#utility.yul\":3177:3240   */\n      tag_194\n        /* \"#utility.yul\":3234:3238   */\n      0x00\n        /* \"#utility.yul\":3229:3232   */\n      dup7\n        /* \"#utility.yul\":3225:3239   */\n      add\n        /* \"#utility.yul\":3211:3223   */\n      dup3\n        /* \"#utility.yul\":3177:3240   */\n      tag_110\n      jump\t// in\n    tag_194:\n        /* \"#utility.yul\":3088:3250   */\n      pop\n        /* \"#utility.yul\":3335:3339   */\n      0x20\n        /* \"#utility.yul\":3328:3333   */\n      dup4\n        /* \"#utility.yul\":3324:3340   */\n      add\n        /* \"#utility.yul\":3318:3341   */\n      mload\n        /* \"#utility.yul\":3354:3417   */\n      tag_195\n        /* \"#utility.yul\":3411:3415   */\n      0x20\n        /* \"#utility.yul\":3406:3409   */\n      dup7\n        /* \"#utility.yul\":3402:3416   */\n      add\n        /* \"#utility.yul\":3388:3400   */\n      dup3\n        /* \"#utility.yul\":3354:3417   */\n      tag_111\n      jump\t// in\n    tag_195:\n        /* \"#utility.yul\":3260:3427   */\n      pop\n        /* \"#utility.yul\":3510:3514   */\n      0x40\n        /* \"#utility.yul\":3503:3508   */\n      dup4\n        /* \"#utility.yul\":3499:3515   */\n      add\n        /* \"#utility.yul\":3493:3516   */\n      mload\n        /* \"#utility.yul\":3529:3592   */\n      tag_196\n        /* \"#utility.yul\":3586:3590   */\n      0x40\n        /* \"#utility.yul\":3581:3584   */\n      dup7\n        /* \"#utility.yul\":3577:3591   */\n      add\n        /* \"#utility.yul\":3563:3575   */\n      dup3\n        /* \"#utility.yul\":3529:3592   */\n      tag_110\n      jump\t// in\n    tag_196:\n        /* \"#utility.yul\":3437:3602   */\n      pop\n        /* \"#utility.yul\":3689:3693   */\n      0x60\n        /* \"#utility.yul\":3682:3687   */\n      dup4\n        /* \"#utility.yul\":3678:3694   */\n      add\n        /* \"#utility.yul\":3672:3695   */\n      mload\n        /* \"#utility.yul\":3708:3771   */\n      tag_197\n        /* \"#utility.yul\":3765:3769   */\n      0x60\n        /* \"#utility.yul\":3760:3763   */\n      dup7\n        /* \"#utility.yul\":3756:3770   */\n      add\n        /* \"#utility.yul\":3742:3754   */\n      dup3\n        /* \"#utility.yul\":3708:3771   */\n      tag_110\n      jump\t// in\n    tag_197:\n        /* \"#utility.yul\":3612:3781   */\n      pop\n        /* \"#utility.yul\":3866:3870   */\n      0x80\n        /* \"#utility.yul\":3859:3864   */\n      dup4\n        /* \"#utility.yul\":3855:3871   */\n      add\n        /* \"#utility.yul\":3849:3872   */\n      mload\n        /* \"#utility.yul\":3919:3922   */\n      dup5\n        /* \"#utility.yul\":3913:3917   */\n      dup3\n        /* \"#utility.yul\":3909:3923   */\n      sub\n        /* \"#utility.yul\":3902:3906   */\n      0x80\n        /* \"#utility.yul\":3897:3900   */\n      dup7\n        /* \"#utility.yul\":3893:3907   */\n      add\n        /* \"#utility.yul\":3886:3924   */\n      mstore\n        /* \"#utility.yul\":3945:4018   */\n      tag_198\n        /* \"#utility.yul\":4013:4017   */\n      dup3\n        /* \"#utility.yul\":3999:4011   */\n      dup3\n        /* \"#utility.yul\":3945:4018   */\n      tag_116\n      jump\t// in\n    tag_198:\n        /* \"#utility.yul\":3937:4018   */\n      swap2\n      pop\n        /* \"#utility.yul\":3791:4029   */\n      pop\n        /* \"#utility.yul\":4046:4050   */\n      dup1\n        /* \"#utility.yul\":4039:4050   */\n      swap2\n      pop\n        /* \"#utility.yul\":3042:4056   */\n      pop\n        /* \"#utility.yul\":2936:4056   */\n      swap3\n      swap2\n      pop\n      pop\n      jump\t// out\n        /* \"#utility.yul\":4062:4302   */\n    tag_118:\n        /* \"#utility.yul\":4173:4183   */\n      0x00\n        /* \"#utility.yul\":4208:4296   */\n      tag_200\n        /* \"#utility.yul\":4292:4295   */\n      dup4\n        /* \"#utility.yul\":4284:4290   */\n      dup4\n        /* \"#utility.yul\":4208:4296   */\n      tag_117\n      jump\t// in\n    tag_200:\n        /* \"#utility.yul\":4194:4296   */\n      swap1\n      pop\n        /* \"#utility.yul\":4062:4302   */\n      swap3\n      swap2\n      pop\n      pop\n      jump\t// out\n        /* \"#utility.yul\":4308:4442   */\n    tag_119:\n        /* \"#utility.yul\":4399:4403   */\n      0x00\n        /* \"#utility.yul\":4431:4435   */\n      0x20\n        /* \"#utility.yul\":4426:4429   */\n      dup3\n        /* \"#utility.yul\":4422:4436   */\n      add\n        /* \"#utility.yul\":4414:4436   */\n      swap1\n      pop\n        /* \"#utility.yul\":4308:4442   */\n      swap2\n      swap1\n      pop\n      jump\t// out\n        /* \"#utility.yul\":4504:5583   */\n    tag_120:\n        /* \"#utility.yul\":4665:4668   */\n      0x00\n        /* \"#utility.yul\":4694:4769   */\n      tag_203\n        /* \"#utility.yul\":4763:4768   */\n      dup3\n        /* \"#utility.yul\":4694:4769   */\n      tag_106\n      jump\t// in\n    tag_203:\n        /* \"#utility.yul\":4785:4892   */\n      tag_204\n        /* \"#utility.yul\":4885:4891   */\n      dup2\n        /* \"#utility.yul\":4880:4883   */\n      dup6\n        /* \"#utility.yul\":4785:4892   */\n      tag_107\n      jump\t// in\n    tag_204:\n        /* \"#utility.yul\":4778:4892   */\n      swap4\n      pop\n        /* \"#utility.yul\":4918:4921   */\n      dup4\n        /* \"#utility.yul\":4963:4967   */\n      0x20\n        /* \"#utility.yul\":4955:4961   */\n      dup3\n        /* \"#utility.yul\":4951:4968   */\n      mul\n        /* \"#utility.yul\":4946:4949   */\n      dup6\n        /* \"#utility.yul\":4942:4969   */\n      add\n        /* \"#utility.yul\":4993:5070   */\n      tag_205\n        /* \"#utility.yul\":5064:5069   */\n      dup6\n        /* \"#utility.yul\":4993:5070   */\n      tag_108\n      jump\t// in\n    tag_205:\n        /* \"#utility.yul\":5093:5100   */\n      dup1\n        /* \"#utility.yul\":5124:5125   */\n      0x00\n        /* \"#utility.yul\":5109:5538   */\n    tag_206:\n        /* \"#utility.yul\":5134:5140   */\n      dup6\n        /* \"#utility.yul\":5131:5132   */\n      dup2\n        /* \"#utility.yul\":5128:5141   */\n      lt\n        /* \"#utility.yul\":5109:5538   */\n      iszero\n      tag_208\n      jumpi\n        /* \"#utility.yul\":5205:5214   */\n      dup5\n        /* \"#utility.yul\":5199:5203   */\n      dup5\n        /* \"#utility.yul\":5195:5215   */\n      sub\n        /* \"#utility.yul\":5190:5193   */\n      dup10\n        /* \"#utility.yul\":5183:5216   */\n      mstore\n        /* \"#utility.yul\":5256:5262   */\n      dup2\n        /* \"#utility.yul\":5250:5263   */\n      mload\n        /* \"#utility.yul\":5284:5390   */\n      tag_209\n        /* \"#utility.yul\":5385:5389   */\n      dup6\n        /* \"#utility.yul\":5370:5383   */\n      dup3\n        /* \"#utility.yul\":5284:5390   */\n      tag_118\n      jump\t// in\n    tag_209:\n        /* \"#utility.yul\":5276:5390   */\n      swap5\n      pop\n        /* \"#utility.yul\":5413:5494   */\n      tag_210\n        /* \"#utility.yul\":5487:5493   */\n      dup4\n        /* \"#utility.yul\":5413:5494   */\n      tag_119\n      jump\t// in\n    tag_210:\n        /* \"#utility.yul\":5403:5494   */\n      swap3\n      pop\n        /* \"#utility.yul\":5523:5527   */\n      0x20\n        /* \"#utility.yul\":5518:5521   */\n      dup11\n        /* \"#utility.yul\":5514:5528   */\n      add\n        /* \"#utility.yul\":5507:5528   */\n      swap10\n      pop\n        /* \"#utility.yul\":5169:5538   */\n      pop\n        /* \"#utility.yul\":5156:5157   */\n      0x01\n        /* \"#utility.yul\":5153:5154   */\n      dup2\n        /* \"#utility.yul\":5149:5158   */\n      add\n        /* \"#utility.yul\":5144:5158   */\n      swap1\n      pop\n        /* \"#utility.yul\":5109:5538   */\n      jump(tag_206)\n    tag_208:\n        /* \"#utility.yul\":5113:5127   */\n      pop\n        /* \"#utility.yul\":5554:5558   */\n      dup3\n        /* \"#utility.yul\":5547:5558   */\n      swap8\n      pop\n        /* \"#utility.yul\":5574:5577   */\n      dup8\n        /* \"#utility.yul\":5567:5577   */\n      swap6\n      pop\n        /* \"#utility.yul\":4670:5583   */\n      pop\n      pop\n      pop\n      pop\n      pop\n        /* \"#utility.yul\":4504:5583   */\n      swap3\n      swap2\n      pop\n      pop\n      jump\t// out\n        /* \"#utility.yul\":5589:6046   */\n    tag_17:\n        /* \"#utility.yul\":5774:5778   */\n      0x00\n        /* \"#utility.yul\":5812:5814   */\n      0x20\n        /* \"#utility.yul\":5801:5810   */\n      dup3\n        /* \"#utility.yul\":5797:5815   */\n      add\n        /* \"#utility.yul\":5789:5815   */\n      swap1\n      pop\n        /* \"#utility.yul\":5861:5870   */\n      dup2\n        /* \"#utility.yul\":5855:5859   */\n      dup2\n        /* \"#utility.yul\":5851:5871   */\n      sub\n        /* \"#utility.yul\":5847:5848   */\n      0x00\n        /* \"#utility.yul\":5836:5845   */\n      dup4\n        /* \"#utility.yul\":5832:5849   */\n      add\n        /* \"#utility.yul\":5825:5872   */\n      mstore\n        /* \"#utility.yul\":5889:6039   */\n      tag_212\n        /* \"#utility.yul\":6034:6038   */\n      dup2\n        /* \"#utility.yul\":6025:6031   */\n      dup5\n        /* \"#utility.yul\":5889:6039   */\n      tag_120\n      jump\t// in\n    tag_212:\n        /* \"#utility.yul\":5881:6039   */\n      swap1\n      pop\n        /* \"#utility.yul\":5589:6046   */\n      swap3\n      swap2\n      pop\n      pop\n      jump\t// out\n        /* \"#utility.yul\":6052:6141   */\n    tag_121:\n        /* \"#utility.yul\":6088:6095   */\n      0x00\n        /* \"#utility.yul\":6128:6134   */\n      0xffff\n        /* \"#utility.yul\":6121:6126   */\n      dup3\n        /* \"#utility.yul\":6117:6135   */\n      and\n        /* \"#utility.yul\":6106:6135   */\n      swap1\n      pop\n        /* \"#utility.yul\":6052:6141   */\n      swap2\n      swap1\n      pop\n      jump\t// out\n        /* \"#utility.yul\":6147:6262   */\n    tag_122:\n        /* \"#utility.yul\":6232:6255   */\n      tag_215\n        /* \"#utility.yul\":6249:6254   */\n      dup2\n        /* \"#utility.yul\":6232:6255   */\n      tag_121\n      jump\t// in\n    tag_215:\n        /* \"#utility.yul\":6227:6230   */\n      dup3\n        /* \"#utility.yul\":6220:6256   */\n      mstore\n        /* \"#utility.yul\":6147:6262   */\n      pop\n      pop\n      jump\t// out\n        /* \"#utility.yul\":6268:6486   */\n    tag_21:\n        /* \"#utility.yul\":6359:6363   */\n      0x00\n        /* \"#utility.yul\":6397:6399   */\n      0x20\n        /* \"#utility.yul\":6386:6395   */\n      dup3\n        /* \"#utility.yul\":6382:6400   */\n      add\n        /* \"#utility.yul\":6374:6400   */\n      swap1\n      pop\n        /* \"#utility.yul\":6410:6479   */\n      tag_217\n        /* \"#utility.yul\":6476:6477   */\n      0x00\n        /* \"#utility.yul\":6465:6474   */\n      dup4\n        /* \"#utility.yul\":6461:6478   */\n      add\n        /* \"#utility.yul\":6452:6458   */\n      dup5\n        /* \"#utility.yul\":6410:6479   */\n      tag_122\n      jump\t// in\n    tag_217:\n        /* \"#utility.yul\":6268:6486   */\n      swap3\n      swap2\n      pop\n      pop\n      jump\t// out\n        /* \"#utility.yul\":6544:7674   */\n    tag_123:\n        /* \"#utility.yul\":6655:6658   */\n      0x00\n        /* \"#utility.yul\":6691:6695   */\n      0xa0\n        /* \"#utility.yul\":6686:6689   */\n      dup4\n        /* \"#utility.yul\":6682:6696   */\n      add\n        /* \"#utility.yul\":6776:6780   */\n      0x00\n        /* \"#utility.yul\":6769:6774   */\n      dup4\n        /* \"#utility.yul\":6765:6781   */\n      add\n        /* \"#utility.yul\":6759:6782   */\n      mload\n        /* \"#utility.yul\":6795:6858   */\n      tag_219\n        /* \"#utility.yul\":6852:6856   */\n      0x00\n        /* \"#utility.yul\":6847:6850   */\n      dup7\n        /* \"#utility.yul\":6843:6857   */\n      add\n        /* \"#utility.yul\":6829:6841   */\n      dup3\n        /* \"#utility.yul\":6795:6858   */\n      tag_110\n      jump\t// in\n    tag_219:\n        /* \"#utility.yul\":6706:6868   */\n      pop\n        /* \"#utility.yul\":6953:6957   */\n      0x20\n        /* \"#utility.yul\":6946:6951   */\n      dup4\n        /* \"#utility.yul\":6942:6958   */\n      add\n        /* \"#utility.yul\":6936:6959   */\n      mload\n        /* \"#utility.yul\":6972:7035   */\n      tag_220\n        /* \"#utility.yul\":7029:7033   */\n      0x20\n        /* \"#utility.yul\":7024:7027   */\n      dup7\n        /* \"#utility.yul\":7020:7034   */\n      add\n        /* \"#utility.yul\":7006:7018   */\n      dup3\n        /* \"#utility.yul\":6972:7035   */\n      tag_111\n      jump\t// in\n    tag_220:\n        /* \"#utility.yul\":6878:7045   */\n      pop\n        /* \"#utility.yul\":7128:7132   */\n      0x40\n        /* \"#utility.yul\":7121:7126   */\n      dup4\n        /* \"#utility.yul\":7117:7133   */\n      add\n        /* \"#utility.yul\":7111:7134   */\n      mload\n        /* \"#utility.yul\":7147:7210   */\n      tag_221\n        /* \"#utility.yul\":7204:7208   */\n      0x40\n        /* \"#utility.yul\":7199:7202   */\n      dup7\n        /* \"#utility.yul\":7195:7209   */\n      add\n        /* \"#utility.yul\":7181:7193   */\n      dup3\n        /* \"#utility.yul\":7147:7210   */\n      tag_110\n      jump\t// in\n    tag_221:\n        /* \"#utility.yul\":7055:7220   */\n      pop\n        /* \"#utility.yul\":7307:7311   */\n      0x60\n        /* \"#utility.yul\":7300:7305   */\n      dup4\n        /* \"#utility.yul\":7296:7312   */\n      add\n        /* \"#utility.yul\":7290:7313   */\n      mload\n        /* \"#utility.yul\":7326:7389   */\n      tag_222\n        /* \"#utility.yul\":7383:7387   */\n      0x60\n        /* \"#utility.yul\":7378:7381   */\n      dup7\n        /* \"#utility.yul\":7374:7388   */\n      add\n        /* \"#utility.yul\":7360:7372   */\n      dup3\n        /* \"#utility.yul\":7326:7389   */\n      tag_110\n      jump\t// in\n    tag_222:\n        /* \"#utility.yul\":7230:7399   */\n      pop\n        /* \"#utility.yul\":7484:7488   */\n      0x80\n        /* \"#utility.yul\":7477:7482   */\n      dup4\n        /* \"#utility.yul\":7473:7489   */\n      add\n        /* \"#utility.yul\":7467:7490   */\n      mload\n        /* \"#utility.yul\":7537:7540   */\n      dup5\n        /* \"#utility.yul\":7531:7535   */\n      dup3\n        /* \"#utility.yul\":7527:7541   */\n      sub\n        /* \"#utility.yul\":7520:7524   */\n      0x80\n        /* \"#utility.yul\":7515:7518   */\n      dup7\n        /* \"#utility.yul\":7511:7525   */\n      add\n        /* \"#utility.yul\":7504:7542   */\n      mstore\n        /* \"#utility.yul\":7563:7636   */\n      tag_223\n        /* \"#utility.yul\":7631:7635   */\n      dup3\n        /* \"#utility.yul\":7617:7629   */\n      dup3\n        /* \"#utility.yul\":7563:7636   */\n      tag_116\n      jump\t// in\n    tag_223:\n        /* \"#utility.yul\":7555:7636   */\n      swap2\n      pop\n        /* \"#utility.yul\":7409:7647   */\n      pop\n        /* \"#utility.yul\":7664:7668   */\n      dup1\n        /* \"#utility.yul\":7657:7668   */\n      swap2\n      pop\n        /* \"#utility.yul\":6660:7674   */\n      pop\n        /* \"#utility.yul\":6544:7674   */\n      swap3\n      swap2\n      pop\n      pop\n      jump\t// out\n        /* \"#utility.yul\":7680:8037   */\n    tag_26:\n        /* \"#utility.yul\":7815:7819   */\n      0x00\n        /* \"#utility.yul\":7853:7855   */\n      0x20\n        /* \"#utility.yul\":7842:7851   */\n      dup3\n        /* \"#utility.yul\":7838:7856   */\n      add\n        /* \"#utility.yul\":7830:7856   */\n      swap1\n      pop\n        /* \"#utility.yul\":7902:7911   */\n      dup2\n        /* \"#utility.yul\":7896:7900   */\n      dup2\n        /* \"#utility.yul\":7892:7912   */\n      sub\n        /* \"#utility.yul\":7888:7889   */\n      0x00\n        /* \"#utility.yul\":7877:7886   */\n      dup4\n        /* \"#utility.yul\":7873:7890   */\n      add\n        /* \"#utility.yul\":7866:7913   */\n      mstore\n        /* \"#utility.yul\":7930:8030   */\n      tag_225\n        /* \"#utility.yul\":8025:8029   */\n      dup2\n        /* \"#utility.yul\":8016:8022   */\n      dup5\n        /* \"#utility.yul\":7930:8030   */\n      tag_123\n      jump\t// in\n    tag_225:\n        /* \"#utility.yul\":7922:8030   */\n      swap1\n      pop\n        /* \"#utility.yul\":7680:8037   */\n      swap3\n      swap2\n      pop\n      pop\n      jump\t// out\n        /* \"#utility.yul\":8043:8165   */\n    tag_124:\n        /* \"#utility.yul\":8116:8140   */\n      tag_227\n        /* \"#utility.yul\":8134:8139   */\n      dup2\n        /* \"#utility.yul\":8116:8140   */\n      tag_109\n      jump\t// in\n    tag_227:\n        /* \"#utility.yul\":8109:8114   */\n      dup2\n        /* \"#utility.yul\":8106:8141   */\n      eq\n        /* \"#utility.yul\":8096:8159   */\n      tag_228\n      jumpi\n        /* \"#utility.yul\":8155:8156   */\n      0x00\n        /* \"#utility.yul\":8152:8153   */\n      0x00\n        /* \"#utility.yul\":8145:8157   */\n      revert\n        /* \"#utility.yul\":8096:8159   */\n    tag_228:\n        /* \"#utility.yul\":8043:8165   */\n      pop\n      jump\t// out\n        /* \"#utility.yul\":8171:8310   */\n    tag_125:\n        /* \"#utility.yul\":8217:8222   */\n      0x00\n        /* \"#utility.yul\":8255:8261   */\n      dup2\n        /* \"#utility.yul\":8242:8262   */\n      calldataload\n        /* \"#utility.yul\":8233:8262   */\n      swap1\n      pop\n        /* \"#utility.yul\":8271:8304   */\n      tag_230\n        /* \"#utility.yul\":8298:8303   */\n      dup2\n        /* \"#utility.yul\":8271:8304   */\n      tag_124\n      jump\t// in\n    tag_230:\n        /* \"#utility.yul\":8171:8310   */\n      swap3\n      swap2\n      pop\n      pop\n      jump\t// out\n        /* \"#utility.yul\":8316:8790   */\n    tag_29:\n        /* \"#utility.yul\":8384:8390   */\n      0x00\n        /* \"#utility.yul\":8392:8398   */\n      0x00\n        /* \"#utility.yul\":8441:8443   */\n      0x40\n        /* \"#utility.yul\":8429:8438   */\n      dup4\n        /* \"#utility.yul\":8420:8427   */\n      dup6\n        /* \"#utility.yul\":8416:8439   */\n      sub\n        /* \"#utility.yul\":8412:8444   */\n      slt\n        /* \"#utility.yul\":8409:8528   */\n      iszero\n      tag_232\n      jumpi\n        /* \"#utility.yul\":8447:8526   */\n      tag_233\n      tag_100\n      jump\t// in\n    tag_233:\n        /* \"#utility.yul\":8409:8528   */\n    tag_232:\n        /* \"#utility.yul\":8567:8568   */\n      0x00\n        /* \"#utility.yul\":8592:8645   */\n      tag_234\n        /* \"#utility.yul\":8637:8644   */\n      dup6\n        /* \"#utility.yul\":8628:8634   */\n      dup3\n        /* \"#utility.yul\":8617:8626   */\n      dup7\n        /* \"#utility.yul\":8613:8635   */\n      add\n        /* \"#utility.yul\":8592:8645   */\n      tag_105\n      jump\t// in\n    tag_234:\n        /* \"#utility.yul\":8582:8645   */\n      swap3\n      pop\n        /* \"#utility.yul\":8538:8655   */\n      pop\n        /* \"#utility.yul\":8694:8696   */\n      0x20\n        /* \"#utility.yul\":8720:8773   */\n      tag_235\n        /* \"#utility.yul\":8765:8772   */\n      dup6\n        /* \"#utility.yul\":8756:8762   */\n      dup3\n        /* \"#utility.yul\":8745:8754   */\n      dup7\n        /* \"#utility.yul\":8741:8763   */\n      add\n        /* \"#utility.yul\":8720:8773   */\n      tag_125\n      jump\t// in\n    tag_235:\n        /* \"#utility.yul\":8710:8773   */\n      swap2\n      pop\n        /* \"#utility.yul\":8665:8783   */\n      pop\n        /* \"#utility.yul\":8316:8790   */\n      swap3\n      pop\n      swap3\n      swap1\n      pop\n      jump\t// out\n        /* \"#utility.yul\":8796:8913   */\n    tag_126:\n        /* \"#utility.yul\":8905:8906   */\n      0x00\n        /* \"#utility.yul\":8902:8903   */\n      0x00\n        /* \"#utility.yul\":8895:8907   */\n      revert\n        /* \"#utility.yul\":8919:9036   */\n    tag_127:\n        /* \"#utility.yul\":9028:9029   */\n      0x00\n        /* \"#utility.yul\":9025:9026   */\n      0x00\n        /* \"#utility.yul\":9018:9030   */\n      revert\n        /* \"#utility.yul\":9042:9222   */\n    tag_128:\n        /* \"#utility.yul\":9090:9167   */\n      0x4e487b7100000000000000000000000000000000000000000000000000000000\n        /* \"#utility.yul\":9087:9088   */\n      0x00\n        /* \"#utility.yul\":9080:9168   */\n      mstore\n        /* \"#utility.yul\":9187:9191   */\n      0x41\n        /* \"#utility.yul\":9184:9185   */\n      0x04\n        /* \"#utility.yul\":9177:9192   */\n      mstore\n        /* \"#utility.yul\":9211:9215   */\n      0x24\n        /* \"#utility.yul\":9208:9209   */\n      0x00\n        /* \"#utility.yul\":9201:9216   */\n      revert\n        /* \"#utility.yul\":9228:9509   */\n    tag_129:\n        /* \"#utility.yul\":9311:9338   */\n      tag_240\n        /* \"#utility.yul\":9333:9337   */\n      dup3\n        /* \"#utility.yul\":9311:9338   */\n      tag_115\n      jump\t// in\n    tag_240:\n        /* \"#utility.yul\":9303:9309   */\n      dup2\n        /* \"#utility.yul\":9299:9339   */\n      add\n        /* \"#utility.yul\":9441:9447   */\n      dup2\n        /* \"#utility.yul\":9429:9439   */\n      dup2\n        /* \"#utility.yul\":9426:9448   */\n      lt\n        /* \"#utility.yul\":9405:9423   */\n      0xffffffffffffffff\n        /* \"#utility.yul\":9393:9403   */\n      dup3\n        /* \"#utility.yul\":9390:9424   */\n      gt\n        /* \"#utility.yul\":9387:9449   */\n      or\n        /* \"#utility.yul\":9384:9472   */\n      iszero\n      tag_241\n      jumpi\n        /* \"#utility.yul\":9452:9470   */\n      tag_242\n      tag_128\n      jump\t// in\n    tag_242:\n        /* \"#utility.yul\":9384:9472   */\n    tag_241:\n        /* \"#utility.yul\":9492:9502   */\n      dup1\n        /* \"#utility.yul\":9488:9490   */\n      0x40\n        /* \"#utility.yul\":9481:9503   */\n      mstore\n        /* \"#utility.yul\":9271:9509   */\n      pop\n        /* \"#utility.yul\":9228:9509   */\n      pop\n      pop\n      jump\t// out\n        /* \"#utility.yul\":9515:9644   */\n    tag_130:\n        /* \"#utility.yul\":9549:9555   */\n      0x00\n        /* \"#utility.yul\":9576:9596   */\n      tag_244\n      tag_99\n      jump\t// in\n    tag_244:\n        /* \"#utility.yul\":9566:9596   */\n      swap1\n      pop\n        /* \"#utility.yul\":9605:9638   */\n      tag_245\n        /* \"#utility.yul\":9633:9637   */\n      dup3\n        /* \"#utility.yul\":9625:9631   */\n      dup3\n        /* \"#utility.yul\":9605:9638   */\n      tag_129\n      jump\t// in\n    tag_245:\n        /* \"#utility.yul\":9515:9644   */\n      swap2\n      swap1\n      pop\n      jump\t// out\n        /* \"#utility.yul\":9650:9958   */\n    tag_131:\n        /* \"#utility.yul\":9712:9716   */\n      0x00\n        /* \"#utility.yul\":9802:9820   */\n      0xffffffffffffffff\n        /* \"#utility.yul\":9794:9800   */\n      dup3\n        /* \"#utility.yul\":9791:9821   */\n      gt\n        /* \"#utility.yul\":9788:9844   */\n      iszero\n      tag_247\n      jumpi\n        /* \"#utility.yul\":9824:9842   */\n      tag_248\n      tag_128\n      jump\t// in\n    tag_248:\n        /* \"#utility.yul\":9788:9844   */\n    tag_247:\n        /* \"#utility.yul\":9862:9891   */\n      tag_249\n        /* \"#utility.yul\":9884:9890   */\n      dup3\n        /* \"#utility.yul\":9862:9891   */\n      tag_115\n      jump\t// in\n    tag_249:\n        /* \"#utility.yul\":9854:9891   */\n      swap1\n      pop\n        /* \"#utility.yul\":9946:9950   */\n      0x20\n        /* \"#utility.yul\":9940:9944   */\n      dup2\n        /* \"#utility.yul\":9936:9951   */\n      add\n        /* \"#utility.yul\":9928:9951   */\n      swap1\n      pop\n        /* \"#utility.yul\":9650:9958   */\n      swap2\n      swap1\n      pop\n      jump\t// out\n        /* \"#utility.yul\":9964:10112   */\n    tag_132:\n        /* \"#utility.yul\":10062:10068   */\n      dup3\n        /* \"#utility.yul\":10057:10060   */\n      dup2\n        /* \"#utility.yul\":10052:10055   */\n      dup4\n        /* \"#utility.yul\":10039:10069   */\n      calldatacopy\n        /* \"#utility.yul\":10103:10104   */\n      0x00\n        /* \"#utility.yul\":10094:10100   */\n      dup4\n        /* \"#utility.yul\":10089:10092   */\n      dup4\n        /* \"#utility.yul\":10085:10101   */\n      add\n        /* \"#utility.yul\":10078:10105   */\n      mstore\n        /* \"#utility.yul\":9964:10112   */\n      pop\n      pop\n      pop\n      jump\t// out\n        /* \"#utility.yul\":10118:10543   */\n    tag_133:\n        /* \"#utility.yul\":10196:10201   */\n      0x00\n        /* \"#utility.yul\":10221:10287   */\n      tag_252\n        /* \"#utility.yul\":10237:10286   */\n      tag_253\n        /* \"#utility.yul\":10279:10285   */\n      dup5\n        /* \"#utility.yul\":10237:10286   */\n      tag_131\n      jump\t// in\n    tag_253:\n        /* \"#utility.yul\":10221:10287   */\n      tag_130\n      jump\t// in\n    tag_252:\n        /* \"#utility.yul\":10212:10287   */\n      swap1\n      pop\n        /* \"#utility.yul\":10310:10316   */\n      dup3\n        /* \"#utility.yul\":10303:10308   */\n      dup2\n        /* \"#utility.yul\":10296:10317   */\n      mstore\n        /* \"#utility.yul\":10348:10352   */\n      0x20\n        /* \"#utility.yul\":10341:10346   */\n      dup2\n        /* \"#utility.yul\":10337:10353   */\n      add\n        /* \"#utility.yul\":10386:10389   */\n      dup5\n        /* \"#utility.yul\":10377:10383   */\n      dup5\n        /* \"#utility.yul\":10372:10375   */\n      dup5\n        /* \"#utility.yul\":10368:10384   */\n      add\n        /* \"#utility.yul\":10365:10390   */\n      gt\n        /* \"#utility.yul\":10362:10474   */\n      iszero\n      tag_254\n      jumpi\n        /* \"#utility.yul\":10393:10472   */\n      tag_255\n      tag_127\n      jump\t// in\n    tag_255:\n        /* \"#utility.yul\":10362:10474   */\n    tag_254:\n        /* \"#utility.yul\":10483:10537   */\n      tag_256\n        /* \"#utility.yul\":10530:10536   */\n      dup5\n        /* \"#utility.yul\":10525:10528   */\n      dup3\n        /* \"#utility.yul\":10520:10523   */\n      dup6\n        /* \"#utility.yul\":10483:10537   */\n      tag_132\n      jump\t// in\n    tag_256:\n        /* \"#utility.yul\":10202:10543   */\n      pop\n        /* \"#utility.yul\":10118:10543   */\n      swap4\n      swap3\n      pop\n      pop\n      pop\n      jump\t// out\n        /* \"#utility.yul\":10563:10903   */\n    tag_134:\n        /* \"#utility.yul\":10619:10624   */\n      0x00\n        /* \"#utility.yul\":10668:10671   */\n      dup3\n        /* \"#utility.yul\":10661:10665   */\n      0x1f\n        /* \"#utility.yul\":10653:10659   */\n      dup4\n        /* \"#utility.yul\":10649:10666   */\n      add\n        /* \"#utility.yul\":10645:10672   */\n      slt\n        /* \"#utility.yul\":10635:10757   */\n      tag_258\n      jumpi\n        /* \"#utility.yul\":10676:10755   */\n      tag_259\n      tag_126\n      jump\t// in\n    tag_259:\n        /* \"#utility.yul\":10635:10757   */\n    tag_258:\n        /* \"#utility.yul\":10793:10799   */\n      dup2\n        /* \"#utility.yul\":10780:10800   */\n      calldataload\n        /* \"#utility.yul\":10818:10897   */\n      tag_260\n        /* \"#utility.yul\":10893:10896   */\n      dup5\n        /* \"#utility.yul\":10885:10891   */\n      dup3\n        /* \"#utility.yul\":10878:10882   */\n      0x20\n        /* \"#utility.yul\":10870:10876   */\n      dup7\n        /* \"#utility.yul\":10866:10883   */\n      add\n        /* \"#utility.yul\":10818:10897   */\n      tag_133\n      jump\t// in\n    tag_260:\n        /* \"#utility.yul\":10809:10897   */\n      swap2\n      pop\n        /* \"#utility.yul\":10625:10903   */\n      pop\n        /* \"#utility.yul\":10563:10903   */\n      swap3\n      swap2\n      pop\n      pop\n      jump\t// out\n        /* \"#utility.yul\":10909:11418   */\n    tag_33:\n        /* \"#utility.yul\":10978:10984   */\n      0x00\n        /* \"#utility.yul\":11027:11029   */\n      0x20\n        /* \"#utility.yul\":11015:11024   */\n      dup3\n        /* \"#utility.yul\":11006:11013   */\n      dup5\n        /* \"#utility.yul\":11002:11025   */\n      sub\n        /* \"#utility.yul\":10998:11030   */\n      slt\n        /* \"#utility.yul\":10995:11114   */\n      iszero\n      tag_262\n      jumpi\n        /* \"#utility.yul\":11033:11112   */\n      tag_263\n      tag_100\n      jump\t// in\n    tag_263:\n        /* \"#utility.yul\":10995:11114   */\n    tag_262:\n        /* \"#utility.yul\":11181:11182   */\n      0x00\n        /* \"#utility.yul\":11170:11179   */\n      dup3\n        /* \"#utility.yul\":11166:11183   */\n      add\n        /* \"#utility.yul\":11153:11184   */\n      calldataload\n        /* \"#utility.yul\":11211:11229   */\n      0xffffffffffffffff\n        /* \"#utility.yul\":11203:11209   */\n      dup2\n        /* \"#utility.yul\":11200:11230   */\n      gt\n        /* \"#utility.yul\":11197:11314   */\n      iszero\n      tag_264\n      jumpi\n        /* \"#utility.yul\":11233:11312   */\n      tag_265\n      tag_101\n      jump\t// in\n    tag_265:\n        /* \"#utility.yul\":11197:11314   */\n    tag_264:\n        /* \"#utility.yul\":11338:11401   */\n      tag_266\n        /* \"#utility.yul\":11393:11400   */\n      dup5\n        /* \"#utility.yul\":11384:11390   */\n      dup3\n        /* \"#utility.yul\":11373:11382   */\n      dup6\n        /* \"#utility.yul\":11369:11391   */\n      add\n        /* \"#utility.yul\":11338:11401   */\n      tag_134\n      jump\t// in\n    tag_266:\n        /* \"#utility.yul\":11328:11401   */\n      swap2\n      pop\n        /* \"#utility.yul\":11124:11411   */\n      pop\n        /* \"#utility.yul\":10909:11418   */\n      swap3\n      swap2\n      pop\n      pop\n      jump\t// out\n        /* \"#utility.yul\":11424:11542   */\n    tag_135:\n        /* \"#utility.yul\":11511:11535   */\n      tag_268\n        /* \"#utility.yul\":11529:11534   */\n      dup2\n        /* \"#utility.yul\":11511:11535   */\n      tag_103\n      jump\t// in\n    tag_268:\n        /* \"#utility.yul\":11506:11509   */\n      dup3\n        /* \"#utility.yul\":11499:11536   */\n      mstore\n        /* \"#utility.yul\":11424:11542   */\n      pop\n      pop\n      jump\t// out\n        /* \"#utility.yul\":11548:11770   */\n    tag_38:\n        /* \"#utility.yul\":11641:11645   */\n      0x00\n        /* \"#utility.yul\":11679:11681   */\n      0x20\n        /* \"#utility.yul\":11668:11677   */\n      dup3\n        /* \"#utility.yul\":11664:11682   */\n      add\n        /* \"#utility.yul\":11656:11682   */\n      swap1\n      pop\n        /* \"#utility.yul\":11692:11763   */\n      tag_270\n        /* \"#utility.yul\":11760:11761   */\n      0x00\n        /* \"#utility.yul\":11749:11758   */\n      dup4\n        /* \"#utility.yul\":11745:11762   */\n      add\n        /* \"#utility.yul\":11736:11742   */\n      dup5\n        /* \"#utility.yul\":11692:11763   */\n      tag_135\n      jump\t// in\n    tag_270:\n        /* \"#utility.yul\":11548:11770   */\n      swap3\n      swap2\n      pop\n      pop\n      jump\t// out\n        /* \"#utility.yul\":11776:11896   */\n    tag_136:\n        /* \"#utility.yul\":11848:11871   */\n      tag_272\n        /* \"#utility.yul\":11865:11870   */\n      dup2\n        /* \"#utility.yul\":11848:11871   */\n      tag_121\n      jump\t// in\n    tag_272:\n        /* \"#utility.yul\":11841:11846   */\n      dup2\n        /* \"#utility.yul\":11838:11872   */\n      eq\n        /* \"#utility.yul\":11828:11890   */\n      tag_273\n      jumpi\n        /* \"#utility.yul\":11886:11887   */\n      0x00\n        /* \"#utility.yul\":11883:11884   */\n      0x00\n        /* \"#utility.yul\":11876:11888   */\n      revert\n        /* \"#utility.yul\":11828:11890   */\n    tag_273:\n        /* \"#utility.yul\":11776:11896   */\n      pop\n      jump\t// out\n        /* \"#utility.yul\":11902:12039   */\n    tag_137:\n        /* \"#utility.yul\":11947:11952   */\n      0x00\n        /* \"#utility.yul\":11985:11991   */\n      dup2\n        /* \"#utility.yul\":11972:11992   */\n      calldataload\n        /* \"#utility.yul\":11963:11992   */\n      swap1\n      pop\n        /* \"#utility.yul\":12001:12033   */\n      tag_275\n        /* \"#utility.yul\":12027:12032   */\n      dup2\n        /* \"#utility.yul\":12001:12033   */\n      tag_136\n      jump\t// in\n    tag_275:\n        /* \"#utility.yul\":11902:12039   */\n      swap3\n      swap2\n      pop\n      pop\n      jump\t// out\n        /* \"#utility.yul\":12045:12372   */\n    tag_41:\n        /* \"#utility.yul\":12103:12109   */\n      0x00\n        /* \"#utility.yul\":12152:12154   */\n      0x20\n        /* \"#utility.yul\":12140:12149   */\n      dup3\n        /* \"#utility.yul\":12131:12138   */\n      dup5\n        /* \"#utility.yul\":12127:12150   */\n      sub\n        /* \"#utility.yul\":12123:12155   */\n      slt\n        /* \"#utility.yul\":12120:12239   */\n      iszero\n      tag_277\n      jumpi\n        /* \"#utility.yul\":12158:12237   */\n      tag_278\n      tag_100\n      jump\t// in\n    tag_278:\n        /* \"#utility.yul\":12120:12239   */\n    tag_277:\n        /* \"#utility.yul\":12278:12279   */\n      0x00\n        /* \"#utility.yul\":12303:12355   */\n      tag_279\n        /* \"#utility.yul\":12347:12354   */\n      dup5\n        /* \"#utility.yul\":12338:12344   */\n      dup3\n        /* \"#utility.yul\":12327:12336   */\n      dup6\n        /* \"#utility.yul\":12323:12345   */\n      add\n        /* \"#utility.yul\":12303:12355   */\n      tag_137\n      jump\t// in\n    tag_279:\n        /* \"#utility.yul\":12293:12355   */\n      swap2\n      pop\n        /* \"#utility.yul\":12249:12365   */\n      pop\n        /* \"#utility.yul\":12045:12372   */\n      swap3\n      swap2\n      pop\n      pop\n      jump\t// out\n        /* \"#utility.yul\":12378:12558   */\n    tag_138:\n        /* \"#utility.yul\":12426:12503   */\n      0x4e487b7100000000000000000000000000000000000000000000000000000000\n        /* \"#utility.yul\":12423:12424   */\n      0x00\n        /* \"#utility.yul\":12416:12504   */\n      mstore\n        /* \"#utility.yul\":12523:12527   */\n      0x22\n        /* \"#utility.yul\":12520:12521   */\n      0x04\n        /* \"#utility.yul\":12513:12528   */\n      mstore\n        /* \"#utility.yul\":12547:12551   */\n      0x24\n        /* \"#utility.yul\":12544:12545   */\n      0x00\n        /* \"#utility.yul\":12537:12552   */\n      revert\n        /* \"#utility.yul\":12564:12884   */\n    tag_51:\n        /* \"#utility.yul\":12608:12614   */\n      0x00\n        /* \"#utility.yul\":12645:12646   */\n      0x02\n        /* \"#utility.yul\":12639:12643   */\n      dup3\n        /* \"#utility.yul\":12635:12647   */\n      div\n        /* \"#utility.yul\":12625:12647   */\n      swap1\n      pop\n        /* \"#utility.yul\":12692:12693   */\n      0x01\n        /* \"#utility.yul\":12686:12690   */\n      dup3\n        /* \"#utility.yul\":12682:12694   */\n      and\n        /* \"#utility.yul\":12713:12731   */\n      dup1\n        /* \"#utility.yul\":12703:12784   */\n      tag_282\n      jumpi\n        /* \"#utility.yul\":12769:12773   */\n      0x7f\n        /* \"#utility.yul\":12761:12767   */\n      dup3\n        /* \"#utility.yul\":12757:12774   */\n      and\n        /* \"#utility.yul\":12747:12774   */\n      swap2\n      pop\n        /* \"#utility.yul\":12703:12784   */\n    tag_282:\n        /* \"#utility.yul\":12831:12833   */\n      0x20\n        /* \"#utility.yul\":12823:12829   */\n      dup3\n        /* \"#utility.yul\":12820:12834   */\n      lt\n        /* \"#utility.yul\":12800:12818   */\n      dup2\n        /* \"#utility.yul\":12797:12835   */\n      sub\n        /* \"#utility.yul\":12794:12878   */\n      tag_283\n      jumpi\n        /* \"#utility.yul\":12850:12868   */\n      tag_284\n      tag_138\n      jump\t// in\n    tag_284:\n        /* \"#utility.yul\":12794:12878   */\n    tag_283:\n        /* \"#utility.yul\":12615:12884   */\n      pop\n        /* \"#utility.yul\":12564:12884   */\n      swap2\n      swap1\n      pop\n      jump\t// out\n        /* \"#utility.yul\":12890:13070   */\n    tag_61:\n        /* \"#utility.yul\":12938:13015   */\n      0x4e487b7100000000000000000000000000000000000000000000000000000000\n        /* \"#utility.yul\":12935:12936   */\n      0x00\n        /* \"#utility.yul\":12928:13016   */\n      mstore\n        /* \"#utility.yul\":13035:13039   */\n      0x32\n        /* \"#utility.yul\":13032:13033   */\n      0x04\n        /* \"#utility.yul\":13025:13040   */\n      mstore\n        /* \"#utility.yul\":13059:13063   */\n      0x24\n        /* \"#utility.yul\":13056:13057   */\n      0x00\n        /* \"#utility.yul\":13049:13064   */\n      revert\n        /* \"#utility.yul\":13076:13256   */\n    tag_139:\n        /* \"#utility.yul\":13124:13201   */\n      0x4e487b7100000000000000000000000000000000000000000000000000000000\n        /* \"#utility.yul\":13121:13122   */\n      0x00\n        /* \"#utility.yul\":13114:13202   */\n      mstore\n        /* \"#utility.yul\":13221:13225   */\n      0x11\n        /* \"#utility.yul\":13218:13219   */\n      0x04\n        /* \"#utility.yul\":13211:13226   */\n      mstore\n        /* \"#utility.yul\":13245:13249   */\n      0x24\n        /* \"#utility.yul\":13242:13243   */\n      0x00\n        /* \"#utility.yul\":13235:13250   */\n      revert\n        /* \"#utility.yul\":13262:13495   */\n    tag_77:\n        /* \"#utility.yul\":13301:13304   */\n      0x00\n        /* \"#utility.yul\":13324:13348   */\n      tag_288\n        /* \"#utility.yul\":13342:13347   */\n      dup3\n        /* \"#utility.yul\":13324:13348   */\n      tag_109\n      jump\t// in\n    tag_288:\n        /* \"#utility.yul\":13315:13348   */\n      swap2\n      pop\n        /* \"#utility.yul\":13370:13436   */\n      0xffffffffffffffffffffffffffffffffffffffffffffffffffffffffffffffff\n        /* \"#utility.yul\":13363:13368   */\n      dup3\n        /* \"#utility.yul\":13360:13437   */\n      sub\n        /* \"#utility.yul\":13357:13460   */\n      tag_289\n      jumpi\n        /* \"#utility.yul\":13440:13458   */\n      tag_290\n      tag_139\n      jump\t// in\n    tag_290:\n        /* \"#utility.yul\":13357:13460   */\n    tag_289:\n        /* \"#utility.yul\":13487:13488   */\n      0x01\n        /* \"#utility.yul\":13480:13485   */\n      dup3\n        /* \"#utility.yul\":13476:13489   */\n      add\n        /* \"#utility.yul\":13469:13489   */\n      swap1\n      pop\n        /* \"#utility.yul\":13262:13495   */\n      swap2\n      swap1\n      pop\n      jump\t// out\n        /* \"#utility.yul\":13501:13670   */\n    tag_140:\n        /* \"#utility.yul\":13585:13596   */\n      0x00\n        /* \"#utility.yul\":13619:13625   */\n      dup3\n        /* \"#utility.yul\":13614:13617   */\n      dup3\n        /* \"#utility.yul\":13607:13626   */\n      mstore\n        /* \"#utility.yul\":13659:13663   */\n      0x20\n        /* \"#utility.yul\":13654:13657   */\n      dup3\n        /* \"#utility.yul\":13650:13664   */\n      add\n        /* \"#utility.yul\":13635:13664   */\n      swap1\n      pop\n        /* \"#utility.yul\":13501:13670   */\n      swap3\n      swap2\n      pop\n      pop\n      jump\t// out\n        /* \"#utility.yul\":13676:13843   */\n    tag_141:\n        /* \"#utility.yul\":13816:13835   */\n      0x746865207477656574206973206c6f6e67000000000000000000000000000000\n        /* \"#utility.yul\":13812:13813   */\n      0x00\n        /* \"#utility.yul\":13804:13810   */\n      dup3\n        /* \"#utility.yul\":13800:13814   */\n      add\n        /* \"#utility.yul\":13793:13836   */\n      mstore\n        /* \"#utility.yul\":13676:13843   */\n      pop\n      jump\t// out\n        /* \"#utility.yul\":13849:14215   */\n    tag_142:\n        /* \"#utility.yul\":13991:13994   */\n      0x00\n        /* \"#utility.yul\":14012:14079   */\n      tag_294\n        /* \"#utility.yul\":14076:14078   */\n      0x11\n        /* \"#utility.yul\":14071:14074   */\n      dup4\n        /* \"#utility.yul\":14012:14079   */\n      tag_140\n      jump\t// in\n    tag_294:\n        /* \"#utility.yul\":14005:14079   */\n      swap2\n      pop\n        /* \"#utility.yul\":14088:14181   */\n      tag_295\n        /* \"#utility.yul\":14177:14180   */\n      dup3\n        /* \"#utility.yul\":14088:14181   */\n      tag_141\n      jump\t// in\n    tag_295:\n        /* \"#utility.yul\":14206:14208   */\n      0x20\n        /* \"#utility.yul\":14201:14204   */\n      dup3\n        /* \"#utility.yul\":14197:14209   */\n      add\n        /* \"#utility.yul\":14190:14209   */\n      swap1\n      pop\n        /* \"#utility.yul\":13849:14215   */\n      swap2\n      swap1\n      pop\n      jump\t// out\n        /* \"#utility.yul\":14221:14640   */\n    tag_81:\n        /* \"#utility.yul\":14387:14391   */\n      0x00\n        /* \"#utility.yul\":14425:14427   */\n      0x20\n        /* \"#utility.yul\":14414:14423   */\n      dup3\n        /* \"#utility.yul\":14410:14428   */\n      add\n        /* \"#utility.yul\":14402:14428   */\n      swap1\n      pop\n        /* \"#utility.yul\":14474:14483   */\n      dup2\n        /* \"#utility.yul\":14468:14472   */\n      dup2\n        /* \"#utility.yul\":14464:14484   */\n      sub\n        /* \"#utility.yul\":14460:14461   */\n      0x00\n        /* \"#utility.yul\":14449:14458   */\n      dup4\n        /* \"#utility.yul\":14445:14462   */\n      add\n        /* \"#utility.yul\":14438:14485   */\n      mstore\n        /* \"#utility.yul\":14502:14633   */\n      tag_297\n        /* \"#utility.yul\":14628:14632   */\n      dup2\n        /* \"#utility.yul\":14502:14633   */\n      tag_142\n      jump\t// in\n    tag_297:\n        /* \"#utility.yul\":14494:14633   */\n      swap1\n      pop\n        /* \"#utility.yul\":14221:14640   */\n      swap2\n      swap1\n      pop\n      jump\t// out\n        /* \"#utility.yul\":14646:14787   */\n    tag_143:\n        /* \"#utility.yul\":14695:14699   */\n      0x00\n        /* \"#utility.yul\":14718:14721   */\n      dup2\n        /* \"#utility.yul\":14710:14721   */\n      swap1\n      pop\n        /* \"#utility.yul\":14741:14744   */\n      dup2\n        /* \"#utility.yul\":14738:14739   */\n      0x00\n        /* \"#utility.yul\":14731:14745   */\n      mstore\n        /* \"#utility.yul\":14775:14779   */\n      0x20\n        /* \"#utility.yul\":14772:14773   */\n      0x00\n        /* \"#utility.yul\":14762:14780   */\n      keccak256\n        /* \"#utility.yul\":14754:14780   */\n      swap1\n      pop\n        /* \"#utility.yul\":14646:14787   */\n      swap2\n      swap1\n      pop\n      jump\t// out\n        /* \"#utility.yul\":14793:14886   */\n    tag_144:\n        /* \"#utility.yul\":14830:14836   */\n      0x00\n        /* \"#utility.yul\":14877:14879   */\n      0x20\n        /* \"#utility.yul\":14872:14874   */\n      0x1f\n        /* \"#utility.yul\":14865:14870   */\n      dup4\n        /* \"#utility.yul\":14861:14875   */\n      add\n        /* \"#utility.yul\":14857:14880   */\n      div\n        /* \"#utility.yul\":14847:14880   */\n      swap1\n      pop\n        /* \"#utility.yul\":14793:14886   */\n      swap2\n      swap1\n      pop\n      jump\t// out\n        /* \"#utility.yul\":14892:14999   */\n    tag_145:\n        /* \"#utility.yul\":14936:14944   */\n      0x00\n        /* \"#utility.yul\":14986:14991   */\n      dup3\n        /* \"#utility.yul\":14980:14984   */\n      dup3\n        /* \"#utility.yul\":14976:14992   */\n      shl\n        /* \"#utility.yul\":14955:14992   */\n      swap1\n      pop\n        /* \"#utility.yul\":14892:14999   */\n      swap3\n      swap2\n      pop\n      pop\n      jump\t// out\n        /* \"#utility.yul\":15005:15398   */\n    tag_146:\n        /* \"#utility.yul\":15074:15080   */\n      0x00\n        /* \"#utility.yul\":15124:15125   */\n      0x08\n        /* \"#utility.yul\":15112:15122   */\n      dup4\n        /* \"#utility.yul\":15108:15126   */\n      mul\n        /* \"#utility.yul\":15147:15244   */\n      tag_302\n        /* \"#utility.yul\":15177:15243   */\n      0xffffffffffffffffffffffffffffffffffffffffffffffffffffffffffffffff\n        /* \"#utility.yul\":15166:15175   */\n      dup3\n        /* \"#utility.yul\":15147:15244   */\n      tag_145\n      jump\t// in\n    tag_302:\n        /* \"#utility.yul\":15265:15304   */\n      tag_303\n        /* \"#utility.yul\":15295:15303   */\n      dup7\n        /* \"#utility.yul\":15284:15293   */\n      dup4\n        /* \"#utility.yul\":15265:15304   */\n      tag_145\n      jump\t// in\n    tag_303:\n        /* \"#utility.yul\":15253:15304   */\n      swap6\n      pop\n        /* \"#utility.yul\":15337:15341   */\n      dup1\n        /* \"#utility.yul\":15333:15342   */\n      not\n        /* \"#utility.yul\":15326:15331   */\n      dup5\n        /* \"#utility.yul\":15322:15343   */\n      and\n        /* \"#utility.yul\":15313:15343   */\n      swap4\n      pop\n        /* \"#utility.yul\":15386:15390   */\n      dup1\n        /* \"#utility.yul\":15376:15384   */\n      dup7\n        /* \"#utility.yul\":15372:15391   */\n      and\n        /* \"#utility.yul\":15365:15370   */\n      dup5\n        /* \"#utility.yul\":15362:15392   */\n      or\n        /* \"#utility.yul\":15352:15392   */\n      swap3\n      pop\n        /* \"#utility.yul\":15081:15398   */\n      pop\n      pop\n        /* \"#utility.yul\":15005:15398   */\n      swap4\n      swap3\n      pop\n      pop\n      pop\n      jump\t// out\n        /* \"#utility.yul\":15404:15464   */\n    tag_147:\n        /* \"#utility.yul\":15432:15435   */\n      0x00\n        /* \"#utility.yul\":15453:15458   */\n      dup2\n        /* \"#utility.yul\":15446:15458   */\n      swap1\n      pop\n        /* \"#utility.yul\":15404:15464   */\n      swap2\n      swap1\n      pop\n      jump\t// out\n        /* \"#utility.yul\":15470:15612   */\n    tag_148:\n        /* \"#utility.yul\":15520:15529   */\n      0x00\n        /* \"#utility.yul\":15553:15606   */\n      tag_306\n        /* \"#utility.yul\":15571:15605   */\n      tag_307\n        /* \"#utility.yul\":15580:15604   */\n      tag_308\n        /* \"#utility.yul\":15598:15603   */\n      dup5\n        /* \"#utility.yul\":15580:15604   */\n      tag_109\n      jump\t// in\n    tag_308:\n        /* \"#utility.yul\":15571:15605   */\n      tag_147\n      jump\t// in\n    tag_307:\n        /* \"#utility.yul\":15553:15606   */\n      tag_109\n      jump\t// in\n    tag_306:\n        /* \"#utility.yul\":15540:15606   */\n      swap1\n      pop\n        /* \"#utility.yul\":15470:15612   */\n      swap2\n      swap1\n      pop\n      jump\t// out\n        /* \"#utility.yul\":15618:15693   */\n    tag_149:\n        /* \"#utility.yul\":15661:15664   */\n      0x00\n        /* \"#utility.yul\":15682:15687   */\n      dup2\n        /* \"#utility.yul\":15675:15687   */\n      swap1\n      pop\n        /* \"#utility.yul\":15618:15693   */\n      swap2\n      swap1\n      pop\n      jump\t// out\n        /* \"#utility.yul\":15699:15968   */\n    tag_150:\n        /* \"#utility.yul\":15809:15848   */\n      tag_311\n        /* \"#utility.yul\":15840:15847   */\n      dup4\n        /* \"#utility.yul\":15809:15848   */\n      tag_148\n      jump\t// in\n    tag_311:\n        /* \"#utility.yul\":15870:15961   */\n      tag_312\n        /* \"#utility.yul\":15919:15960   */\n      tag_313\n        /* \"#utility.yul\":15943:15959   */\n      dup3\n        /* \"#utility.yul\":15919:15960   */\n      tag_149\n      jump\t// in\n    tag_313:\n        /* \"#utility.yul\":15911:15917   */\n      dup5\n        /* \"#utility.yul\":15904:15908   */\n      dup5\n        /* \"#utility.yul\":15898:15909   */\n      sload\n        /* \"#utility.yul\":15870:15961   */\n      tag_146\n      jump\t// in\n    tag_312:\n        /* \"#utility.yul\":15864:15868   */\n      dup3\n        /* \"#utility.yul\":15857:15962   */\n      sstore\n        /* \"#utility.yul\":15775:15968   */\n      pop\n        /* \"#utility.yul\":15699:15968   */\n      pop\n      pop\n      pop\n      jump\t// out\n        /* \"#utility.yul\":15974:16047   */\n    tag_151:\n        /* \"#utility.yul\":16019:16022   */\n      0x00\n        /* \"#utility.yul\":16040:16041   */\n      0x00\n        /* \"#utility.yul\":16033:16041   */\n      swap1\n      pop\n        /* \"#utility.yul\":15974:16047   */\n      swap1\n      jump\t// out\n        /* \"#utility.yul\":16053:16242   */\n    tag_152:\n        /* \"#utility.yul\":16130:16162   */\n      tag_316\n      tag_151\n      jump\t// in\n    tag_316:\n        /* \"#utility.yul\":16171:16236   */\n      tag_317\n        /* \"#utility.yul\":16229:16235   */\n      dup2\n        /* \"#utility.yul\":16221:16227   */\n      dup5\n        /* \"#utility.yul\":16215:16219   */\n      dup5\n        /* \"#utility.yul\":16171:16236   */\n      tag_150\n      jump\t// in\n    tag_317:\n        /* \"#utility.yul\":16106:16242   */\n      pop\n        /* \"#utility.yul\":16053:16242   */\n      pop\n      pop\n      jump\t// out\n        /* \"#utility.yul\":16248:16434   */\n    tag_153:\n        /* \"#utility.yul\":16308:16428   */\n    tag_319:\n        /* \"#utility.yul\":16325:16328   */\n      dup2\n        /* \"#utility.yul\":16318:16323   */\n      dup2\n        /* \"#utility.yul\":16315:16329   */\n      lt\n        /* \"#utility.yul\":16308:16428   */\n      iszero\n      tag_321\n      jumpi\n        /* \"#utility.yul\":16379:16418   */\n      tag_322\n        /* \"#utility.yul\":16416:16417   */\n      0x00\n        /* \"#utility.yul\":16409:16414   */\n      dup3\n        /* \"#utility.yul\":16379:16418   */\n      tag_152\n      jump\t// in\n    tag_322:\n        /* \"#utility.yul\":16352:16353   */\n      0x01\n        /* \"#utility.yul\":16345:16350   */\n      dup2\n        /* \"#utility.yul\":16341:16354   */\n      add\n        /* \"#utility.yul\":16332:16354   */\n      swap1\n      pop\n        /* \"#utility.yul\":16308:16428   */\n      jump(tag_319)\n    tag_321:\n        /* \"#utility.yul\":16248:16434   */\n      pop\n      pop\n      jump\t// out\n        /* \"#utility.yul\":16440:16983   */\n    tag_154:\n        /* \"#utility.yul\":16541:16543   */\n      0x1f\n        /* \"#utility.yul\":16536:16539   */\n      dup3\n        /* \"#utility.yul\":16533:16544   */\n      gt\n        /* \"#utility.yul\":16530:16976   */\n      iszero\n      tag_324\n      jumpi\n        /* \"#utility.yul\":16575:16613   */\n      tag_325\n        /* \"#utility.yul\":16607:16612   */\n      dup2\n        /* \"#utility.yul\":16575:16613   */\n      tag_143\n      jump\t// in\n    tag_325:\n        /* \"#utility.yul\":16659:16688   */\n      tag_326\n        /* \"#utility.yul\":16677:16687   */\n      dup5\n        /* \"#utility.yul\":16659:16688   */\n      tag_144\n      jump\t// in\n    tag_326:\n        /* \"#utility.yul\":16649:16657   */\n      dup2\n        /* \"#utility.yul\":16645:16689   */\n      add\n        /* \"#utility.yul\":16842:16844   */\n      0x20\n        /* \"#utility.yul\":16830:16840   */\n      dup6\n        /* \"#utility.yul\":16827:16845   */\n      lt\n        /* \"#utility.yul\":16824:16873   */\n      iszero\n      tag_327\n      jumpi\n        /* \"#utility.yul\":16863:16871   */\n      dup2\n        /* \"#utility.yul\":16848:16871   */\n      swap1\n      pop\n        /* \"#utility.yul\":16824:16873   */\n    tag_327:\n        /* \"#utility.yul\":16886:16966   */\n      tag_328\n        /* \"#utility.yul\":16942:16964   */\n      tag_329\n        /* \"#utility.yul\":16960:16963   */\n      dup6\n        /* \"#utility.yul\":16942:16964   */\n      tag_144\n      jump\t// in\n    tag_329:\n        /* \"#utility.yul\":16932:16940   */\n      dup4\n        /* \"#utility.yul\":16928:16965   */\n      add\n        /* \"#utility.yul\":16915:16926   */\n      dup3\n        /* \"#utility.yul\":16886:16966   */\n      tag_153\n      jump\t// in\n    tag_328:\n        /* \"#utility.yul\":16545:16976   */\n      pop\n      pop\n        /* \"#utility.yul\":16530:16976   */\n    tag_324:\n        /* \"#utility.yul\":16440:16983   */\n      pop\n      pop\n      pop\n      jump\t// out\n        /* \"#utility.yul\":16989:17106   */\n    tag_155:\n        /* \"#utility.yul\":17043:17051   */\n      0x00\n        /* \"#utility.yul\":17093:17098   */\n      dup3\n        /* \"#utility.yul\":17087:17091   */\n      dup3\n        /* \"#utility.yul\":17083:17099   */\n      shr\n        /* \"#utility.yul\":17062:17099   */\n      swap1\n      pop\n        /* \"#utility.yul\":16989:17106   */\n      swap3\n      swap2\n      pop\n      pop\n      jump\t// out\n        /* \"#utility.yul\":17112:17281   */\n    tag_156:\n        /* \"#utility.yul\":17156:17162   */\n      0x00\n        /* \"#utility.yul\":17189:17240   */\n      tag_332\n        /* \"#utility.yul\":17237:17238   */\n      0x00\n        /* \"#utility.yul\":17233:17239   */\n      not\n        /* \"#utility.yul\":17225:17230   */\n      dup5\n        /* \"#utility.yul\":17222:17223   */\n      0x08\n        /* \"#utility.yul\":17218:17231   */\n      mul\n        /* \"#utility.yul\":17189:17240   */\n      tag_155\n      jump\t// in\n    tag_332:\n        /* \"#utility.yul\":17185:17241   */\n      not\n        /* \"#utility.yul\":17270:17274   */\n      dup1\n        /* \"#utility.yul\":17264:17268   */\n      dup4\n        /* \"#utility.yul\":17260:17275   */\n      and\n        /* \"#utility.yul\":17250:17275   */\n      swap2\n      pop\n        /* \"#utility.yul\":17163:17281   */\n      pop\n        /* \"#utility.yul\":17112:17281   */\n      swap3\n      swap2\n      pop\n      pop\n      jump\t// out\n        /* \"#utility.yul\":17286:17581   */\n    tag_157:\n        /* \"#utility.yul\":17362:17366   */\n      0x00\n        /* \"#utility.yul\":17508:17537   */\n      tag_334\n        /* \"#utility.yul\":17533:17536   */\n      dup4\n        /* \"#utility.yul\":17527:17531   */\n      dup4\n        /* \"#utility.yul\":17508:17537   */\n      tag_156\n      jump\t// in\n    tag_334:\n        /* \"#utility.yul\":17500:17537   */\n      swap2\n      pop\n        /* \"#utility.yul\":17570:17573   */\n      dup3\n        /* \"#utility.yul\":17567:17568   */\n      0x02\n        /* \"#utility.yul\":17563:17574   */\n      mul\n        /* \"#utility.yul\":17557:17561   */\n      dup3\n        /* \"#utility.yul\":17554:17575   */\n      or\n        /* \"#utility.yul\":17546:17575   */\n      swap1\n      pop\n        /* \"#utility.yul\":17286:17581   */\n      swap3\n      swap2\n      pop\n      pop\n      jump\t// out\n        /* \"#utility.yul\":17586:18981   */\n    tag_84:\n        /* \"#utility.yul\":17703:17740   */\n      tag_336\n        /* \"#utility.yul\":17736:17739   */\n      dup3\n        /* \"#utility.yul\":17703:17740   */\n      tag_112\n      jump\t// in\n    tag_336:\n        /* \"#utility.yul\":17805:17823   */\n      0xffffffffffffffff\n        /* \"#utility.yul\":17797:17803   */\n      dup2\n        /* \"#utility.yul\":17794:17824   */\n      gt\n        /* \"#utility.yul\":17791:17847   */\n      iszero\n      tag_337\n      jumpi\n        /* \"#utility.yul\":17827:17845   */\n      tag_338\n      tag_128\n      jump\t// in\n    tag_338:\n        /* \"#utility.yul\":17791:17847   */\n    tag_337:\n        /* \"#utility.yul\":17871:17909   */\n      tag_339\n        /* \"#utility.yul\":17903:17907   */\n      dup3\n        /* \"#utility.yul\":17897:17908   */\n      sload\n        /* \"#utility.yul\":17871:17909   */\n      tag_51\n      jump\t// in\n    tag_339:\n        /* \"#utility.yul\":17956:18023   */\n      tag_340\n        /* \"#utility.yul\":18016:18022   */\n      dup3\n        /* \"#utility.yul\":18008:18014   */\n      dup3\n        /* \"#utility.yul\":18002:18006   */\n      dup6\n        /* \"#utility.yul\":17956:18023   */\n      tag_154\n      jump\t// in\n    tag_340:\n        /* \"#utility.yul\":18050:18051   */\n      0x00\n        /* \"#utility.yul\":18074:18078   */\n      0x20\n        /* \"#utility.yul\":18061:18078   */\n      swap1\n      pop\n        /* \"#utility.yul\":18106:18108   */\n      0x1f\n        /* \"#utility.yul\":18098:18104   */\n      dup4\n        /* \"#utility.yul\":18095:18109   */\n      gt\n        /* \"#utility.yul\":18123:18124   */\n      0x01\n        /* \"#utility.yul\":18118:18736   */\n      dup2\n      eq\n      tag_342\n      jumpi\n        /* \"#utility.yul\":18780:18781   */\n      0x00\n        /* \"#utility.yul\":18797:18803   */\n      dup5\n        /* \"#utility.yul\":18794:18871   */\n      iszero\n      tag_343\n      jumpi\n        /* \"#utility.yul\":18846:18855   */\n      dup3\n        /* \"#utility.yul\":18841:18844   */\n      dup8\n        /* \"#utility.yul\":18837:18856   */\n      add\n        /* \"#utility.yul\":18831:18857   */\n      mload\n        /* \"#utility.yul\":18822:18857   */\n      swap1\n      pop\n        /* \"#utility.yul\":18794:18871   */\n    tag_343:\n        /* \"#utility.yul\":18897:18964   */\n      tag_344\n        /* \"#utility.yul\":18957:18963   */\n      dup6\n        /* \"#utility.yul\":18950:18955   */\n      dup3\n        /* \"#utility.yul\":18897:18964   */\n      tag_157\n      jump\t// in\n    tag_344:\n        /* \"#utility.yul\":18891:18895   */\n      dup7\n        /* \"#utility.yul\":18884:18965   */\n      sstore\n        /* \"#utility.yul\":18753:18975   */\n      pop\n        /* \"#utility.yul\":18088:18975   */\n      jump(tag_341)\n        /* \"#utility.yul\":18118:18736   */\n    tag_342:\n        /* \"#utility.yul\":18170:18174   */\n      0x1f\n        /* \"#utility.yul\":18166:18175   */\n      not\n        /* \"#utility.yul\":18158:18164   */\n      dup5\n        /* \"#utility.yul\":18154:18176   */\n      and\n        /* \"#utility.yul\":18204:18241   */\n      tag_345\n        /* \"#utility.yul\":18236:18240   */\n      dup7\n        /* \"#utility.yul\":18204:18241   */\n      tag_143\n      jump\t// in\n    tag_345:\n        /* \"#utility.yul\":18263:18264   */\n      0x00\n        /* \"#utility.yul\":18277:18485   */\n    tag_346:\n        /* \"#utility.yul\":18291:18298   */\n      dup3\n        /* \"#utility.yul\":18288:18289   */\n      dup2\n        /* \"#utility.yul\":18285:18299   */\n      lt\n        /* \"#utility.yul\":18277:18485   */\n      iszero\n      tag_348\n      jumpi\n        /* \"#utility.yul\":18370:18379   */\n      dup5\n        /* \"#utility.yul\":18365:18368   */\n      dup10\n        /* \"#utility.yul\":18361:18380   */\n      add\n        /* \"#utility.yul\":18355:18381   */\n      mload\n        /* \"#utility.yul\":18347:18353   */\n      dup3\n        /* \"#utility.yul\":18340:18382   */\n      sstore\n        /* \"#utility.yul\":18421:18422   */\n      0x01\n        /* \"#utility.yul\":18413:18419   */\n      dup3\n        /* \"#utility.yul\":18409:18423   */\n      add\n        /* \"#utility.yul\":18399:18423   */\n      swap2\n      pop\n        /* \"#utility.yul\":18468:18470   */\n      0x20\n        /* \"#utility.yul\":18457:18466   */\n      dup6\n        /* \"#utility.yul\":18453:18471   */\n      add\n        /* \"#utility.yul\":18440:18471   */\n      swap5\n      pop\n        /* \"#utility.yul\":18314:18318   */\n      0x20\n        /* \"#utility.yul\":18311:18312   */\n      dup2\n        /* \"#utility.yul\":18307:18319   */\n      add\n        /* \"#utility.yul\":18302:18319   */\n      swap1\n      pop\n        /* \"#utility.yul\":18277:18485   */\n      jump(tag_346)\n    tag_348:\n        /* \"#utility.yul\":18513:18519   */\n      dup7\n        /* \"#utility.yul\":18504:18511   */\n      dup4\n        /* \"#utility.yul\":18501:18520   */\n      lt\n        /* \"#utility.yul\":18498:18677   */\n      iszero\n      tag_349\n      jumpi\n        /* \"#utility.yul\":18571:18580   */\n      dup5\n        /* \"#utility.yul\":18566:18569   */\n      dup10\n        /* \"#utility.yul\":18562:18581   */\n      add\n        /* \"#utility.yul\":18556:18582   */\n      mload\n        /* \"#utility.yul\":18614:18662   */\n      tag_350\n        /* \"#utility.yul\":18656:18660   */\n      0x1f\n        /* \"#utility.yul\":18648:18654   */\n      dup10\n        /* \"#utility.yul\":18644:18661   */\n      and\n        /* \"#utility.yul\":18633:18642   */\n      dup3\n        /* \"#utility.yul\":18614:18662   */\n      tag_156\n      jump\t// in\n    tag_350:\n        /* \"#utility.yul\":18606:18612   */\n      dup4\n        /* \"#utility.yul\":18599:18663   */\n      sstore\n        /* \"#utility.yul\":18521:18677   */\n      pop\n        /* \"#utility.yul\":18498:18677   */\n    tag_349:\n        /* \"#utility.yul\":18723:18724   */\n      0x01\n        /* \"#utility.yul\":18719:18720   */\n      0x02\n        /* \"#utility.yul\":18711:18717   */\n      dup9\n        /* \"#utility.yul\":18707:18721   */\n      mul\n        /* \"#utility.yul\":18703:18725   */\n      add\n        /* \"#utility.yul\":18697:18701   */\n      dup9\n        /* \"#utility.yul\":18690:18726   */\n      sstore\n        /* \"#utility.yul\":18125:18736   */\n      pop\n      pop\n      pop\n        /* \"#utility.yul\":18088:18975   */\n    tag_341:\n      pop\n        /* \"#utility.yul\":17678:18981   */\n      pop\n      pop\n      pop\n        /* \"#utility.yul\":17586:18981   */\n      pop\n      pop\n      jump\t// out\n        /* \"#utility.yul\":18987:19158   */\n    tag_158:\n        /* \"#utility.yul\":19127:19150   */\n      0x796f7520617265206e6f7420746865206f776e65720000000000000000000000\n        /* \"#utility.yul\":19123:19124   */\n      0x00\n        /* \"#utility.yul\":19115:19121   */\n      dup3\n        /* \"#utility.yul\":19111:19125   */\n      add\n        /* \"#utility.yul\":19104:19151   */\n      mstore\n        /* \"#utility.yul\":18987:19158   */\n      pop\n      jump\t// out\n        /* \"#utility.yul\":19164:19530   */\n    tag_159:\n        /* \"#utility.yul\":19306:19309   */\n      0x00\n        /* \"#utility.yul\":19327:19394   */\n      tag_353\n        /* \"#utility.yul\":19391:19393   */\n      0x15\n        /* \"#utility.yul\":19386:19389   */\n      dup4\n        /* \"#utility.yul\":19327:19394   */\n      tag_140\n      jump\t// in\n    tag_353:\n        /* \"#utility.yul\":19320:19394   */\n      swap2\n      pop\n        /* \"#utility.yul\":19403:19496   */\n      tag_354\n        /* \"#utility.yul\":19492:19495   */\n      dup3\n        /* \"#utility.yul\":19403:19496   */\n      tag_158\n      jump\t// in\n    tag_354:\n        /* \"#utility.yul\":19521:19523   */\n      0x20\n        /* \"#utility.yul\":19516:19519   */\n      dup3\n        /* \"#utility.yul\":19512:19524   */\n      add\n        /* \"#utility.yul\":19505:19524   */\n      swap1\n      pop\n        /* \"#utility.yul\":19164:19530   */\n      swap2\n      swap1\n      pop\n      jump\t// out\n        /* \"#utility.yul\":19536:19955   */\n    tag_88:\n        /* \"#utility.yul\":19702:19706   */\n      0x00\n        /* \"#utility.yul\":19740:19742   */\n      0x20\n        /* \"#utility.yul\":19729:19738   */\n      dup3\n        /* \"#utility.yul\":19725:19743   */\n      add\n        /* \"#utility.yul\":19717:19743   */\n      swap1\n      pop\n        /* \"#utility.yul\":19789:19798   */\n      dup2\n        /* \"#utility.yul\":19783:19787   */\n      dup2\n        /* \"#utility.yul\":19779:19799   */\n      sub\n        /* \"#utility.yul\":19775:19776   */\n      0x00\n        /* \"#utility.yul\":19764:19773   */\n      dup4\n        /* \"#utility.yul\":19760:19777   */\n      add\n        /* \"#utility.yul\":19753:19800   */\n      mstore\n        /* \"#utility.yul\":19817:19948   */\n      tag_356\n        /* \"#utility.yul\":19943:19947   */\n      dup2\n        /* \"#utility.yul\":19817:19948   */\n      tag_159\n      jump\t// in\n    tag_356:\n        /* \"#utility.yul\":19809:19948   */\n      swap1\n      pop\n        /* \"#utility.yul\":19536:19955   */\n      swap2\n      swap1\n      pop\n      jump\t// out\n\n    auxdata: 0xa2646970667358221220b3b6fa473f72964f702c4962696e0352b436ed9e2e466cab742a1ff1c677882964736f6c634300081c0033\n}\n",
				"bytecode": {
					"linkReferences": {},
					"object": "60806040526101185f60146101000a81548161ffff021916908361ffff160217905550348015602c575f5ffd5b50335f5f6101000a81548173ffffffffffffffffffffffffffffffffffffffff021916908373ffffffffffffffffffffffffffffffffffffffff16021790555061141e806100795f395ff3fe608060405234801561000f575f5ffd5b5060043610610086575f3560e01c80637c9cd2bc116100595780637c9cd2bc146101245780638da5cb5b1461014057806397213d071461015e578063aefedbc21461017a57610086565b806312e7ee1c1461008a57806313ce9358146100ba5780631d6b664e146100d85780636337821614610108575b5f5ffd5b6100a4600480360381019061009f9190610a6b565b610198565b6040516100b19190610c5b565b60405180910390f35b6100c2610333565b6040516100cf9190610c97565b60405180910390f35b6100f260048036038101906100ed9190610a6b565b610346565b6040516100ff9190610d23565b60405180910390f35b610122600480360381019061011d9190610d6d565b6104bd565b005b61013e60048036038101906101399190610ed7565b61059c565b005b610148610755565b6040516101559190610f2d565b60405180910390f35b61017860048036038101906101739190610f70565b610779565b005b610182610826565b60405161018f9190610c5b565b60405180910390f35b606060015f8373ffffffffffffffffffffffffffffffffffffffff1673ffffffffffffffffffffffffffffffffffffffff1681526020019081526020015f20805480602002602001604051908101604052809291908181526020015f905b82821015610328578382905f5260205f2090600502016040518060a00160405290815f8201548152602001600182015f9054906101000a900473ffffffffffffffffffffffffffffffffffffffff1673ffffffffffffffffffffffffffffffffffffffff1673ffffffffffffffffffffffffffffffffffffffff168152602001600282015481526020016003820154815260200160048201805461029990610fc8565b80601f01602080910402602001604051908101604052809291908181526020018280546102c590610fc8565b80156103105780601f106102e757610100808354040283529160200191610310565b820191905f5260205f20905b8154815290600101906020018083116102f357829003601f168201915b505050505081525050815260200190600101906101f6565b505050509050919050565b5f60149054906101000a900461ffff1681565b61034e6109bf565b60015f8373ffffffffffffffffffffffffffffffffffffffff1673ffffffffffffffffffffffffffffffffffffffff1681526020019081526020015f205f8154811061039d5761039c610ff8565b5b905f5260205f2090600502016040518060a00160405290815f8201548152602001600182015f9054906101000a900473ffffffffffffffffffffffffffffffffffffffff1673ffffffffffffffffffffffffffffffffffffffff1673ffffffffffffffffffffffffffffffffffffffff168152602001600282015481526020016003820154815260200160048201805461043690610fc8565b80601f016020809104026020016040519081016040528092919081815260200182805461046290610fc8565b80156104ad5780601f10610484576101008083540402835291602001916104ad565b820191905f5260205f20905b81548152906001019060200180831161049057829003601f168201915b5050505050815250509050919050565b8060015f8473ffffffffffffffffffffffffffffffffffffffff1673ffffffffffffffffffffffffffffffffffffffff1681526020019081526020015f20828154811061050d5761050c610ff8565b5b905f5260205f2090600502015f015414610525575f5ffd5b60015f8373ffffffffffffffffffffffffffffffffffffffff1673ffffffffffffffffffffffffffffffffffffffff1681526020019081526020015f20818154811061057457610573610ff8565b5b905f5260205f2090600502016002015f81548092919061059390611052565b91905055505050565b5f60149054906101000a900461ffff1661ffff16815111156105f3576040517f08c379a00000000000000000000000000000000000000000000000000000000081526004016105ea906110f3565b60405180910390fd5b5f6040518060a0016040528060015f3373ffffffffffffffffffffffffffffffffffffffff1673ffffffffffffffffffffffffffffffffffffffff1681526020019081526020015f208054905081526020013373ffffffffffffffffffffffffffffffffffffffff1681526020015f815260200142815260200183815250905060015f3373ffffffffffffffffffffffffffffffffffffffff1673ffffffffffffffffffffffffffffffffffffffff1681526020019081526020015f2081908060018154018082558091505060019003905f5260205f2090600502015f909190919091505f820151815f01556020820151816001015f6101000a81548173ffffffffffffffffffffffffffffffffffffffff021916908373ffffffffffffffffffffffffffffffffffffffff1602179055506040820151816002015560608201518160030155608082015181600401908161074e91906112b1565b5050505050565b5f5f9054906101000a900473ffffffffffffffffffffffffffffffffffffffff1681565b3373ffffffffffffffffffffffffffffffffffffffff165f5f9054906101000a900473ffffffffffffffffffffffffffffffffffffffff1673ffffffffffffffffffffffffffffffffffffffff1614610807576040517f08c379a00000000000000000000000000000000000000000000000000000000081526004016107fe906113ca565b60405180910390fd5b805f60146101000a81548161ffff021916908361ffff16021790555050565b606060015f3373ffffffffffffffffffffffffffffffffffffffff1673ffffffffffffffffffffffffffffffffffffffff1681526020019081526020015f20805480602002602001604051908101604052809291908181526020015f905b828210156109b6578382905f5260205f2090600502016040518060a00160405290815f8201548152602001600182015f9054906101000a900473ffffffffffffffffffffffffffffffffffffffff1673ffffffffffffffffffffffffffffffffffffffff1673ffffffffffffffffffffffffffffffffffffffff168152602001600282015481526020016003820154815260200160048201805461092790610fc8565b80601f016020809104026020016040519081016040528092919081815260200182805461095390610fc8565b801561099e5780601f106109755761010080835404028352916020019161099e565b820191905f5260205f20905b81548152906001019060200180831161098157829003601f168201915b50505050508152505081526020019060010190610884565b50505050905090565b6040518060a001604052805f81526020015f73ffffffffffffffffffffffffffffffffffffffff1681526020015f81526020015f8152602001606081525090565b5f604051905090565b5f5ffd5b5f5ffd5b5f73ffffffffffffffffffffffffffffffffffffffff82169050919050565b5f610a3a82610a11565b9050919050565b610a4a81610a30565b8114610a54575f5ffd5b50565b5f81359050610a6581610a41565b92915050565b5f60208284031215610a8057610a7f610a09565b5b5f610a8d84828501610a57565b91505092915050565b5f81519050919050565b5f82825260208201905092915050565b5f819050602082019050919050565b5f819050919050565b610ad181610abf565b82525050565b610ae081610a30565b82525050565b5f81519050919050565b5f82825260208201905092915050565b8281835e5f83830152505050565b5f601f19601f8301169050919050565b5f610b2882610ae6565b610b328185610af0565b9350610b42818560208601610b00565b610b4b81610b0e565b840191505092915050565b5f60a083015f830151610b6b5f860182610ac8565b506020830151610b7e6020860182610ad7565b506040830151610b916040860182610ac8565b506060830151610ba46060860182610ac8565b5060808301518482036080860152610bbc8282610b1e565b9150508091505092915050565b5f610bd48383610b56565b905092915050565b5f602082019050919050565b5f610bf282610a96565b610bfc8185610aa0565b935083602082028501610c0e85610ab0565b805f5b85811015610c495784840389528151610c2a8582610bc9565b9450610c3583610bdc565b925060208a01995050600181019050610c11565b50829750879550505050505092915050565b5f6020820190508181035f830152610c738184610be8565b905092915050565b5f61ffff82169050919050565b610c9181610c7b565b82525050565b5f602082019050610caa5f830184610c88565b92915050565b5f60a083015f830151610cc55f860182610ac8565b506020830151610cd86020860182610ad7565b506040830151610ceb6040860182610ac8565b506060830151610cfe6060860182610ac8565b5060808301518482036080860152610d168282610b1e565b9150508091505092915050565b5f6020820190508181035f830152610d3b8184610cb0565b905092915050565b610d4c81610abf565b8114610d56575f5ffd5b50565b5f81359050610d6781610d43565b92915050565b5f5f60408385031215610d8357610d82610a09565b5b5f610d9085828601610a57565b9250506020610da185828601610d59565b9150509250929050565b5f5ffd5b5f5ffd5b7f4e487b71000000000000000000000000000000000000000000000000000000005f52604160045260245ffd5b610de982610b0e565b810181811067ffffffffffffffff82111715610e0857610e07610db3565b5b80604052505050565b5f610e1a610a00565b9050610e268282610de0565b919050565b5f67ffffffffffffffff821115610e4557610e44610db3565b5b610e4e82610b0e565b9050602081019050919050565b828183375f83830152505050565b5f610e7b610e7684610e2b565b610e11565b905082815260208101848484011115610e9757610e96610daf565b5b610ea2848285610e5b565b509392505050565b5f82601f830112610ebe57610ebd610dab565b5b8135610ece848260208601610e69565b91505092915050565b5f60208284031215610eec57610eeb610a09565b5b5f82013567ffffffffffffffff811115610f0957610f08610a0d565b5b610f1584828501610eaa565b91505092915050565b610f2781610a30565b82525050565b5f602082019050610f405f830184610f1e565b92915050565b610f4f81610c7b565b8114610f59575f5ffd5b50565b5f81359050610f6a81610f46565b92915050565b5f60208284031215610f8557610f84610a09565b5b5f610f9284828501610f5c565b91505092915050565b7f4e487b71000000000000000000000000000000000000000000000000000000005f52602260045260245ffd5b5f6002820490506001821680610fdf57607f821691505b602082108103610ff257610ff1610f9b565b5b50919050565b7f4e487b71000000000000000000000000000000000000000000000000000000005f52603260045260245ffd5b7f4e487b71000000000000000000000000000000000000000000000000000000005f52601160045260245ffd5b5f61105c82610abf565b91507fffffffffffffffffffffffffffffffffffffffffffffffffffffffffffffffff820361108e5761108d611025565b5b600182019050919050565b5f82825260208201905092915050565b7f746865207477656574206973206c6f6e670000000000000000000000000000005f82015250565b5f6110dd601183611099565b91506110e8826110a9565b602082019050919050565b5f6020820190508181035f83015261110a816110d1565b9050919050565b5f819050815f5260205f209050919050565b5f6020601f8301049050919050565b5f82821b905092915050565b5f6008830261116d7fffffffffffffffffffffffffffffffffffffffffffffffffffffffffffffffff82611132565b6111778683611132565b95508019841693508086168417925050509392505050565b5f819050919050565b5f6111b26111ad6111a884610abf565b61118f565b610abf565b9050919050565b5f819050919050565b6111cb83611198565b6111df6111d7826111b9565b84845461113e565b825550505050565b5f5f905090565b6111f66111e7565b6112018184846111c2565b505050565b5b81811015611224576112195f826111ee565b600181019050611207565b5050565b601f8211156112695761123a81611111565b61124384611123565b81016020851015611252578190505b61126661125e85611123565b830182611206565b50505b505050565b5f82821c905092915050565b5f6112895f198460080261126e565b1980831691505092915050565b5f6112a1838361127a565b9150826002028217905092915050565b6112ba82610ae6565b67ffffffffffffffff8111156112d3576112d2610db3565b5b6112dd8254610fc8565b6112e8828285611228565b5f60209050601f831160018114611319575f8415611307578287015190505b6113118582611296565b865550611378565b601f19841661132786611111565b5f5b8281101561134e57848901518255600182019150602085019450602081019050611329565b8683101561136b5784890151611367601f89168261127a565b8355505b6001600288020188555050505b505050505050565b7f796f7520617265206e6f7420746865206f776e657200000000000000000000005f82015250565b5f6113b4601583611099565b91506113bf82611380565b602082019050919050565b5f6020820190508181035f8301526113e1816113a8565b905091905056fea2646970667358221220b3b6fa473f72964f702c4962696e0352b436ed9e2e466cab742a1ff1c677882964736f6c634300081c0033",
					"opcodes": "PUSH1 0x80 PUSH1 0x40 MSTORE PUSH2 0x118 PUSH0 PUSH1 0x14 PUSH2 0x100 EXP DUP2 SLOAD DUP2 PUSH2 0xFFFF MUL NOT AND SWAP1 DUP4 PUSH2 0xFFFF AND MUL OR SWAP1 SSTORE POP CALLVALUE DUP1 ISZERO PUSH1 0x2C JUMPI PUSH0 PUSH0 REVERT JUMPDEST POP CALLER PUSH0 PUSH0 PUSH2 0x100 EXP DUP2 SLOAD DUP2 PUSH20 0xFFFFFFFFFFFFFFFFFFFFFFFFFFFFFFFFFFFFFFFF MUL NOT AND SWAP1 DUP4 PUSH20 0xFFFFFFFFFFFFFFFFFFFFFFFFFFFFFFFFFFFFFFFF AND MUL OR SWAP1 SSTORE POP PUSH2 0x141E DUP1 PUSH2 0x79 PUSH0 CODECOPY PUSH0 RETURN INVALID PUSH1 0x80 PUSH1 0x40 MSTORE CALLVALUE DUP1 ISZERO PUSH2 0xF JUMPI PUSH0 PUSH0 REVERT JUMPDEST POP PUSH1 0x4 CALLDATASIZE LT PUSH2 0x86 JUMPI PUSH0 CALLDATALOAD PUSH1 0xE0 SHR DUP1 PUSH4 0x7C9CD2BC GT PUSH2 0x59 JUMPI DUP1 PUSH4 0x7C9CD2BC EQ PUSH2 0x124 JUMPI DUP1 PUSH4 0x8DA5CB5B EQ PUSH2 0x140 JUMPI DUP1 PUSH4 0x97213D07 EQ PUSH2 0x15E JUMPI DUP1 PUSH4 0xAEFEDBC2 EQ PUSH2 0x17A JUMPI PUSH2 0x86 JUMP JUMPDEST DUP1 PUSH4 0x12E7EE1C EQ PUSH2 0x8A JUMPI DUP1 PUSH4 0x13CE9358 EQ PUSH2 0xBA JUMPI DUP1 PUSH4 0x1D6B664E EQ PUSH2 0xD8 JUMPI DUP1 PUSH4 0x63378216 EQ PUSH2 0x108 JUMPI JUMPDEST PUSH0 PUSH0 REVERT JUMPDEST PUSH2 0xA4 PUSH1 0x4 DUP1 CALLDATASIZE SUB DUP2 ADD SWAP1 PUSH2 0x9F SWAP2 SWAP1 PUSH2 0xA6B JUMP JUMPDEST PUSH2 0x198 JUMP JUMPDEST PUSH1 0x40 MLOAD PUSH2 0xB1 SWAP2 SWAP1 PUSH2 0xC5B JUMP JUMPDEST PUSH1 0x40 MLOAD DUP1 SWAP2 SUB SWAP1 RETURN JUMPDEST PUSH2 0xC2 PUSH2 0x333 JUMP JUMPDEST PUSH1 0x40 MLOAD PUSH2 0xCF SWAP2 SWAP1 PUSH2 0xC97 JUMP JUMPDEST PUSH1 0x40 MLOAD DUP1 SWAP2 SUB SWAP1 RETURN JUMPDEST PUSH2 0xF2 PUSH1 0x4 DUP1 CALLDATASIZE SUB DUP2 ADD SWAP1 PUSH2 0xED SWAP2 SWAP1 PUSH2 0xA6B JUMP JUMPDEST PUSH2 0x346 JUMP JUMPDEST PUSH1 0x40 MLOAD PUSH2 0xFF SWAP2 SWAP1 PUSH2 0xD23 JUMP JUMPDEST PUSH1 0x40 MLOAD DUP1 SWAP2 SUB SWAP1 RETURN JUMPDEST PUSH2 0x122 PUSH1 0x4 DUP1 CALLDATASIZE SUB DUP2 ADD SWAP1 PUSH2 0x11D SWAP2 SWAP1 PUSH2 0xD6D JUMP JUMPDEST PUSH2 0x4BD JUMP JUMPDEST STOP JUMPDEST PUSH2 0x13E PUSH1 0x4 DUP1 CALLDATASIZE SUB DUP2 ADD SWAP1 PUSH2 0x139 SWAP2 SWAP1 PUSH2 0xED7 JUMP JUMPDEST PUSH2 0x59C JUMP JUMPDEST STOP JUMPDEST PUSH2 0x148 PUSH2 0x755 JUMP JUMPDEST PUSH1 0x40 MLOAD PUSH2 0x155 SWAP2 SWAP1 PUSH2 0xF2D JUMP JUMPDEST PUSH1 0x40 MLOAD DUP1 SWAP2 SUB SWAP1 RETURN JUMPDEST PUSH2 0x178 PUSH1 0x4 DUP1 CALLDATASIZE SUB DUP2 ADD SWAP1 PUSH2 0x173 SWAP2 SWAP1 PUSH2 0xF70 JUMP JUMPDEST PUSH2 0x779 JUMP JUMPDEST STOP JUMPDEST PUSH2 0x182 PUSH2 0x826 JUMP JUMPDEST PUSH1 0x40 MLOAD PUSH2 0x18F SWAP2 SWAP1 PUSH2 0xC5B JUMP JUMPDEST PUSH1 0x40 MLOAD DUP1 SWAP2 SUB SWAP1 RETURN JUMPDEST PUSH1 0x60 PUSH1 0x1 PUSH0 DUP4 PUSH20 0xFFFFFFFFFFFFFFFFFFFFFFFFFFFFFFFFFFFFFFFF AND PUSH20 0xFFFFFFFFFFFFFFFFFFFFFFFFFFFFFFFFFFFFFFFF AND DUP2 MSTORE PUSH1 0x20 ADD SWAP1 DUP2 MSTORE PUSH1 0x20 ADD PUSH0 KECCAK256 DUP1 SLOAD DUP1 PUSH1 0x20 MUL PUSH1 0x20 ADD PUSH1 0x40 MLOAD SWAP1 DUP2 ADD PUSH1 0x40 MSTORE DUP1 SWAP3 SWAP2 SWAP1 DUP2 DUP2 MSTORE PUSH1 0x20 ADD PUSH0 SWAP1 JUMPDEST DUP3 DUP3 LT ISZERO PUSH2 0x328 JUMPI DUP4 DUP3 SWAP1 PUSH0 MSTORE PUSH1 0x20 PUSH0 KECCAK256 SWAP1 PUSH1 0x5 MUL ADD PUSH1 0x40 MLOAD DUP1 PUSH1 0xA0 ADD PUSH1 0x40 MSTORE SWAP1 DUP2 PUSH0 DUP3 ADD SLOAD DUP2 MSTORE PUSH1 0x20 ADD PUSH1 0x1 DUP3 ADD PUSH0 SWAP1 SLOAD SWAP1 PUSH2 0x100 EXP SWAP1 DIV PUSH20 0xFFFFFFFFFFFFFFFFFFFFFFFFFFFFFFFFFFFFFFFF AND PUSH20 0xFFFFFFFFFFFFFFFFFFFFFFFFFFFFFFFFFFFFFFFF AND PUSH20 0xFFFFFFFFFFFFFFFFFFFFFFFFFFFFFFFFFFFFFFFF AND DUP2 MSTORE PUSH1 0x20 ADD PUSH1 0x2 DUP3 ADD SLOAD DUP2 MSTORE PUSH1 0x20 ADD PUSH1 0x3 DUP3 ADD SLOAD DUP2 MSTORE PUSH1 0x20 ADD PUSH1 0x4 DUP3 ADD DUP1 SLOAD PUSH2 0x299 SWAP1 PUSH2 0xFC8 JUMP JUMPDEST DUP1 PUSH1 0x1F ADD PUSH1 0x20 DUP1 SWAP2 DIV MUL PUSH1 0x20 ADD PUSH1 0x40 MLOAD SWAP1 DUP2 ADD PUSH1 0x40 MSTORE DUP1 SWAP3 SWAP2 SWAP1 DUP2 DUP2 MSTORE PUSH1 0x20 ADD DUP3 DUP1 SLOAD PUSH2 0x2C5 SWAP1 PUSH2 0xFC8 JUMP JUMPDEST DUP1 ISZERO PUSH2 0x310 JUMPI DUP1 PUSH1 0x1F LT PUSH2 0x2E7 JUMPI PUSH2 0x100 DUP1 DUP4 SLOAD DIV MUL DUP4 MSTORE SWAP2 PUSH1 0x20 ADD SWAP2 PUSH2 0x310 JUMP JUMPDEST DUP3 ADD SWAP2 SWAP1 PUSH0 MSTORE PUSH1 0x20 PUSH0 KECCAK256 SWAP1 JUMPDEST DUP2 SLOAD DUP2 MSTORE SWAP1 PUSH1 0x1 ADD SWAP1 PUSH1 0x20 ADD DUP1 DUP4 GT PUSH2 0x2F3 JUMPI DUP3 SWAP1 SUB PUSH1 0x1F AND DUP3 ADD SWAP2 JUMPDEST POP POP POP POP POP DUP2 MSTORE POP POP DUP2 MSTORE PUSH1 0x20 ADD SWAP1 PUSH1 0x1 ADD SWAP1 PUSH2 0x1F6 JUMP JUMPDEST POP POP POP POP SWAP1 POP SWAP2 SWAP1 POP JUMP JUMPDEST PUSH0 PUSH1 0x14 SWAP1 SLOAD SWAP1 PUSH2 0x100 EXP SWAP1 DIV PUSH2 0xFFFF AND DUP2 JUMP JUMPDEST PUSH2 0x34E PUSH2 0x9BF JUMP JUMPDEST PUSH1 0x1 PUSH0 DUP4 PUSH20 0xFFFFFFFFFFFFFFFFFFFFFFFFFFFFFFFFFFFFFFFF AND PUSH20 0xFFFFFFFFFFFFFFFFFFFFFFFFFFFFFFFFFFFFFFFF AND DUP2 MSTORE PUSH1 0x20 ADD SWAP1 DUP2 MSTORE PUSH1 0x20 ADD PUSH0 KECCAK256 PUSH0 DUP2 SLOAD DUP2 LT PUSH2 0x39D JUMPI PUSH2 0x39C PUSH2 0xFF8 JUMP JUMPDEST JUMPDEST SWAP1 PUSH0 MSTORE PUSH1 0x20 PUSH0 KECCAK256 SWAP1 PUSH1 0x5 MUL ADD PUSH1 0x40 MLOAD DUP1 PUSH1 0xA0 ADD PUSH1 0x40 MSTORE SWAP1 DUP2 PUSH0 DUP3 ADD SLOAD DUP2 MSTORE PUSH1 0x20 ADD PUSH1 0x1 DUP3 ADD PUSH0 SWAP1 SLOAD SWAP1 PUSH2 0x100 EXP SWAP1 DIV PUSH20 0xFFFFFFFFFFFFFFFFFFFFFFFFFFFFFFFFFFFFFFFF AND PUSH20 0xFFFFFFFFFFFFFFFFFFFFFFFFFFFFFFFFFFFFFFFF AND PUSH20 0xFFFFFFFFFFFFFFFFFFFFFFFFFFFFFFFFFFFFFFFF AND DUP2 MSTORE PUSH1 0x20 ADD PUSH1 0x2 DUP3 ADD SLOAD DUP2 MSTORE PUSH1 0x20 ADD PUSH1 0x3 DUP3 ADD SLOAD DUP2 MSTORE PUSH1 0x20 ADD PUSH1 0x4 DUP3 ADD DUP1 SLOAD PUSH2 0x436 SWAP1 PUSH2 0xFC8 JUMP JUMPDEST DUP1 PUSH1 0x1F ADD PUSH1 0x20 DUP1 SWAP2 DIV MUL PUSH1 0x20 ADD PUSH1 0x40 MLOAD SWAP1 DUP2 ADD PUSH1 0x40 MSTORE DUP1 SWAP3 SWAP2 SWAP1 DUP2 DUP2 MSTORE PUSH1 0x20 ADD DUP3 DUP1 SLOAD PUSH2 0x462 SWAP1 PUSH2 0xFC8 JUMP JUMPDEST DUP1 ISZERO PUSH2 0x4AD JUMPI DUP1 PUSH1 0x1F LT PUSH2 0x484 JUMPI PUSH2 0x100 DUP1 DUP4 SLOAD DIV MUL DUP4 MSTORE SWAP2 PUSH1 0x20 ADD SWAP2 PUSH2 0x4AD JUMP JUMPDEST DUP3 ADD SWAP2 SWAP1 PUSH0 MSTORE PUSH1 0x20 PUSH0 KECCAK256 SWAP1 JUMPDEST DUP2 SLOAD DUP2 MSTORE SWAP1 PUSH1 0x1 ADD SWAP1 PUSH1 0x20 ADD DUP1 DUP4 GT PUSH2 0x490 JUMPI DUP3 SWAP1 SUB PUSH1 0x1F AND DUP3 ADD SWAP2 JUMPDEST POP POP POP POP POP DUP2 MSTORE POP POP SWAP1 POP SWAP2 SWAP1 POP JUMP JUMPDEST DUP1 PUSH1 0x1 PUSH0 DUP5 PUSH20 0xFFFFFFFFFFFFFFFFFFFFFFFFFFFFFFFFFFFFFFFF AND PUSH20 0xFFFFFFFFFFFFFFFFFFFFFFFFFFFFFFFFFFFFFFFF AND DUP2 MSTORE PUSH1 0x20 ADD SWAP1 DUP2 MSTORE PUSH1 0x20 ADD PUSH0 KECCAK256 DUP3 DUP2 SLOAD DUP2 LT PUSH2 0x50D JUMPI PUSH2 0x50C PUSH2 0xFF8 JUMP JUMPDEST JUMPDEST SWAP1 PUSH0 MSTORE PUSH1 0x20 PUSH0 KECCAK256 SWAP1 PUSH1 0x5 MUL ADD PUSH0 ADD SLOAD EQ PUSH2 0x525 JUMPI PUSH0 PUSH0 REVERT JUMPDEST PUSH1 0x1 PUSH0 DUP4 PUSH20 0xFFFFFFFFFFFFFFFFFFFFFFFFFFFFFFFFFFFFFFFF AND PUSH20 0xFFFFFFFFFFFFFFFFFFFFFFFFFFFFFFFFFFFFFFFF AND DUP2 MSTORE PUSH1 0x20 ADD SWAP1 DUP2 MSTORE PUSH1 0x20 ADD PUSH0 KECCAK256 DUP2 DUP2 SLOAD DUP2 LT PUSH2 0x574 JUMPI PUSH2 0x573 PUSH2 0xFF8 JUMP JUMPDEST JUMPDEST SWAP1 PUSH0 MSTORE PUSH1 0x20 PUSH0 KECCAK256 SWAP1 PUSH1 0x5 MUL ADD PUSH1 0x2 ADD PUSH0 DUP2 SLOAD DUP1 SWAP3 SWAP2 SWAP1 PUSH2 0x593 SWAP1 PUSH2 0x1052 JUMP JUMPDEST SWAP2 SWAP1 POP SSTORE POP POP POP JUMP JUMPDEST PUSH0 PUSH1 0x14 SWAP1 SLOAD SWAP1 PUSH2 0x100 EXP SWAP1 DIV PUSH2 0xFFFF AND PUSH2 0xFFFF AND DUP2 MLOAD GT ISZERO PUSH2 0x5F3 JUMPI PUSH1 0x40 MLOAD PUSH32 0x8C379A000000000000000000000000000000000000000000000000000000000 DUP2 MSTORE PUSH1 0x4 ADD PUSH2 0x5EA SWAP1 PUSH2 0x10F3 JUMP JUMPDEST PUSH1 0x40 MLOAD DUP1 SWAP2 SUB SWAP1 REVERT JUMPDEST PUSH0 PUSH1 0x40 MLOAD DUP1 PUSH1 0xA0 ADD PUSH1 0x40 MSTORE DUP1 PUSH1 0x1 PUSH0 CALLER PUSH20 0xFFFFFFFFFFFFFFFFFFFFFFFFFFFFFFFFFFFFFFFF AND PUSH20 0xFFFFFFFFFFFFFFFFFFFFFFFFFFFFFFFFFFFFFFFF AND DUP2 MSTORE PUSH1 0x20 ADD SWAP1 DUP2 MSTORE PUSH1 0x20 ADD PUSH0 KECCAK256 DUP1 SLOAD SWAP1 POP DUP2 MSTORE PUSH1 0x20 ADD CALLER PUSH20 0xFFFFFFFFFFFFFFFFFFFFFFFFFFFFFFFFFFFFFFFF AND DUP2 MSTORE PUSH1 0x20 ADD PUSH0 DUP2 MSTORE PUSH1 0x20 ADD TIMESTAMP DUP2 MSTORE PUSH1 0x20 ADD DUP4 DUP2 MSTORE POP SWAP1 POP PUSH1 0x1 PUSH0 CALLER PUSH20 0xFFFFFFFFFFFFFFFFFFFFFFFFFFFFFFFFFFFFFFFF AND PUSH20 0xFFFFFFFFFFFFFFFFFFFFFFFFFFFFFFFFFFFFFFFF AND DUP2 MSTORE PUSH1 0x20 ADD SWAP1 DUP2 MSTORE PUSH1 0x20 ADD PUSH0 KECCAK256 DUP2 SWAP1 DUP1 PUSH1 0x1 DUP2 SLOAD ADD DUP1 DUP3 SSTORE DUP1 SWAP2 POP POP PUSH1 0x1 SWAP1 SUB SWAP1 PUSH0 MSTORE PUSH1 0x20 PUSH0 KECCAK256 SWAP1 PUSH1 0x5 MUL ADD PUSH0 SWAP1 SWAP2 SWAP1 SWAP2 SWAP1 SWAP2 POP PUSH0 DUP3 ADD MLOAD DUP2 PUSH0 ADD SSTORE PUSH1 0x20 DUP3 ADD MLOAD DUP2 PUSH1 0x1 ADD PUSH0 PUSH2 0x100 EXP DUP2 SLOAD DUP2 PUSH20 0xFFFFFFFFFFFFFFFFFFFFFFFFFFFFFFFFFFFFFFFF MUL NOT AND SWAP1 DUP4 PUSH20 0xFFFFFFFFFFFFFFFFFFFFFFFFFFFFFFFFFFFFFFFF AND MUL OR SWAP1 SSTORE POP PUSH1 0x40 DUP3 ADD MLOAD DUP2 PUSH1 0x2 ADD SSTORE PUSH1 0x60 DUP3 ADD MLOAD DUP2 PUSH1 0x3 ADD SSTORE PUSH1 0x80 DUP3 ADD MLOAD DUP2 PUSH1 0x4 ADD SWAP1 DUP2 PUSH2 0x74E SWAP2 SWAP1 PUSH2 0x12B1 JUMP JUMPDEST POP POP POP POP POP JUMP JUMPDEST PUSH0 PUSH0 SWAP1 SLOAD SWAP1 PUSH2 0x100 EXP SWAP1 DIV PUSH20 0xFFFFFFFFFFFFFFFFFFFFFFFFFFFFFFFFFFFFFFFF AND DUP2 JUMP JUMPDEST CALLER PUSH20 0xFFFFFFFFFFFFFFFFFFFFFFFFFFFFFFFFFFFFFFFF AND PUSH0 PUSH0 SWAP1 SLOAD SWAP1 PUSH2 0x100 EXP SWAP1 DIV PUSH20 0xFFFFFFFFFFFFFFFFFFFFFFFFFFFFFFFFFFFFFFFF AND PUSH20 0xFFFFFFFFFFFFFFFFFFFFFFFFFFFFFFFFFFFFFFFF AND EQ PUSH2 0x807 JUMPI PUSH1 0x40 MLOAD PUSH32 0x8C379A000000000000000000000000000000000000000000000000000000000 DUP2 MSTORE PUSH1 0x4 ADD PUSH2 0x7FE SWAP1 PUSH2 0x13CA JUMP JUMPDEST PUSH1 0x40 MLOAD DUP1 SWAP2 SUB SWAP1 REVERT JUMPDEST DUP1 PUSH0 PUSH1 0x14 PUSH2 0x100 EXP DUP2 SLOAD DUP2 PUSH2 0xFFFF MUL NOT AND SWAP1 DUP4 PUSH2 0xFFFF AND MUL OR SWAP1 SSTORE POP POP JUMP JUMPDEST PUSH1 0x60 PUSH1 0x1 PUSH0 CALLER PUSH20 0xFFFFFFFFFFFFFFFFFFFFFFFFFFFFFFFFFFFFFFFF AND PUSH20 0xFFFFFFFFFFFFFFFFFFFFFFFFFFFFFFFFFFFFFFFF AND DUP2 MSTORE PUSH1 0x20 ADD SWAP1 DUP2 MSTORE PUSH1 0x20 ADD PUSH0 KECCAK256 DUP1 SLOAD DUP1 PUSH1 0x20 MUL PUSH1 0x20 ADD PUSH1 0x40 MLOAD SWAP1 DUP2 ADD PUSH1 0x40 MSTORE DUP1 SWAP3 SWAP2 SWAP1 DUP2 DUP2 MSTORE PUSH1 0x20 ADD PUSH0 SWAP1 JUMPDEST DUP3 DUP3 LT ISZERO PUSH2 0x9B6 JUMPI DUP4 DUP3 SWAP1 PUSH0 MSTORE PUSH1 0x20 PUSH0 KECCAK256 SWAP1 PUSH1 0x5 MUL ADD PUSH1 0x40 MLOAD DUP1 PUSH1 0xA0 ADD PUSH1 0x40 MSTORE SWAP1 DUP2 PUSH0 DUP3 ADD SLOAD DUP2 MSTORE PUSH1 0x20 ADD PUSH1 0x1 DUP3 ADD PUSH0 SWAP1 SLOAD SWAP1 PUSH2 0x100 EXP SWAP1 DIV PUSH20 0xFFFFFFFFFFFFFFFFFFFFFFFFFFFFFFFFFFFFFFFF AND PUSH20 0xFFFFFFFFFFFFFFFFFFFFFFFFFFFFFFFFFFFFFFFF AND PUSH20 0xFFFFFFFFFFFFFFFFFFFFFFFFFFFFFFFFFFFFFFFF AND DUP2 MSTORE PUSH1 0x20 ADD PUSH1 0x2 DUP3 ADD SLOAD DUP2 MSTORE PUSH1 0x20 ADD PUSH1 0x3 DUP3 ADD SLOAD DUP2 MSTORE PUSH1 0x20 ADD PUSH1 0x4 DUP3 ADD DUP1 SLOAD PUSH2 0x927 SWAP1 PUSH2 0xFC8 JUMP JUMPDEST DUP1 PUSH1 0x1F ADD PUSH1 0x20 DUP1 SWAP2 DIV MUL PUSH1 0x20 ADD PUSH1 0x40 MLOAD SWAP1 DUP2 ADD PUSH1 0x40 MSTORE DUP1 SWAP3 SWAP2 SWAP1 DUP2 DUP2 MSTORE PUSH1 0x20 ADD DUP3 DUP1 SLOAD PUSH2 0x953 SWAP1 PUSH2 0xFC8 JUMP JUMPDEST DUP1 ISZERO PUSH2 0x99E JUMPI DUP1 PUSH1 0x1F LT PUSH2 0x975 JUMPI PUSH2 0x100 DUP1 DUP4 SLOAD DIV MUL DUP4 MSTORE SWAP2 PUSH1 0x20 ADD SWAP2 PUSH2 0x99E JUMP JUMPDEST DUP3 ADD SWAP2 SWAP1 PUSH0 MSTORE PUSH1 0x20 PUSH0 KECCAK256 SWAP1 JUMPDEST DUP2 SLOAD DUP2 MSTORE SWAP1 PUSH1 0x1 ADD SWAP1 PUSH1 0x20 ADD DUP1 DUP4 GT PUSH2 0x981 JUMPI DUP3 SWAP1 SUB PUSH1 0x1F AND DUP3 ADD SWAP2 JUMPDEST POP POP POP POP POP DUP2 MSTORE POP POP DUP2 MSTORE PUSH1 0x20 ADD SWAP1 PUSH1 0x1 ADD SWAP1 PUSH2 0x884 JUMP JUMPDEST POP POP POP POP SWAP1 POP SWAP1 JUMP JUMPDEST PUSH1 0x40 MLOAD DUP1 PUSH1 0xA0 ADD PUSH1 0x40 MSTORE DUP1 PUSH0 DUP2 MSTORE PUSH1 0x20 ADD PUSH0 PUSH20 0xFFFFFFFFFFFFFFFFFFFFFFFFFFFFFFFFFFFFFFFF AND DUP2 MSTORE PUSH1 0x20 ADD PUSH0 DUP2 MSTORE PUSH1 0x20 ADD PUSH0 DUP2 MSTORE PUSH1 0x20 ADD PUSH1 0x60 DUP2 MSTORE POP SWAP1 JUMP JUMPDEST PUSH0 PUSH1 0x40 MLOAD SWAP1 POP SWAP1 JUMP JUMPDEST PUSH0 PUSH0 REVERT JUMPDEST PUSH0 PUSH0 REVERT JUMPDEST PUSH0 PUSH20 0xFFFFFFFFFFFFFFFFFFFFFFFFFFFFFFFFFFFFFFFF DUP3 AND SWAP1 POP SWAP2 SWAP1 POP JUMP JUMPDEST PUSH0 PUSH2 0xA3A DUP3 PUSH2 0xA11 JUMP JUMPDEST SWAP1 POP SWAP2 SWAP1 POP JUMP JUMPDEST PUSH2 0xA4A DUP2 PUSH2 0xA30 JUMP JUMPDEST DUP2 EQ PUSH2 0xA54 JUMPI PUSH0 PUSH0 REVERT JUMPDEST POP JUMP JUMPDEST PUSH0 DUP2 CALLDATALOAD SWAP1 POP PUSH2 0xA65 DUP2 PUSH2 0xA41 JUMP JUMPDEST SWAP3 SWAP2 POP POP JUMP JUMPDEST PUSH0 PUSH1 0x20 DUP3 DUP5 SUB SLT ISZERO PUSH2 0xA80 JUMPI PUSH2 0xA7F PUSH2 0xA09 JUMP JUMPDEST JUMPDEST PUSH0 PUSH2 0xA8D DUP5 DUP3 DUP6 ADD PUSH2 0xA57 JUMP JUMPDEST SWAP2 POP POP SWAP3 SWAP2 POP POP JUMP JUMPDEST PUSH0 DUP2 MLOAD SWAP1 POP SWAP2 SWAP1 POP JUMP JUMPDEST PUSH0 DUP3 DUP3 MSTORE PUSH1 0x20 DUP3 ADD SWAP1 POP SWAP3 SWAP2 POP POP JUMP JUMPDEST PUSH0 DUP2 SWAP1 POP PUSH1 0x20 DUP3 ADD SWAP1 POP SWAP2 SWAP1 POP JUMP JUMPDEST PUSH0 DUP2 SWAP1 POP SWAP2 SWAP1 POP JUMP JUMPDEST PUSH2 0xAD1 DUP2 PUSH2 0xABF JUMP JUMPDEST DUP3 MSTORE POP POP JUMP JUMPDEST PUSH2 0xAE0 DUP2 PUSH2 0xA30 JUMP JUMPDEST DUP3 MSTORE POP POP JUMP JUMPDEST PUSH0 DUP2 MLOAD SWAP1 POP SWAP2 SWAP1 POP JUMP JUMPDEST PUSH0 DUP3 DUP3 MSTORE PUSH1 0x20 DUP3 ADD SWAP1 POP SWAP3 SWAP2 POP POP JUMP JUMPDEST DUP3 DUP2 DUP4 MCOPY PUSH0 DUP4 DUP4 ADD MSTORE POP POP POP JUMP JUMPDEST PUSH0 PUSH1 0x1F NOT PUSH1 0x1F DUP4 ADD AND SWAP1 POP SWAP2 SWAP1 POP JUMP JUMPDEST PUSH0 PUSH2 0xB28 DUP3 PUSH2 0xAE6 JUMP JUMPDEST PUSH2 0xB32 DUP2 DUP6 PUSH2 0xAF0 JUMP JUMPDEST SWAP4 POP PUSH2 0xB42 DUP2 DUP6 PUSH1 0x20 DUP7 ADD PUSH2 0xB00 JUMP JUMPDEST PUSH2 0xB4B DUP2 PUSH2 0xB0E JUMP JUMPDEST DUP5 ADD SWAP2 POP POP SWAP3 SWAP2 POP POP JUMP JUMPDEST PUSH0 PUSH1 0xA0 DUP4 ADD PUSH0 DUP4 ADD MLOAD PUSH2 0xB6B PUSH0 DUP7 ADD DUP3 PUSH2 0xAC8 JUMP JUMPDEST POP PUSH1 0x20 DUP4 ADD MLOAD PUSH2 0xB7E PUSH1 0x20 DUP7 ADD DUP3 PUSH2 0xAD7 JUMP JUMPDEST POP PUSH1 0x40 DUP4 ADD MLOAD PUSH2 0xB91 PUSH1 0x40 DUP7 ADD DUP3 PUSH2 0xAC8 JUMP JUMPDEST POP PUSH1 0x60 DUP4 ADD MLOAD PUSH2 0xBA4 PUSH1 0x60 DUP7 ADD DUP3 PUSH2 0xAC8 JUMP JUMPDEST POP PUSH1 0x80 DUP4 ADD MLOAD DUP5 DUP3 SUB PUSH1 0x80 DUP7 ADD MSTORE PUSH2 0xBBC DUP3 DUP3 PUSH2 0xB1E JUMP JUMPDEST SWAP2 POP POP DUP1 SWAP2 POP POP SWAP3 SWAP2 POP POP JUMP JUMPDEST PUSH0 PUSH2 0xBD4 DUP4 DUP4 PUSH2 0xB56 JUMP JUMPDEST SWAP1 POP SWAP3 SWAP2 POP POP JUMP JUMPDEST PUSH0 PUSH1 0x20 DUP3 ADD SWAP1 POP SWAP2 SWAP1 POP JUMP JUMPDEST PUSH0 PUSH2 0xBF2 DUP3 PUSH2 0xA96 JUMP JUMPDEST PUSH2 0xBFC DUP2 DUP6 PUSH2 0xAA0 JUMP JUMPDEST SWAP4 POP DUP4 PUSH1 0x20 DUP3 MUL DUP6 ADD PUSH2 0xC0E DUP6 PUSH2 0xAB0 JUMP JUMPDEST DUP1 PUSH0 JUMPDEST DUP6 DUP2 LT ISZERO PUSH2 0xC49 JUMPI DUP5 DUP5 SUB DUP10 MSTORE DUP2 MLOAD PUSH2 0xC2A DUP6 DUP3 PUSH2 0xBC9 JUMP JUMPDEST SWAP5 POP PUSH2 0xC35 DUP4 PUSH2 0xBDC JUMP JUMPDEST SWAP3 POP PUSH1 0x20 DUP11 ADD SWAP10 POP POP PUSH1 0x1 DUP2 ADD SWAP1 POP PUSH2 0xC11 JUMP JUMPDEST POP DUP3 SWAP8 POP DUP8 SWAP6 POP POP POP POP POP POP SWAP3 SWAP2 POP POP JUMP JUMPDEST PUSH0 PUSH1 0x20 DUP3 ADD SWAP1 POP DUP2 DUP2 SUB PUSH0 DUP4 ADD MSTORE PUSH2 0xC73 DUP2 DUP5 PUSH2 0xBE8 JUMP JUMPDEST SWAP1 POP SWAP3 SWAP2 POP POP JUMP JUMPDEST PUSH0 PUSH2 0xFFFF DUP3 AND SWAP1 POP SWAP2 SWAP1 POP JUMP JUMPDEST PUSH2 0xC91 DUP2 PUSH2 0xC7B JUMP JUMPDEST DUP3 MSTORE POP POP JUMP JUMPDEST PUSH0 PUSH1 0x20 DUP3 ADD SWAP1 POP PUSH2 0xCAA PUSH0 DUP4 ADD DUP5 PUSH2 0xC88 JUMP JUMPDEST SWAP3 SWAP2 POP POP JUMP JUMPDEST PUSH0 PUSH1 0xA0 DUP4 ADD PUSH0 DUP4 ADD MLOAD PUSH2 0xCC5 PUSH0 DUP7 ADD DUP3 PUSH2 0xAC8 JUMP JUMPDEST POP PUSH1 0x20 DUP4 ADD MLOAD PUSH2 0xCD8 PUSH1 0x20 DUP7 ADD DUP3 PUSH2 0xAD7 JUMP JUMPDEST POP PUSH1 0x40 DUP4 ADD MLOAD PUSH2 0xCEB PUSH1 0x40 DUP7 ADD DUP3 PUSH2 0xAC8 JUMP JUMPDEST POP PUSH1 0x60 DUP4 ADD MLOAD PUSH2 0xCFE PUSH1 0x60 DUP7 ADD DUP3 PUSH2 0xAC8 JUMP JUMPDEST POP PUSH1 0x80 DUP4 ADD MLOAD DUP5 DUP3 SUB PUSH1 0x80 DUP7 ADD MSTORE PUSH2 0xD16 DUP3 DUP3 PUSH2 0xB1E JUMP JUMPDEST SWAP2 POP POP DUP1 SWAP2 POP POP SWAP3 SWAP2 POP POP JUMP JUMPDEST PUSH0 PUSH1 0x20 DUP3 ADD SWAP1 POP DUP2 DUP2 SUB PUSH0 DUP4 ADD MSTORE PUSH2 0xD3B DUP2 DUP5 PUSH2 0xCB0 JUMP JUMPDEST SWAP1 POP SWAP3 SWAP2 POP POP JUMP JUMPDEST PUSH2 0xD4C DUP2 PUSH2 0xABF JUMP JUMPDEST DUP2 EQ PUSH2 0xD56 JUMPI PUSH0 PUSH0 REVERT JUMPDEST POP JUMP JUMPDEST PUSH0 DUP2 CALLDATALOAD SWAP1 POP PUSH2 0xD67 DUP2 PUSH2 0xD43 JUMP JUMPDEST SWAP3 SWAP2 POP POP JUMP JUMPDEST PUSH0 PUSH0 PUSH1 0x40 DUP4 DUP6 SUB SLT ISZERO PUSH2 0xD83 JUMPI PUSH2 0xD82 PUSH2 0xA09 JUMP JUMPDEST JUMPDEST PUSH0 PUSH2 0xD90 DUP6 DUP3 DUP7 ADD PUSH2 0xA57 JUMP JUMPDEST SWAP3 POP POP PUSH1 0x20 PUSH2 0xDA1 DUP6 DUP3 DUP7 ADD PUSH2 0xD59 JUMP JUMPDEST SWAP2 POP POP SWAP3 POP SWAP3 SWAP1 POP JUMP JUMPDEST PUSH0 PUSH0 REVERT JUMPDEST PUSH0 PUSH0 REVERT JUMPDEST PUSH32 0x4E487B7100000000000000000000000000000000000000000000000000000000 PUSH0 MSTORE PUSH1 0x41 PUSH1 0x4 MSTORE PUSH1 0x24 PUSH0 REVERT JUMPDEST PUSH2 0xDE9 DUP3 PUSH2 0xB0E JUMP JUMPDEST DUP2 ADD DUP2 DUP2 LT PUSH8 0xFFFFFFFFFFFFFFFF DUP3 GT OR ISZERO PUSH2 0xE08 JUMPI PUSH2 0xE07 PUSH2 0xDB3 JUMP JUMPDEST JUMPDEST DUP1 PUSH1 0x40 MSTORE POP POP POP JUMP JUMPDEST PUSH0 PUSH2 0xE1A PUSH2 0xA00 JUMP JUMPDEST SWAP1 POP PUSH2 0xE26 DUP3 DUP3 PUSH2 0xDE0 JUMP JUMPDEST SWAP2 SWAP1 POP JUMP JUMPDEST PUSH0 PUSH8 0xFFFFFFFFFFFFFFFF DUP3 GT ISZERO PUSH2 0xE45 JUMPI PUSH2 0xE44 PUSH2 0xDB3 JUMP JUMPDEST JUMPDEST PUSH2 0xE4E DUP3 PUSH2 0xB0E JUMP JUMPDEST SWAP1 POP PUSH1 0x20 DUP2 ADD SWAP1 POP SWAP2 SWAP1 POP JUMP JUMPDEST DUP3 DUP2 DUP4 CALLDATACOPY PUSH0 DUP4 DUP4 ADD MSTORE POP POP POP JUMP JUMPDEST PUSH0 PUSH2 0xE7B PUSH2 0xE76 DUP5 PUSH2 0xE2B JUMP JUMPDEST PUSH2 0xE11 JUMP JUMPDEST SWAP1 POP DUP3 DUP2 MSTORE PUSH1 0x20 DUP2 ADD DUP5 DUP5 DUP5 ADD GT ISZERO PUSH2 0xE97 JUMPI PUSH2 0xE96 PUSH2 0xDAF JUMP JUMPDEST JUMPDEST PUSH2 0xEA2 DUP5 DUP3 DUP6 PUSH2 0xE5B JUMP JUMPDEST POP SWAP4 SWAP3 POP POP POP JUMP JUMPDEST PUSH0 DUP3 PUSH1 0x1F DUP4 ADD SLT PUSH2 0xEBE JUMPI PUSH2 0xEBD PUSH2 0xDAB JUMP JUMPDEST JUMPDEST DUP2 CALLDATALOAD PUSH2 0xECE DUP5 DUP3 PUSH1 0x20 DUP7 ADD PUSH2 0xE69 JUMP JUMPDEST SWAP2 POP POP SWAP3 SWAP2 POP POP JUMP JUMPDEST PUSH0 PUSH1 0x20 DUP3 DUP5 SUB SLT ISZERO PUSH2 0xEEC JUMPI PUSH2 0xEEB PUSH2 0xA09 JUMP JUMPDEST JUMPDEST PUSH0 DUP3 ADD CALLDATALOAD PUSH8 0xFFFFFFFFFFFFFFFF DUP2 GT ISZERO PUSH2 0xF09 JUMPI PUSH2 0xF08 PUSH2 0xA0D JUMP JUMPDEST JUMPDEST PUSH2 0xF15 DUP5 DUP3 DUP6 ADD PUSH2 0xEAA JUMP JUMPDEST SWAP2 POP POP SWAP3 SWAP2 POP POP JUMP JUMPDEST PUSH2 0xF27 DUP2 PUSH2 0xA30 JUMP JUMPDEST DUP3 MSTORE POP POP JUMP JUMPDEST PUSH0 PUSH1 0x20 DUP3 ADD SWAP1 POP PUSH2 0xF40 PUSH0 DUP4 ADD DUP5 PUSH2 0xF1E JUMP JUMPDEST SWAP3 SWAP2 POP POP JUMP JUMPDEST PUSH2 0xF4F DUP2 PUSH2 0xC7B JUMP JUMPDEST DUP2 EQ PUSH2 0xF59 JUMPI PUSH0 PUSH0 REVERT JUMPDEST POP JUMP JUMPDEST PUSH0 DUP2 CALLDATALOAD SWAP1 POP PUSH2 0xF6A DUP2 PUSH2 0xF46 JUMP JUMPDEST SWAP3 SWAP2 POP POP JUMP JUMPDEST PUSH0 PUSH1 0x20 DUP3 DUP5 SUB SLT ISZERO PUSH2 0xF85 JUMPI PUSH2 0xF84 PUSH2 0xA09 JUMP JUMPDEST JUMPDEST PUSH0 PUSH2 0xF92 DUP5 DUP3 DUP6 ADD PUSH2 0xF5C JUMP JUMPDEST SWAP2 POP POP SWAP3 SWAP2 POP POP JUMP JUMPDEST PUSH32 0x4E487B7100000000000000000000000000000000000000000000000000000000 PUSH0 MSTORE PUSH1 0x22 PUSH1 0x4 MSTORE PUSH1 0x24 PUSH0 REVERT JUMPDEST PUSH0 PUSH1 0x2 DUP3 DIV SWAP1 POP PUSH1 0x1 DUP3 AND DUP1 PUSH2 0xFDF JUMPI PUSH1 0x7F DUP3 AND SWAP2 POP JUMPDEST PUSH1 0x20 DUP3 LT DUP2 SUB PUSH2 0xFF2 JUMPI PUSH2 0xFF1 PUSH2 0xF9B JUMP JUMPDEST JUMPDEST POP SWAP2 SWAP1 POP JUMP JUMPDEST PUSH32 0x4E487B7100000000000000000000000000000000000000000000000000000000 PUSH0 MSTORE PUSH1 0x32 PUSH1 0x4 MSTORE PUSH1 0x24 PUSH0 REVERT JUMPDEST PUSH32 0x4E487B7100000000000000000000000000000000000000000000000000000000 PUSH0 MSTORE PUSH1 0x11 PUSH1 0x4 MSTORE PUSH1 0x24 PUSH0 REVERT JUMPDEST PUSH0 PUSH2 0x105C DUP3 PUSH2 0xABF JUMP JUMPDEST SWAP2 POP PUSH32 0xFFFFFFFFFFFFFFFFFFFFFFFFFFFFFFFFFFFFFFFFFFFFFFFFFFFFFFFFFFFFFFFF DUP3 SUB PUSH2 0x108E JUMPI PUSH2 0x108D PUSH2 0x1025 JUMP JUMPDEST JUMPDEST PUSH1 0x1 DUP3 ADD SWAP1 POP SWAP2 SWAP1 POP JUMP JUMPDEST PUSH0 DUP3 DUP3 MSTORE PUSH1 0x20 DUP3 ADD SWAP1 POP SWAP3 SWAP2 POP POP JUMP JUMPDEST PUSH32 0x746865207477656574206973206C6F6E67000000000000000000000000000000 PUSH0 DUP3 ADD MSTORE POP JUMP JUMPDEST PUSH0 PUSH2 0x10DD PUSH1 0x11 DUP4 PUSH2 0x1099 JUMP JUMPDEST SWAP2 POP PUSH2 0x10E8 DUP3 PUSH2 0x10A9 JUMP JUMPDEST PUSH1 0x20 DUP3 ADD SWAP1 POP SWAP2 SWAP1 POP JUMP JUMPDEST PUSH0 PUSH1 0x20 DUP3 ADD SWAP1 POP DUP2 DUP2 SUB PUSH0 DUP4 ADD MSTORE PUSH2 0x110A DUP2 PUSH2 0x10D1 JUMP JUMPDEST SWAP1 POP SWAP2 SWAP1 POP JUMP JUMPDEST PUSH0 DUP2 SWAP1 POP DUP2 PUSH0 MSTORE PUSH1 0x20 PUSH0 KECCAK256 SWAP1 POP SWAP2 SWAP1 POP JUMP JUMPDEST PUSH0 PUSH1 0x20 PUSH1 0x1F DUP4 ADD DIV SWAP1 POP SWAP2 SWAP1 POP JUMP JUMPDEST PUSH0 DUP3 DUP3 SHL SWAP1 POP SWAP3 SWAP2 POP POP JUMP JUMPDEST PUSH0 PUSH1 0x8 DUP4 MUL PUSH2 0x116D PUSH32 0xFFFFFFFFFFFFFFFFFFFFFFFFFFFFFFFFFFFFFFFFFFFFFFFFFFFFFFFFFFFFFFFF DUP3 PUSH2 0x1132 JUMP JUMPDEST PUSH2 0x1177 DUP7 DUP4 PUSH2 0x1132 JUMP JUMPDEST SWAP6 POP DUP1 NOT DUP5 AND SWAP4 POP DUP1 DUP7 AND DUP5 OR SWAP3 POP POP POP SWAP4 SWAP3 POP POP POP JUMP JUMPDEST PUSH0 DUP2 SWAP1 POP SWAP2 SWAP1 POP JUMP JUMPDEST PUSH0 PUSH2 0x11B2 PUSH2 0x11AD PUSH2 0x11A8 DUP5 PUSH2 0xABF JUMP JUMPDEST PUSH2 0x118F JUMP JUMPDEST PUSH2 0xABF JUMP JUMPDEST SWAP1 POP SWAP2 SWAP1 POP JUMP JUMPDEST PUSH0 DUP2 SWAP1 POP SWAP2 SWAP1 POP JUMP JUMPDEST PUSH2 0x11CB DUP4 PUSH2 0x1198 JUMP JUMPDEST PUSH2 0x11DF PUSH2 0x11D7 DUP3 PUSH2 0x11B9 JUMP JUMPDEST DUP5 DUP5 SLOAD PUSH2 0x113E JUMP JUMPDEST DUP3 SSTORE POP POP POP POP JUMP JUMPDEST PUSH0 PUSH0 SWAP1 POP SWAP1 JUMP JUMPDEST PUSH2 0x11F6 PUSH2 0x11E7 JUMP JUMPDEST PUSH2 0x1201 DUP2 DUP5 DUP5 PUSH2 0x11C2 JUMP JUMPDEST POP POP POP JUMP JUMPDEST JUMPDEST DUP2 DUP2 LT ISZERO PUSH2 0x1224 JUMPI PUSH2 0x1219 PUSH0 DUP3 PUSH2 0x11EE JUMP JUMPDEST PUSH1 0x1 DUP2 ADD SWAP1 POP PUSH2 0x1207 JUMP JUMPDEST POP POP JUMP JUMPDEST PUSH1 0x1F DUP3 GT ISZERO PUSH2 0x1269 JUMPI PUSH2 0x123A DUP2 PUSH2 0x1111 JUMP JUMPDEST PUSH2 0x1243 DUP5 PUSH2 0x1123 JUMP JUMPDEST DUP2 ADD PUSH1 0x20 DUP6 LT ISZERO PUSH2 0x1252 JUMPI DUP2 SWAP1 POP JUMPDEST PUSH2 0x1266 PUSH2 0x125E DUP6 PUSH2 0x1123 JUMP JUMPDEST DUP4 ADD DUP3 PUSH2 0x1206 JUMP JUMPDEST POP POP JUMPDEST POP POP POP JUMP JUMPDEST PUSH0 DUP3 DUP3 SHR SWAP1 POP SWAP3 SWAP2 POP POP JUMP JUMPDEST PUSH0 PUSH2 0x1289 PUSH0 NOT DUP5 PUSH1 0x8 MUL PUSH2 0x126E JUMP JUMPDEST NOT DUP1 DUP4 AND SWAP2 POP POP SWAP3 SWAP2 POP POP JUMP JUMPDEST PUSH0 PUSH2 0x12A1 DUP4 DUP4 PUSH2 0x127A JUMP JUMPDEST SWAP2 POP DUP3 PUSH1 0x2 MUL DUP3 OR SWAP1 POP SWAP3 SWAP2 POP POP JUMP JUMPDEST PUSH2 0x12BA DUP3 PUSH2 0xAE6 JUMP JUMPDEST PUSH8 0xFFFFFFFFFFFFFFFF DUP2 GT ISZERO PUSH2 0x12D3 JUMPI PUSH2 0x12D2 PUSH2 0xDB3 JUMP JUMPDEST JUMPDEST PUSH2 0x12DD DUP3 SLOAD PUSH2 0xFC8 JUMP JUMPDEST PUSH2 0x12E8 DUP3 DUP3 DUP6 PUSH2 0x1228 JUMP JUMPDEST PUSH0 PUSH1 0x20 SWAP1 POP PUSH1 0x1F DUP4 GT PUSH1 0x1 DUP2 EQ PUSH2 0x1319 JUMPI PUSH0 DUP5 ISZERO PUSH2 0x1307 JUMPI DUP3 DUP8 ADD MLOAD SWAP1 POP JUMPDEST PUSH2 0x1311 DUP6 DUP3 PUSH2 0x1296 JUMP JUMPDEST DUP7 SSTORE POP PUSH2 0x1378 JUMP JUMPDEST PUSH1 0x1F NOT DUP5 AND PUSH2 0x1327 DUP7 PUSH2 0x1111 JUMP JUMPDEST PUSH0 JUMPDEST DUP3 DUP2 LT ISZERO PUSH2 0x134E JUMPI DUP5 DUP10 ADD MLOAD DUP3 SSTORE PUSH1 0x1 DUP3 ADD SWAP2 POP PUSH1 0x20 DUP6 ADD SWAP5 POP PUSH1 0x20 DUP2 ADD SWAP1 POP PUSH2 0x1329 JUMP JUMPDEST DUP7 DUP4 LT ISZERO PUSH2 0x136B JUMPI DUP5 DUP10 ADD MLOAD PUSH2 0x1367 PUSH1 0x1F DUP10 AND DUP3 PUSH2 0x127A JUMP JUMPDEST DUP4 SSTORE POP JUMPDEST PUSH1 0x1 PUSH1 0x2 DUP9 MUL ADD DUP9 SSTORE POP POP POP JUMPDEST POP POP POP POP POP POP JUMP JUMPDEST PUSH32 0x796F7520617265206E6F7420746865206F776E65720000000000000000000000 PUSH0 DUP3 ADD MSTORE POP JUMP JUMPDEST PUSH0 PUSH2 0x13B4 PUSH1 0x15 DUP4 PUSH2 0x1099 JUMP JUMPDEST SWAP2 POP PUSH2 0x13BF DUP3 PUSH2 0x1380 JUMP JUMPDEST PUSH1 0x20 DUP3 ADD SWAP1 POP SWAP2 SWAP1 POP JUMP JUMPDEST PUSH0 PUSH1 0x20 DUP3 ADD SWAP1 POP DUP2 DUP2 SUB PUSH0 DUP4 ADD MSTORE PUSH2 0x13E1 DUP2 PUSH2 0x13A8 JUMP JUMPDEST SWAP1 POP SWAP2 SWAP1 POP JUMP INVALID LOG2 PUSH5 0x6970667358 0x22 SLT KECCAK256 0xB3 0xB6 STATICCALL SELFBALANCE EXTCODEHASH PUSH19 0x964F702C4962696E0352B436ED9E2E466CAB74 0x2A 0x1F CALL 0xC6 PUSH24 0x882964736F6C634300081C00330000000000000000000000 "
				},
				"gasEstimates": {
					"creation": {
						"codeDepositCost": "1030000",
						"executionCost": "49645",
						"totalCost": "1079645"
					},
					"external": {
						"changeTweetlength(uint16)": "26935",
						"createTweet(string)": "infinite",
						"getAllTweets(address)": "infinite",
						"getMyTweets()": "infinite",
						"getTweet(address)": "infinite",
						"likeTweet(address,uint256)": "infinite",
						"maxTweetLength()": "2539",
						"owner()": "2529"
					}
				},
				"methodIdentifiers": {
					"changeTweetlength(uint16)": "97213d07",
					"createTweet(string)": "7c9cd2bc",
					"getAllTweets(address)": "12e7ee1c",
					"getMyTweets()": "aefedbc2",
					"getTweet(address)": "1d6b664e",
					"likeTweet(address,uint256)": "63378216",
					"maxTweetLength()": "13ce9358",
					"owner()": "8da5cb5b"
				}
			},
			"storageLayout": {
				"storage": [
					{
						"astId": 14,
						"contract": "contracts/Twitter.sol:Twitter",
						"label": "owner",
						"offset": 0,
						"slot": "0",
						"type": "t_address"
					},
					{
						"astId": 29,
						"contract": "contracts/Twitter.sol:Twitter",
						"label": "maxTweetLength",
						"offset": 20,
						"slot": "0",
						"type": "t_uint16"
					},
					{
						"astId": 47,
						"contract": "contracts/Twitter.sol:Twitter",
						"label": "userTweets",
						"offset": 0,
						"slot": "1",
						"type": "t_mapping(t_address,t_array(t_struct(Tweet)12_storage)dyn_storage)"
					}
				],
				"types": {
					"t_address": {
						"encoding": "inplace",
						"label": "address",
						"numberOfBytes": "20"
					},
					"t_array(t_struct(Tweet)12_storage)dyn_storage": {
						"base": "t_struct(Tweet)12_storage",
						"encoding": "dynamic_array",
						"label": "struct Twitter.Tweet[]",
						"numberOfBytes": "32"
					},
					"t_mapping(t_address,t_array(t_struct(Tweet)12_storage)dyn_storage)": {
						"encoding": "mapping",
						"key": "t_address",
						"label": "mapping(address => struct Twitter.Tweet[])",
						"numberOfBytes": "32",
						"value": "t_array(t_struct(Tweet)12_storage)dyn_storage"
					},
					"t_string_storage": {
						"encoding": "bytes",
						"label": "string",
						"numberOfBytes": "32"
					},
					"t_struct(Tweet)12_storage": {
						"encoding": "inplace",
						"label": "struct Twitter.Tweet",
						"members": [
							{
								"astId": 3,
								"contract": "contracts/Twitter.sol:Twitter",
								"label": "id",
								"offset": 0,
								"slot": "0",
								"type": "t_uint256"
							},
							{
								"astId": 5,
								"contract": "contracts/Twitter.sol:Twitter",
								"label": "creator",
								"offset": 0,
								"slot": "1",
								"type": "t_address"
							},
							{
								"astId": 7,
								"contract": "contracts/Twitter.sol:Twitter",
								"label": "likes",
								"offset": 0,
								"slot": "2",
								"type": "t_uint256"
							},
							{
								"astId": 9,
								"contract": "contracts/Twitter.sol:Twitter",
								"label": "createdAt",
								"offset": 0,
								"slot": "3",
								"type": "t_uint256"
							},
							{
								"astId": 11,
								"contract": "contracts/Twitter.sol:Twitter",
								"label": "content",
								"offset": 0,
								"slot": "4",
								"type": "t_string_storage"
							}
						],
						"numberOfBytes": "160"
					},
					"t_uint16": {
						"encoding": "inplace",
						"label": "uint16",
						"numberOfBytes": "2"
					},
					"t_uint256": {
						"encoding": "inplace",
						"label": "uint256",
						"numberOfBytes": "32"
					}
				}
			},
			"userdoc": {
				"kind": "user",
				"methods": {},
				"version": 1
			}
		}
	}
}