{
	"contracts/Modifier.sol": {
		"Modifier": {
			"abi": [
				{
					"inputs": [],
					"stateMutability": "nonpayable",
					"type": "constructor"
				},
				{
					"inputs": [
						{
							"internalType": "address",
							"name": "",
							"type": "address"
						}
					],
					"name": "balances",
					"outputs": [
						{
							"internalType": "uint256",
							"name": "",
							"type": "uint256"
						}
					],
					"stateMutability": "view",
					"type": "function"
				},
				{
					"inputs": [],
					"name": "owner",
					"outputs": [
						{
							"internalType": "address",
							"name": "",
							"type": "address"
						}
					],
					"stateMutability": "view",
					"type": "function"
				},
				{
					"inputs": [],
					"name": "pause",
					"outputs": [],
					"stateMutability": "nonpayable",
					"type": "function"
				},
				{
					"inputs": [],
					"name": "paused",
					"outputs": [
						{
							"internalType": "bool",
							"name": "",
							"type": "bool"
						}
					],
					"stateMutability": "view",
					"type": "function"
				},
				{
					"inputs": [
						{
							"internalType": "address",
							"name": "to",
							"type": "address"
						},
						{
							"internalType": "uint256",
							"name": "amount",
							"type": "uint256"
						}
					],
					"name": "transfer",
					"outputs": [],
					"stateMutability": "nonpayable",
					"type": "function"
				},
				{
					"inputs": [],
					"name": "unpause",
					"outputs": [],
					"stateMutability": "nonpayable",
					"type": "function"
				}
			],
			"devdoc": {
				"kind": "dev",
				"methods": {},
				"version": 1
			},
			"evm": {
				"assembly": "    /* \"contracts/Modifier.sol\":60:996  contract Modifier{... */\n  mstore(0x40, 0x80)\n    /* \"contracts/Modifier.sol\":188:297  constructor() {... */\n  callvalue\n  dup1\n  iszero\n  tag_1\n  jumpi\n  revert(0x00, 0x00)\ntag_1:\n  pop\n    /* \"contracts/Modifier.sol\":221:231  msg.sender */\n  caller\n    /* \"contracts/Modifier.sol\":213:218  owner */\n  0x00\n  0x00\n    /* \"contracts/Modifier.sol\":213:231  owner = msg.sender */\n  0x0100\n  exp\n  dup2\n  sload\n  dup2\n  0xffffffffffffffffffffffffffffffffffffffff\n  mul\n  not\n  and\n  swap1\n  dup4\n  0xffffffffffffffffffffffffffffffffffffffff\n  and\n  mul\n  or\n  swap1\n  sstore\n  pop\n    /* \"contracts/Modifier.sol\":251:256  false */\n  0x00\n    /* \"contracts/Modifier.sol\":242:248  paused */\n  0x00\n  0x14\n    /* \"contracts/Modifier.sol\":242:256  paused = false */\n  0x0100\n  exp\n  dup2\n  sload\n  dup2\n  0xff\n  mul\n  not\n  and\n  swap1\n  dup4\n  iszero\n  iszero\n  mul\n  or\n  swap1\n  sstore\n  pop\n    /* \"contracts/Modifier.sol\":285:289  1000 */\n  0x03e8\n    /* \"contracts/Modifier.sol\":267:275  balances */\n  0x01\n    /* \"contracts/Modifier.sol\":267:282  balances[owner] */\n  0x00\n    /* \"contracts/Modifier.sol\":276:281  owner */\n  0x00\n  0x00\n  swap1\n  sload\n  swap1\n  0x0100\n  exp\n  swap1\n  div\n  0xffffffffffffffffffffffffffffffffffffffff\n  and\n    /* \"contracts/Modifier.sol\":267:282  balances[owner] */\n  0xffffffffffffffffffffffffffffffffffffffff\n  and\n  0xffffffffffffffffffffffffffffffffffffffff\n  and\n  dup2\n  mstore\n  0x20\n  add\n  swap1\n  dup2\n  mstore\n  0x20\n  add\n  0x00\n  keccak256\n    /* \"contracts/Modifier.sol\":267:289  balances[owner] = 1000 */\n  dup2\n  swap1\n  sstore\n  pop\n    /* \"contracts/Modifier.sol\":60:996  contract Modifier{... */\n  dataSize(sub_0)\n  dup1\n  dataOffset(sub_0)\n  0x00\n  codecopy\n  0x00\n  return\nstop\n\nsub_0: assembly {\n        /* \"contracts/Modifier.sol\":60:996  contract Modifier{... */\n      mstore(0x40, 0x80)\n      callvalue\n      dup1\n      iszero\n      tag_1\n      jumpi\n      revert(0x00, 0x00)\n    tag_1:\n      pop\n      jumpi(tag_2, lt(calldatasize, 0x04))\n      shr(0xe0, calldataload(0x00))\n      dup1\n      0x27e235e3\n      eq\n      tag_3\n      jumpi\n      dup1\n      0x3f4ba83a\n      eq\n      tag_4\n      jumpi\n      dup1\n      0x5c975abb\n      eq\n      tag_5\n      jumpi\n      dup1\n      0x8456cb59\n      eq\n      tag_6\n      jumpi\n      dup1\n      0x8da5cb5b\n      eq\n      tag_7\n      jumpi\n      dup1\n      0xa9059cbb\n      eq\n      tag_8\n      jumpi\n    tag_2:\n      revert(0x00, 0x00)\n        /* \"contracts/Modifier.sol\":136:179  mapping(address => uint256) public balances */\n    tag_3:\n      tag_9\n      0x04\n      dup1\n      calldatasize\n      sub\n      dup2\n      add\n      swap1\n      tag_10\n      swap2\n      swap1\n      tag_11\n      jump\t// in\n    tag_10:\n      tag_12\n      jump\t// in\n    tag_9:\n      mload(0x40)\n      tag_13\n      swap2\n      swap1\n      tag_14\n      jump\t// in\n    tag_13:\n      mload(0x40)\n      dup1\n      swap2\n      sub\n      swap1\n      return\n        /* \"contracts/Modifier.sol\":625:694  function unpause() public onlyOwner {... */\n    tag_4:\n      tag_15\n      tag_16\n      jump\t// in\n    tag_15:\n      stop\n        /* \"contracts/Modifier.sol\":111:129  bool public paused */\n    tag_5:\n      tag_17\n      tag_18\n      jump\t// in\n    tag_17:\n      mload(0x40)\n      tag_19\n      swap2\n      swap1\n      tag_20\n      jump\t// in\n    tag_19:\n      mload(0x40)\n      dup1\n      swap2\n      sub\n      swap1\n      return\n        /* \"contracts/Modifier.sol\":551:617  function pause() public onlyOwner {... */\n    tag_6:\n      tag_21\n      tag_22\n      jump\t// in\n    tag_21:\n      stop\n        /* \"contracts/Modifier.sol\":84:104  address public owner */\n    tag_7:\n      tag_23\n      tag_24\n      jump\t// in\n    tag_23:\n      mload(0x40)\n      tag_25\n      swap2\n      swap1\n      tag_26\n      jump\t// in\n    tag_25:\n      mload(0x40)\n      dup1\n      swap2\n      sub\n      swap1\n      return\n        /* \"contracts/Modifier.sol\":702:991  function transfer(address to, uint256 amount) public notPaused{... */\n    tag_8:\n      tag_27\n      0x04\n      dup1\n      calldatasize\n      sub\n      dup2\n      add\n      swap1\n      tag_28\n      swap2\n      swap1\n      tag_29\n      jump\t// in\n    tag_28:\n      tag_30\n      jump\t// in\n    tag_27:\n      stop\n        /* \"contracts/Modifier.sol\":136:179  mapping(address => uint256) public balances */\n    tag_12:\n      mstore(0x20, 0x01)\n      dup1\n      0x00\n      mstore\n      keccak256(0x00, 0x40)\n      0x00\n      swap2\n      pop\n      swap1\n      pop\n      sload\n      dup2\n      jump\t// out\n        /* \"contracts/Modifier.sol\":625:694  function unpause() public onlyOwner {... */\n    tag_16:\n        /* \"contracts/Modifier.sol\":359:364  owner */\n      0x00\n      0x00\n      swap1\n      sload\n      swap1\n      0x0100\n      exp\n      swap1\n      div\n      0xffffffffffffffffffffffffffffffffffffffff\n      and\n        /* \"contracts/Modifier.sol\":345:364  msg.sender == owner */\n      0xffffffffffffffffffffffffffffffffffffffff\n      and\n        /* \"contracts/Modifier.sol\":345:355  msg.sender */\n      caller\n        /* \"contracts/Modifier.sol\":345:364  msg.sender == owner */\n      0xffffffffffffffffffffffffffffffffffffffff\n      and\n      eq\n        /* \"contracts/Modifier.sol\":337:401  require(msg.sender == owner, \"Only owner can perform this task\") */\n      tag_32\n      jumpi\n      mload(0x40)\n      0x08c379a000000000000000000000000000000000000000000000000000000000\n      dup2\n      mstore\n      0x04\n      add\n      tag_33\n      swap1\n      tag_34\n      jump\t// in\n    tag_33:\n      mload(0x40)\n      dup1\n      swap2\n      sub\n      swap1\n      revert\n    tag_32:\n        /* \"contracts/Modifier.sol\":681:686  false */\n      0x00\n        /* \"contracts/Modifier.sol\":672:678  paused */\n      0x00\n      0x14\n        /* \"contracts/Modifier.sol\":672:686  paused = false */\n      0x0100\n      exp\n      dup2\n      sload\n      dup2\n      0xff\n      mul\n      not\n      and\n      swap1\n      dup4\n      iszero\n      iszero\n      mul\n      or\n      swap1\n      sstore\n      pop\n        /* \"contracts/Modifier.sol\":625:694  function unpause() public onlyOwner {... */\n      jump\t// out\n        /* \"contracts/Modifier.sol\":111:129  bool public paused */\n    tag_18:\n      0x00\n      0x14\n      swap1\n      sload\n      swap1\n      0x0100\n      exp\n      swap1\n      div\n      0xff\n      and\n      dup2\n      jump\t// out\n        /* \"contracts/Modifier.sol\":551:617  function pause() public onlyOwner {... */\n    tag_22:\n        /* \"contracts/Modifier.sol\":359:364  owner */\n      0x00\n      0x00\n      swap1\n      sload\n      swap1\n      0x0100\n      exp\n      swap1\n      div\n      0xffffffffffffffffffffffffffffffffffffffff\n      and\n        /* \"contracts/Modifier.sol\":345:364  msg.sender == owner */\n      0xffffffffffffffffffffffffffffffffffffffff\n      and\n        /* \"contracts/Modifier.sol\":345:355  msg.sender */\n      caller\n        /* \"contracts/Modifier.sol\":345:364  msg.sender == owner */\n      0xffffffffffffffffffffffffffffffffffffffff\n      and\n      eq\n        /* \"contracts/Modifier.sol\":337:401  require(msg.sender == owner, \"Only owner can perform this task\") */\n      tag_37\n      jumpi\n      mload(0x40)\n      0x08c379a000000000000000000000000000000000000000000000000000000000\n      dup2\n      mstore\n      0x04\n      add\n      tag_38\n      swap1\n      tag_34\n      jump\t// in\n    tag_38:\n      mload(0x40)\n      dup1\n      swap2\n      sub\n      swap1\n      revert\n    tag_37:\n        /* \"contracts/Modifier.sol\":605:609  true */\n      0x01\n        /* \"contracts/Modifier.sol\":596:602  paused */\n      0x00\n      0x14\n        /* \"contracts/Modifier.sol\":596:609  paused = true */\n      0x0100\n      exp\n      dup2\n      sload\n      dup2\n      0xff\n      mul\n      not\n      and\n      swap1\n      dup4\n      iszero\n      iszero\n      mul\n      or\n      swap1\n      sstore\n      pop\n        /* \"contracts/Modifier.sol\":551:617  function pause() public onlyOwner {... */\n      jump\t// out\n        /* \"contracts/Modifier.sol\":84:104  address public owner */\n    tag_24:\n      0x00\n      0x00\n      swap1\n      sload\n      swap1\n      0x0100\n      exp\n      swap1\n      div\n      0xffffffffffffffffffffffffffffffffffffffff\n      and\n      dup2\n      jump\t// out\n        /* \"contracts/Modifier.sol\":702:991  function transfer(address to, uint256 amount) public notPaused{... */\n    tag_30:\n        /* \"contracts/Modifier.sol\":473:479  paused */\n      0x00\n      0x14\n      swap1\n      sload\n      swap1\n      0x0100\n      exp\n      swap1\n      div\n      0xff\n      and\n        /* \"contracts/Modifier.sol\":472:479  !paused */\n      iszero\n        /* \"contracts/Modifier.sol\":464:523  require(!paused, \"The contract is paused, try again later\") */\n      tag_41\n      jumpi\n      mload(0x40)\n      0x08c379a000000000000000000000000000000000000000000000000000000000\n      dup2\n      mstore\n      0x04\n      add\n      tag_42\n      swap1\n      tag_43\n      jump\t// in\n    tag_42:\n      mload(0x40)\n      dup1\n      swap2\n      sub\n      swap1\n      revert\n    tag_41:\n        /* \"contracts/Modifier.sol\":807:813  amount */\n      dup1\n        /* \"contracts/Modifier.sol\":783:791  balances */\n      0x01\n        /* \"contracts/Modifier.sol\":783:803  balances[msg.sender] */\n      0x00\n        /* \"contracts/Modifier.sol\":792:802  msg.sender */\n      caller\n        /* \"contracts/Modifier.sol\":783:803  balances[msg.sender] */\n      0xffffffffffffffffffffffffffffffffffffffff\n      and\n      0xffffffffffffffffffffffffffffffffffffffff\n      and\n      dup2\n      mstore\n      0x20\n      add\n      swap1\n      dup2\n      mstore\n      0x20\n      add\n      0x00\n      keccak256\n      sload\n        /* \"contracts/Modifier.sol\":783:813  balances[msg.sender] >= amount */\n      lt\n      iszero\n        /* \"contracts/Modifier.sol\":775:869  require(balances[msg.sender] >= amount, \"The amount you have in your account is insufficient\") */\n      tag_45\n      jumpi\n      mload(0x40)\n      0x08c379a000000000000000000000000000000000000000000000000000000000\n      dup2\n      mstore\n      0x04\n      add\n      tag_46\n      swap1\n      tag_47\n      jump\t// in\n    tag_46:\n      mload(0x40)\n      dup1\n      swap2\n      sub\n      swap1\n      revert\n    tag_45:\n        /* \"contracts/Modifier.sol\":928:934  amount */\n      dup1\n        /* \"contracts/Modifier.sol\":905:913  balances */\n      0x01\n        /* \"contracts/Modifier.sol\":905:925  balances[msg.sender] */\n      0x00\n        /* \"contracts/Modifier.sol\":914:924  msg.sender */\n      caller\n        /* \"contracts/Modifier.sol\":905:925  balances[msg.sender] */\n      0xffffffffffffffffffffffffffffffffffffffff\n      and\n      0xffffffffffffffffffffffffffffffffffffffff\n      and\n      dup2\n      mstore\n      0x20\n      add\n      swap1\n      dup2\n      mstore\n      0x20\n      add\n      0x00\n      keccak256\n      sload\n        /* \"contracts/Modifier.sol\":905:934  balances[msg.sender] - amount */\n      tag_48\n      swap2\n      swap1\n      tag_49\n      jump\t// in\n    tag_48:\n        /* \"contracts/Modifier.sol\":882:890  balances */\n      0x01\n        /* \"contracts/Modifier.sol\":882:902  balances[msg.sender] */\n      0x00\n        /* \"contracts/Modifier.sol\":891:901  msg.sender */\n      caller\n        /* \"contracts/Modifier.sol\":882:902  balances[msg.sender] */\n      0xffffffffffffffffffffffffffffffffffffffff\n      and\n      0xffffffffffffffffffffffffffffffffffffffff\n      and\n      dup2\n      mstore\n      0x20\n      add\n      swap1\n      dup2\n      mstore\n      0x20\n      add\n      0x00\n      keccak256\n        /* \"contracts/Modifier.sol\":882:934  balances[msg.sender] = balances[msg.sender] - amount */\n      dup2\n      swap1\n      sstore\n      pop\n        /* \"contracts/Modifier.sol\":975:981  amount */\n      dup1\n        /* \"contracts/Modifier.sol\":960:968  balances */\n      0x01\n        /* \"contracts/Modifier.sol\":960:972  balances[to] */\n      0x00\n        /* \"contracts/Modifier.sol\":969:971  to */\n      dup5\n        /* \"contracts/Modifier.sol\":960:972  balances[to] */\n      0xffffffffffffffffffffffffffffffffffffffff\n      and\n      0xffffffffffffffffffffffffffffffffffffffff\n      and\n      dup2\n      mstore\n      0x20\n      add\n      swap1\n      dup2\n      mstore\n      0x20\n      add\n      0x00\n      keccak256\n      sload\n        /* \"contracts/Modifier.sol\":960:981  balances[to] + amount */\n      tag_50\n      swap2\n      swap1\n      tag_51\n      jump\t// in\n    tag_50:\n        /* \"contracts/Modifier.sol\":945:953  balances */\n      0x01\n        /* \"contracts/Modifier.sol\":945:957  balances[to] */\n      0x00\n        /* \"contracts/Modifier.sol\":954:956  to */\n      dup5\n        /* \"contracts/Modifier.sol\":945:957  balances[to] */\n      0xffffffffffffffffffffffffffffffffffffffff\n      and\n      0xffffffffffffffffffffffffffffffffffffffff\n      and\n      dup2\n      mstore\n      0x20\n      add\n      swap1\n      dup2\n      mstore\n      0x20\n      add\n      0x00\n      keccak256\n        /* \"contracts/Modifier.sol\":945:981  balances[to] = balances[to] + amount */\n      dup2\n      swap1\n      sstore\n      pop\n        /* \"contracts/Modifier.sol\":702:991  function transfer(address to, uint256 amount) public notPaused{... */\n      pop\n      pop\n      jump\t// out\n        /* \"#utility.yul\":88:205   */\n    tag_53:\n        /* \"#utility.yul\":197:198   */\n      0x00\n        /* \"#utility.yul\":194:195   */\n      0x00\n        /* \"#utility.yul\":187:199   */\n      revert\n        /* \"#utility.yul\":334:460   */\n    tag_55:\n        /* \"#utility.yul\":371:378   */\n      0x00\n        /* \"#utility.yul\":411:453   */\n      0xffffffffffffffffffffffffffffffffffffffff\n        /* \"#utility.yul\":404:409   */\n      dup3\n        /* \"#utility.yul\":400:454   */\n      and\n        /* \"#utility.yul\":389:454   */\n      swap1\n      pop\n        /* \"#utility.yul\":334:460   */\n      swap2\n      swap1\n      pop\n      jump\t// out\n        /* \"#utility.yul\":466:562   */\n    tag_56:\n        /* \"#utility.yul\":503:510   */\n      0x00\n        /* \"#utility.yul\":532:556   */\n      tag_80\n        /* \"#utility.yul\":550:555   */\n      dup3\n        /* \"#utility.yul\":532:556   */\n      tag_55\n      jump\t// in\n    tag_80:\n        /* \"#utility.yul\":521:556   */\n      swap1\n      pop\n        /* \"#utility.yul\":466:562   */\n      swap2\n      swap1\n      pop\n      jump\t// out\n        /* \"#utility.yul\":568:690   */\n    tag_57:\n        /* \"#utility.yul\":641:665   */\n      tag_82\n        /* \"#utility.yul\":659:664   */\n      dup2\n        /* \"#utility.yul\":641:665   */\n      tag_56\n      jump\t// in\n    tag_82:\n        /* \"#utility.yul\":634:639   */\n      dup2\n        /* \"#utility.yul\":631:666   */\n      eq\n        /* \"#utility.yul\":621:684   */\n      tag_83\n      jumpi\n        /* \"#utility.yul\":680:681   */\n      0x00\n        /* \"#utility.yul\":677:678   */\n      0x00\n        /* \"#utility.yul\":670:682   */\n      revert\n        /* \"#utility.yul\":621:684   */\n    tag_83:\n        /* \"#utility.yul\":568:690   */\n      pop\n      jump\t// out\n        /* \"#utility.yul\":696:835   */\n    tag_58:\n        /* \"#utility.yul\":742:747   */\n      0x00\n        /* \"#utility.yul\":780:786   */\n      dup2\n        /* \"#utility.yul\":767:787   */\n      calldataload\n        /* \"#utility.yul\":758:787   */\n      swap1\n      pop\n        /* \"#utility.yul\":796:829   */\n      tag_85\n        /* \"#utility.yul\":823:828   */\n      dup2\n        /* \"#utility.yul\":796:829   */\n      tag_57\n      jump\t// in\n    tag_85:\n        /* \"#utility.yul\":696:835   */\n      swap3\n      swap2\n      pop\n      pop\n      jump\t// out\n        /* \"#utility.yul\":841:1170   */\n    tag_11:\n        /* \"#utility.yul\":900:906   */\n      0x00\n        /* \"#utility.yul\":949:951   */\n      0x20\n        /* \"#utility.yul\":937:946   */\n      dup3\n        /* \"#utility.yul\":928:935   */\n      dup5\n        /* \"#utility.yul\":924:947   */\n      sub\n        /* \"#utility.yul\":920:952   */\n      slt\n        /* \"#utility.yul\":917:1036   */\n      iszero\n      tag_87\n      jumpi\n        /* \"#utility.yul\":955:1034   */\n      tag_88\n      tag_53\n      jump\t// in\n    tag_88:\n        /* \"#utility.yul\":917:1036   */\n    tag_87:\n        /* \"#utility.yul\":1075:1076   */\n      0x00\n        /* \"#utility.yul\":1100:1153   */\n      tag_89\n        /* \"#utility.yul\":1145:1152   */\n      dup5\n        /* \"#utility.yul\":1136:1142   */\n      dup3\n        /* \"#utility.yul\":1125:1134   */\n      dup6\n        /* \"#utility.yul\":1121:1143   */\n      add\n        /* \"#utility.yul\":1100:1153   */\n      tag_58\n      jump\t// in\n    tag_89:\n        /* \"#utility.yul\":1090:1153   */\n      swap2\n      pop\n        /* \"#utility.yul\":1046:1163   */\n      pop\n        /* \"#utility.yul\":841:1170   */\n      swap3\n      swap2\n      pop\n      pop\n      jump\t// out\n        /* \"#utility.yul\":1176:1253   */\n    tag_59:\n        /* \"#utility.yul\":1213:1220   */\n      0x00\n        /* \"#utility.yul\":1242:1247   */\n      dup2\n        /* \"#utility.yul\":1231:1247   */\n      swap1\n      pop\n        /* \"#utility.yul\":1176:1253   */\n      swap2\n      swap1\n      pop\n      jump\t// out\n        /* \"#utility.yul\":1259:1377   */\n    tag_60:\n        /* \"#utility.yul\":1346:1370   */\n      tag_92\n        /* \"#utility.yul\":1364:1369   */\n      dup2\n        /* \"#utility.yul\":1346:1370   */\n      tag_59\n      jump\t// in\n    tag_92:\n        /* \"#utility.yul\":1341:1344   */\n      dup3\n        /* \"#utility.yul\":1334:1371   */\n      mstore\n        /* \"#utility.yul\":1259:1377   */\n      pop\n      pop\n      jump\t// out\n        /* \"#utility.yul\":1383:1605   */\n    tag_14:\n        /* \"#utility.yul\":1476:1480   */\n      0x00\n        /* \"#utility.yul\":1514:1516   */\n      0x20\n        /* \"#utility.yul\":1503:1512   */\n      dup3\n        /* \"#utility.yul\":1499:1517   */\n      add\n        /* \"#utility.yul\":1491:1517   */\n      swap1\n      pop\n        /* \"#utility.yul\":1527:1598   */\n      tag_94\n        /* \"#utility.yul\":1595:1596   */\n      0x00\n        /* \"#utility.yul\":1584:1593   */\n      dup4\n        /* \"#utility.yul\":1580:1597   */\n      add\n        /* \"#utility.yul\":1571:1577   */\n      dup5\n        /* \"#utility.yul\":1527:1598   */\n      tag_60\n      jump\t// in\n    tag_94:\n        /* \"#utility.yul\":1383:1605   */\n      swap3\n      swap2\n      pop\n      pop\n      jump\t// out\n        /* \"#utility.yul\":1611:1701   */\n    tag_61:\n        /* \"#utility.yul\":1645:1652   */\n      0x00\n        /* \"#utility.yul\":1688:1693   */\n      dup2\n        /* \"#utility.yul\":1681:1694   */\n      iszero\n        /* \"#utility.yul\":1674:1695   */\n      iszero\n        /* \"#utility.yul\":1663:1695   */\n      swap1\n      pop\n        /* \"#utility.yul\":1611:1701   */\n      swap2\n      swap1\n      pop\n      jump\t// out\n        /* \"#utility.yul\":1707:1816   */\n    tag_62:\n        /* \"#utility.yul\":1788:1809   */\n      tag_97\n        /* \"#utility.yul\":1803:1808   */\n      dup2\n        /* \"#utility.yul\":1788:1809   */\n      tag_61\n      jump\t// in\n    tag_97:\n        /* \"#utility.yul\":1783:1786   */\n      dup3\n        /* \"#utility.yul\":1776:1810   */\n      mstore\n        /* \"#utility.yul\":1707:1816   */\n      pop\n      pop\n      jump\t// out\n        /* \"#utility.yul\":1822:2032   */\n    tag_20:\n        /* \"#utility.yul\":1909:1913   */\n      0x00\n        /* \"#utility.yul\":1947:1949   */\n      0x20\n        /* \"#utility.yul\":1936:1945   */\n      dup3\n        /* \"#utility.yul\":1932:1950   */\n      add\n        /* \"#utility.yul\":1924:1950   */\n      swap1\n      pop\n        /* \"#utility.yul\":1960:2025   */\n      tag_99\n        /* \"#utility.yul\":2022:2023   */\n      0x00\n        /* \"#utility.yul\":2011:2020   */\n      dup4\n        /* \"#utility.yul\":2007:2024   */\n      add\n        /* \"#utility.yul\":1998:2004   */\n      dup5\n        /* \"#utility.yul\":1960:2025   */\n      tag_62\n      jump\t// in\n    tag_99:\n        /* \"#utility.yul\":1822:2032   */\n      swap3\n      swap2\n      pop\n      pop\n      jump\t// out\n        /* \"#utility.yul\":2038:2156   */\n    tag_63:\n        /* \"#utility.yul\":2125:2149   */\n      tag_101\n        /* \"#utility.yul\":2143:2148   */\n      dup2\n        /* \"#utility.yul\":2125:2149   */\n      tag_56\n      jump\t// in\n    tag_101:\n        /* \"#utility.yul\":2120:2123   */\n      dup3\n        /* \"#utility.yul\":2113:2150   */\n      mstore\n        /* \"#utility.yul\":2038:2156   */\n      pop\n      pop\n      jump\t// out\n        /* \"#utility.yul\":2162:2384   */\n    tag_26:\n        /* \"#utility.yul\":2255:2259   */\n      0x00\n        /* \"#utility.yul\":2293:2295   */\n      0x20\n        /* \"#utility.yul\":2282:2291   */\n      dup3\n        /* \"#utility.yul\":2278:2296   */\n      add\n        /* \"#utility.yul\":2270:2296   */\n      swap1\n      pop\n        /* \"#utility.yul\":2306:2377   */\n      tag_103\n        /* \"#utility.yul\":2374:2375   */\n      0x00\n        /* \"#utility.yul\":2363:2372   */\n      dup4\n        /* \"#utility.yul\":2359:2376   */\n      add\n        /* \"#utility.yul\":2350:2356   */\n      dup5\n        /* \"#utility.yul\":2306:2377   */\n      tag_63\n      jump\t// in\n    tag_103:\n        /* \"#utility.yul\":2162:2384   */\n      swap3\n      swap2\n      pop\n      pop\n      jump\t// out\n        /* \"#utility.yul\":2390:2512   */\n    tag_64:\n        /* \"#utility.yul\":2463:2487   */\n      tag_105\n        /* \"#utility.yul\":2481:2486   */\n      dup2\n        /* \"#utility.yul\":2463:2487   */\n      tag_59\n      jump\t// in\n    tag_105:\n        /* \"#utility.yul\":2456:2461   */\n      dup2\n        /* \"#utility.yul\":2453:2488   */\n      eq\n        /* \"#utility.yul\":2443:2506   */\n      tag_106\n      jumpi\n        /* \"#utility.yul\":2502:2503   */\n      0x00\n        /* \"#utility.yul\":2499:2500   */\n      0x00\n        /* \"#utility.yul\":2492:2504   */\n      revert\n        /* \"#utility.yul\":2443:2506   */\n    tag_106:\n        /* \"#utility.yul\":2390:2512   */\n      pop\n      jump\t// out\n        /* \"#utility.yul\":2518:2657   */\n    tag_65:\n        /* \"#utility.yul\":2564:2569   */\n      0x00\n        /* \"#utility.yul\":2602:2608   */\n      dup2\n        /* \"#utility.yul\":2589:2609   */\n      calldataload\n        /* \"#utility.yul\":2580:2609   */\n      swap1\n      pop\n        /* \"#utility.yul\":2618:2651   */\n      tag_108\n        /* \"#utility.yul\":2645:2650   */\n      dup2\n        /* \"#utility.yul\":2618:2651   */\n      tag_64\n      jump\t// in\n    tag_108:\n        /* \"#utility.yul\":2518:2657   */\n      swap3\n      swap2\n      pop\n      pop\n      jump\t// out\n        /* \"#utility.yul\":2663:3137   */\n    tag_29:\n        /* \"#utility.yul\":2731:2737   */\n      0x00\n        /* \"#utility.yul\":2739:2745   */\n      0x00\n        /* \"#utility.yul\":2788:2790   */\n      0x40\n        /* \"#utility.yul\":2776:2785   */\n      dup4\n        /* \"#utility.yul\":2767:2774   */\n      dup6\n        /* \"#utility.yul\":2763:2786   */\n      sub\n        /* \"#utility.yul\":2759:2791   */\n      slt\n        /* \"#utility.yul\":2756:2875   */\n      iszero\n      tag_110\n      jumpi\n        /* \"#utility.yul\":2794:2873   */\n      tag_111\n      tag_53\n      jump\t// in\n    tag_111:\n        /* \"#utility.yul\":2756:2875   */\n    tag_110:\n        /* \"#utility.yul\":2914:2915   */\n      0x00\n        /* \"#utility.yul\":2939:2992   */\n      tag_112\n        /* \"#utility.yul\":2984:2991   */\n      dup6\n        /* \"#utility.yul\":2975:2981   */\n      dup3\n        /* \"#utility.yul\":2964:2973   */\n      dup7\n        /* \"#utility.yul\":2960:2982   */\n      add\n        /* \"#utility.yul\":2939:2992   */\n      tag_58\n      jump\t// in\n    tag_112:\n        /* \"#utility.yul\":2929:2992   */\n      swap3\n      pop\n        /* \"#utility.yul\":2885:3002   */\n      pop\n        /* \"#utility.yul\":3041:3043   */\n      0x20\n        /* \"#utility.yul\":3067:3120   */\n      tag_113\n        /* \"#utility.yul\":3112:3119   */\n      dup6\n        /* \"#utility.yul\":3103:3109   */\n      dup3\n        /* \"#utility.yul\":3092:3101   */\n      dup7\n        /* \"#utility.yul\":3088:3110   */\n      add\n        /* \"#utility.yul\":3067:3120   */\n      tag_65\n      jump\t// in\n    tag_113:\n        /* \"#utility.yul\":3057:3120   */\n      swap2\n      pop\n        /* \"#utility.yul\":3012:3130   */\n      pop\n        /* \"#utility.yul\":2663:3137   */\n      swap3\n      pop\n      swap3\n      swap1\n      pop\n      jump\t// out\n        /* \"#utility.yul\":3143:3312   */\n    tag_66:\n        /* \"#utility.yul\":3227:3238   */\n      0x00\n        /* \"#utility.yul\":3261:3267   */\n      dup3\n        /* \"#utility.yul\":3256:3259   */\n      dup3\n        /* \"#utility.yul\":3249:3268   */\n      mstore\n        /* \"#utility.yul\":3301:3305   */\n      0x20\n        /* \"#utility.yul\":3296:3299   */\n      dup3\n        /* \"#utility.yul\":3292:3306   */\n      add\n        /* \"#utility.yul\":3277:3306   */\n      swap1\n      pop\n        /* \"#utility.yul\":3143:3312   */\n      swap3\n      swap2\n      pop\n      pop\n      jump\t// out\n        /* \"#utility.yul\":3318:3500   */\n    tag_67:\n        /* \"#utility.yul\":3458:3492   */\n      0x4f6e6c79206f776e65722063616e20706572666f726d2074686973207461736b\n        /* \"#utility.yul\":3454:3455   */\n      0x00\n        /* \"#utility.yul\":3446:3452   */\n      dup3\n        /* \"#utility.yul\":3442:3456   */\n      add\n        /* \"#utility.yul\":3435:3493   */\n      mstore\n        /* \"#utility.yul\":3318:3500   */\n      pop\n      jump\t// out\n        /* \"#utility.yul\":3506:3872   */\n    tag_68:\n        /* \"#utility.yul\":3648:3651   */\n      0x00\n        /* \"#utility.yul\":3669:3736   */\n      tag_117\n        /* \"#utility.yul\":3733:3735   */\n      0x20\n        /* \"#utility.yul\":3728:3731   */\n      dup4\n        /* \"#utility.yul\":3669:3736   */\n      tag_66\n      jump\t// in\n    tag_117:\n        /* \"#utility.yul\":3662:3736   */\n      swap2\n      pop\n        /* \"#utility.yul\":3745:3838   */\n      tag_118\n        /* \"#utility.yul\":3834:3837   */\n      dup3\n        /* \"#utility.yul\":3745:3838   */\n      tag_67\n      jump\t// in\n    tag_118:\n        /* \"#utility.yul\":3863:3865   */\n      0x20\n        /* \"#utility.yul\":3858:3861   */\n      dup3\n        /* \"#utility.yul\":3854:3866   */\n      add\n        /* \"#utility.yul\":3847:3866   */\n      swap1\n      pop\n        /* \"#utility.yul\":3506:3872   */\n      swap2\n      swap1\n      pop\n      jump\t// out\n        /* \"#utility.yul\":3878:4297   */\n    tag_34:\n        /* \"#utility.yul\":4044:4048   */\n      0x00\n        /* \"#utility.yul\":4082:4084   */\n      0x20\n        /* \"#utility.yul\":4071:4080   */\n      dup3\n        /* \"#utility.yul\":4067:4085   */\n      add\n        /* \"#utility.yul\":4059:4085   */\n      swap1\n      pop\n        /* \"#utility.yul\":4131:4140   */\n      dup2\n        /* \"#utility.yul\":4125:4129   */\n      dup2\n        /* \"#utility.yul\":4121:4141   */\n      sub\n        /* \"#utility.yul\":4117:4118   */\n      0x00\n        /* \"#utility.yul\":4106:4115   */\n      dup4\n        /* \"#utility.yul\":4102:4119   */\n      add\n        /* \"#utility.yul\":4095:4142   */\n      mstore\n        /* \"#utility.yul\":4159:4290   */\n      tag_120\n        /* \"#utility.yul\":4285:4289   */\n      dup2\n        /* \"#utility.yul\":4159:4290   */\n      tag_68\n      jump\t// in\n    tag_120:\n        /* \"#utility.yul\":4151:4290   */\n      swap1\n      pop\n        /* \"#utility.yul\":3878:4297   */\n      swap2\n      swap1\n      pop\n      jump\t// out\n        /* \"#utility.yul\":4303:4529   */\n    tag_69:\n        /* \"#utility.yul\":4443:4477   */\n      0x54686520636f6e7472616374206973207061757365642c207472792061676169\n        /* \"#utility.yul\":4439:4440   */\n      0x00\n        /* \"#utility.yul\":4431:4437   */\n      dup3\n        /* \"#utility.yul\":4427:4441   */\n      add\n        /* \"#utility.yul\":4420:4478   */\n      mstore\n        /* \"#utility.yul\":4512:4521   */\n      0x6e206c6174657200000000000000000000000000000000000000000000000000\n        /* \"#utility.yul\":4507:4509   */\n      0x20\n        /* \"#utility.yul\":4499:4505   */\n      dup3\n        /* \"#utility.yul\":4495:4510   */\n      add\n        /* \"#utility.yul\":4488:4522   */\n      mstore\n        /* \"#utility.yul\":4303:4529   */\n      pop\n      jump\t// out\n        /* \"#utility.yul\":4535:4901   */\n    tag_70:\n        /* \"#utility.yul\":4677:4680   */\n      0x00\n        /* \"#utility.yul\":4698:4765   */\n      tag_123\n        /* \"#utility.yul\":4762:4764   */\n      0x27\n        /* \"#utility.yul\":4757:4760   */\n      dup4\n        /* \"#utility.yul\":4698:4765   */\n      tag_66\n      jump\t// in\n    tag_123:\n        /* \"#utility.yul\":4691:4765   */\n      swap2\n      pop\n        /* \"#utility.yul\":4774:4867   */\n      tag_124\n        /* \"#utility.yul\":4863:4866   */\n      dup3\n        /* \"#utility.yul\":4774:4867   */\n      tag_69\n      jump\t// in\n    tag_124:\n        /* \"#utility.yul\":4892:4894   */\n      0x40\n        /* \"#utility.yul\":4887:4890   */\n      dup3\n        /* \"#utility.yul\":4883:4895   */\n      add\n        /* \"#utility.yul\":4876:4895   */\n      swap1\n      pop\n        /* \"#utility.yul\":4535:4901   */\n      swap2\n      swap1\n      pop\n      jump\t// out\n        /* \"#utility.yul\":4907:5326   */\n    tag_43:\n        /* \"#utility.yul\":5073:5077   */\n      0x00\n        /* \"#utility.yul\":5111:5113   */\n      0x20\n        /* \"#utility.yul\":5100:5109   */\n      dup3\n        /* \"#utility.yul\":5096:5114   */\n      add\n        /* \"#utility.yul\":5088:5114   */\n      swap1\n      pop\n        /* \"#utility.yul\":5160:5169   */\n      dup2\n        /* \"#utility.yul\":5154:5158   */\n      dup2\n        /* \"#utility.yul\":5150:5170   */\n      sub\n        /* \"#utility.yul\":5146:5147   */\n      0x00\n        /* \"#utility.yul\":5135:5144   */\n      dup4\n        /* \"#utility.yul\":5131:5148   */\n      add\n        /* \"#utility.yul\":5124:5171   */\n      mstore\n        /* \"#utility.yul\":5188:5319   */\n      tag_126\n        /* \"#utility.yul\":5314:5318   */\n      dup2\n        /* \"#utility.yul\":5188:5319   */\n      tag_70\n      jump\t// in\n    tag_126:\n        /* \"#utility.yul\":5180:5319   */\n      swap1\n      pop\n        /* \"#utility.yul\":4907:5326   */\n      swap2\n      swap1\n      pop\n      jump\t// out\n        /* \"#utility.yul\":5332:5570   */\n    tag_71:\n        /* \"#utility.yul\":5472:5506   */\n      0x54686520616d6f756e7420796f75206861766520696e20796f7572206163636f\n        /* \"#utility.yul\":5468:5469   */\n      0x00\n        /* \"#utility.yul\":5460:5466   */\n      dup3\n        /* \"#utility.yul\":5456:5470   */\n      add\n        /* \"#utility.yul\":5449:5507   */\n      mstore\n        /* \"#utility.yul\":5541:5562   */\n      0x756e7420697320696e73756666696369656e7400000000000000000000000000\n        /* \"#utility.yul\":5536:5538   */\n      0x20\n        /* \"#utility.yul\":5528:5534   */\n      dup3\n        /* \"#utility.yul\":5524:5539   */\n      add\n        /* \"#utility.yul\":5517:5563   */\n      mstore\n        /* \"#utility.yul\":5332:5570   */\n      pop\n      jump\t// out\n        /* \"#utility.yul\":5576:5942   */\n    tag_72:\n        /* \"#utility.yul\":5718:5721   */\n      0x00\n        /* \"#utility.yul\":5739:5806   */\n      tag_129\n        /* \"#utility.yul\":5803:5805   */\n      0x33\n        /* \"#utility.yul\":5798:5801   */\n      dup4\n        /* \"#utility.yul\":5739:5806   */\n      tag_66\n      jump\t// in\n    tag_129:\n        /* \"#utility.yul\":5732:5806   */\n      swap2\n      pop\n        /* \"#utility.yul\":5815:5908   */\n      tag_130\n        /* \"#utility.yul\":5904:5907   */\n      dup3\n        /* \"#utility.yul\":5815:5908   */\n      tag_71\n      jump\t// in\n    tag_130:\n        /* \"#utility.yul\":5933:5935   */\n      0x40\n        /* \"#utility.yul\":5928:5931   */\n      dup3\n        /* \"#utility.yul\":5924:5936   */\n      add\n        /* \"#utility.yul\":5917:5936   */\n      swap1\n      pop\n        /* \"#utility.yul\":5576:5942   */\n      swap2\n      swap1\n      pop\n      jump\t// out\n        /* \"#utility.yul\":5948:6367   */\n    tag_47:\n        /* \"#utility.yul\":6114:6118   */\n      0x00\n        /* \"#utility.yul\":6152:6154   */\n      0x20\n        /* \"#utility.yul\":6141:6150   */\n      dup3\n        /* \"#utility.yul\":6137:6155   */\n      add\n        /* \"#utility.yul\":6129:6155   */\n      swap1\n      pop\n        /* \"#utility.yul\":6201:6210   */\n      dup2\n        /* \"#utility.yul\":6195:6199   */\n      dup2\n        /* \"#utility.yul\":6191:6211   */\n      sub\n        /* \"#utility.yul\":6187:6188   */\n      0x00\n        /* \"#utility.yul\":6176:6185   */\n      dup4\n        /* \"#utility.yul\":6172:6189   */\n      add\n        /* \"#utility.yul\":6165:6212   */\n      mstore\n        /* \"#utility.yul\":6229:6360   */\n      tag_132\n        /* \"#utility.yul\":6355:6359   */\n      dup2\n        /* \"#utility.yul\":6229:6360   */\n      tag_72\n      jump\t// in\n    tag_132:\n        /* \"#utility.yul\":6221:6360   */\n      swap1\n      pop\n        /* \"#utility.yul\":5948:6367   */\n      swap2\n      swap1\n      pop\n      jump\t// out\n        /* \"#utility.yul\":6373:6553   */\n    tag_73:\n        /* \"#utility.yul\":6421:6498   */\n      0x4e487b7100000000000000000000000000000000000000000000000000000000\n        /* \"#utility.yul\":6418:6419   */\n      0x00\n        /* \"#utility.yul\":6411:6499   */\n      mstore\n        /* \"#utility.yul\":6518:6522   */\n      0x11\n        /* \"#utility.yul\":6515:6516   */\n      0x04\n        /* \"#utility.yul\":6508:6523   */\n      mstore\n        /* \"#utility.yul\":6542:6546   */\n      0x24\n        /* \"#utility.yul\":6539:6540   */\n      0x00\n        /* \"#utility.yul\":6532:6547   */\n      revert\n        /* \"#utility.yul\":6559:6753   */\n    tag_49:\n        /* \"#utility.yul\":6599:6603   */\n      0x00\n        /* \"#utility.yul\":6619:6639   */\n      tag_135\n        /* \"#utility.yul\":6637:6638   */\n      dup3\n        /* \"#utility.yul\":6619:6639   */\n      tag_59\n      jump\t// in\n    tag_135:\n        /* \"#utility.yul\":6614:6639   */\n      swap2\n      pop\n        /* \"#utility.yul\":6653:6673   */\n      tag_136\n        /* \"#utility.yul\":6671:6672   */\n      dup4\n        /* \"#utility.yul\":6653:6673   */\n      tag_59\n      jump\t// in\n    tag_136:\n        /* \"#utility.yul\":6648:6673   */\n      swap3\n      pop\n        /* \"#utility.yul\":6697:6698   */\n      dup3\n        /* \"#utility.yul\":6694:6695   */\n      dup3\n        /* \"#utility.yul\":6690:6699   */\n      sub\n        /* \"#utility.yul\":6682:6699   */\n      swap1\n      pop\n        /* \"#utility.yul\":6721:6722   */\n      dup2\n        /* \"#utility.yul\":6715:6719   */\n      dup2\n        /* \"#utility.yul\":6712:6723   */\n      gt\n        /* \"#utility.yul\":6709:6746   */\n      iszero\n      tag_137\n      jumpi\n        /* \"#utility.yul\":6726:6744   */\n      tag_138\n      tag_73\n      jump\t// in\n    tag_138:\n        /* \"#utility.yul\":6709:6746   */\n    tag_137:\n        /* \"#utility.yul\":6559:6753   */\n      swap3\n      swap2\n      pop\n      pop\n      jump\t// out\n        /* \"#utility.yul\":6759:6950   */\n    tag_51:\n        /* \"#utility.yul\":6799:6802   */\n      0x00\n        /* \"#utility.yul\":6818:6838   */\n      tag_140\n        /* \"#utility.yul\":6836:6837   */\n      dup3\n        /* \"#utility.yul\":6818:6838   */\n      tag_59\n      jump\t// in\n    tag_140:\n        /* \"#utility.yul\":6813:6838   */\n      swap2\n      pop\n        /* \"#utility.yul\":6852:6872   */\n      tag_141\n        /* \"#utility.yul\":6870:6871   */\n      dup4\n        /* \"#utility.yul\":6852:6872   */\n      tag_59\n      jump\t// in\n    tag_141:\n        /* \"#utility.yul\":6847:6872   */\n      swap3\n      pop\n        /* \"#utility.yul\":6895:6896   */\n      dup3\n        /* \"#utility.yul\":6892:6893   */\n      dup3\n        /* \"#utility.yul\":6888:6897   */\n      add\n        /* \"#utility.yul\":6881:6897   */\n      swap1\n      pop\n        /* \"#utility.yul\":6916:6919   */\n      dup1\n        /* \"#utility.yul\":6913:6914   */\n      dup3\n        /* \"#utility.yul\":6910:6920   */\n      gt\n        /* \"#utility.yul\":6907:6943   */\n      iszero\n      tag_142\n      jumpi\n        /* \"#utility.yul\":6923:6941   */\n      tag_143\n      tag_73\n      jump\t// in\n    tag_143:\n        /* \"#utility.yul\":6907:6943   */\n    tag_142:\n        /* \"#utility.yul\":6759:6950   */\n      swap3\n      swap2\n      pop\n      pop\n      jump\t// out\n\n    auxdata: 0xa26469706673582212203a7f2a0e6a9a5ce197e2d0c0ccb53ac2ec5995d6cdbfe17002f44f096a27889e64736f6c634300081c0033\n}\n",
				"bytecode": {
					"linkReferences": {},
					"object": "6080604052348015600e575f5ffd5b50335f5f6101000a81548173ffffffffffffffffffffffffffffffffffffffff021916908373ffffffffffffffffffffffffffffffffffffffff1602179055505f5f60146101000a81548160ff0219169083151502179055506103e860015f5f5f9054906101000a900473ffffffffffffffffffffffffffffffffffffffff1673ffffffffffffffffffffffffffffffffffffffff1673ffffffffffffffffffffffffffffffffffffffff1681526020019081526020015f208190555061085f806100d85f395ff3fe608060405234801561000f575f5ffd5b5060043610610060575f3560e01c806327e235e3146100645780633f4ba83a146100945780635c975abb1461009e5780638456cb59146100bc5780638da5cb5b146100c6578063a9059cbb146100e4575b5f5ffd5b61007e600480360381019061007991906104e3565b610100565b60405161008b9190610526565b60405180910390f35b61009c610115565b005b6100a66101be565b6040516100b39190610559565b60405180910390f35b6100c46101d0565b005b6100ce61027a565b6040516100db9190610581565b60405180910390f35b6100fe60048036038101906100f991906105c4565b61029e565b005b6001602052805f5260405f205f915090505481565b5f5f9054906101000a900473ffffffffffffffffffffffffffffffffffffffff1673ffffffffffffffffffffffffffffffffffffffff163373ffffffffffffffffffffffffffffffffffffffff16146101a3576040517f08c379a000000000000000000000000000000000000000000000000000000000815260040161019a9061065c565b60405180910390fd5b5f5f60146101000a81548160ff021916908315150217905550565b5f60149054906101000a900460ff1681565b5f5f9054906101000a900473ffffffffffffffffffffffffffffffffffffffff1673ffffffffffffffffffffffffffffffffffffffff163373ffffffffffffffffffffffffffffffffffffffff161461025e576040517f08c379a00000000000000000000000000000000000000000000000000000000081526004016102559061065c565b60405180910390fd5b60015f60146101000a81548160ff021916908315150217905550565b5f5f9054906101000a900473ffffffffffffffffffffffffffffffffffffffff1681565b5f60149054906101000a900460ff16156102ed576040517f08c379a00000000000000000000000000000000000000000000000000000000081526004016102e4906106ea565b60405180910390fd5b8060015f3373ffffffffffffffffffffffffffffffffffffffff1673ffffffffffffffffffffffffffffffffffffffff1681526020019081526020015f2054101561036d576040517f08c379a000000000000000000000000000000000000000000000000000000000815260040161036490610778565b60405180910390fd5b8060015f3373ffffffffffffffffffffffffffffffffffffffff1673ffffffffffffffffffffffffffffffffffffffff1681526020019081526020015f20546103b691906107c3565b60015f3373ffffffffffffffffffffffffffffffffffffffff1673ffffffffffffffffffffffffffffffffffffffff1681526020019081526020015f20819055508060015f8473ffffffffffffffffffffffffffffffffffffffff1673ffffffffffffffffffffffffffffffffffffffff1681526020019081526020015f205461044091906107f6565b60015f8473ffffffffffffffffffffffffffffffffffffffff1673ffffffffffffffffffffffffffffffffffffffff1681526020019081526020015f20819055505050565b5f5ffd5b5f73ffffffffffffffffffffffffffffffffffffffff82169050919050565b5f6104b282610489565b9050919050565b6104c2816104a8565b81146104cc575f5ffd5b50565b5f813590506104dd816104b9565b92915050565b5f602082840312156104f8576104f7610485565b5b5f610505848285016104cf565b91505092915050565b5f819050919050565b6105208161050e565b82525050565b5f6020820190506105395f830184610517565b92915050565b5f8115159050919050565b6105538161053f565b82525050565b5f60208201905061056c5f83018461054a565b92915050565b61057b816104a8565b82525050565b5f6020820190506105945f830184610572565b92915050565b6105a38161050e565b81146105ad575f5ffd5b50565b5f813590506105be8161059a565b92915050565b5f5f604083850312156105da576105d9610485565b5b5f6105e7858286016104cf565b92505060206105f8858286016105b0565b9150509250929050565b5f82825260208201905092915050565b7f4f6e6c79206f776e65722063616e20706572666f726d2074686973207461736b5f82015250565b5f610646602083610602565b915061065182610612565b602082019050919050565b5f6020820190508181035f8301526106738161063a565b9050919050565b7f54686520636f6e7472616374206973207061757365642c2074727920616761695f8201527f6e206c6174657200000000000000000000000000000000000000000000000000602082015250565b5f6106d4602783610602565b91506106df8261067a565b604082019050919050565b5f6020820190508181035f830152610701816106c8565b9050919050565b7f54686520616d6f756e7420796f75206861766520696e20796f7572206163636f5f8201527f756e7420697320696e73756666696369656e7400000000000000000000000000602082015250565b5f610762603383610602565b915061076d82610708565b604082019050919050565b5f6020820190508181035f83015261078f81610756565b9050919050565b7f4e487b71000000000000000000000000000000000000000000000000000000005f52601160045260245ffd5b5f6107cd8261050e565b91506107d88361050e565b92508282039050818111156107f0576107ef610796565b5b92915050565b5f6108008261050e565b915061080b8361050e565b925082820190508082111561082357610822610796565b5b9291505056fea26469706673582212203a7f2a0e6a9a5ce197e2d0c0ccb53ac2ec5995d6cdbfe17002f44f096a27889e64736f6c634300081c0033",
					"opcodes": "PUSH1 0x80 PUSH1 0x40 MSTORE CALLVALUE DUP1 ISZERO PUSH1 0xE JUMPI PUSH0 PUSH0 REVERT JUMPDEST POP CALLER PUSH0 PUSH0 PUSH2 0x100 EXP DUP2 SLOAD DUP2 PUSH20 0xFFFFFFFFFFFFFFFFFFFFFFFFFFFFFFFFFFFFFFFF MUL NOT AND SWAP1 DUP4 PUSH20 0xFFFFFFFFFFFFFFFFFFFFFFFFFFFFFFFFFFFFFFFF AND MUL OR SWAP1 SSTORE POP PUSH0 PUSH0 PUSH1 0x14 PUSH2 0x100 EXP DUP2 SLOAD DUP2 PUSH1 0xFF MUL NOT AND SWAP1 DUP4 ISZERO ISZERO MUL OR SWAP1 SSTORE POP PUSH2 0x3E8 PUSH1 0x1 PUSH0 PUSH0 PUSH0 SWAP1 SLOAD SWAP1 PUSH2 0x100 EXP SWAP1 DIV PUSH20 0xFFFFFFFFFFFFFFFFFFFFFFFFFFFFFFFFFFFFFFFF AND PUSH20 0xFFFFFFFFFFFFFFFFFFFFFFFFFFFFFFFFFFFFFFFF AND PUSH20 0xFFFFFFFFFFFFFFFFFFFFFFFFFFFFFFFFFFFFFFFF AND DUP2 MSTORE PUSH1 0x20 ADD SWAP1 DUP2 MSTORE PUSH1 0x20 ADD PUSH0 KECCAK256 DUP2 SWAP1 SSTORE POP PUSH2 0x85F DUP1 PUSH2 0xD8 PUSH0 CODECOPY PUSH0 RETURN INVALID PUSH1 0x80 PUSH1 0x40 MSTORE CALLVALUE DUP1 ISZERO PUSH2 0xF JUMPI PUSH0 PUSH0 REVERT JUMPDEST POP PUSH1 0x4 CALLDATASIZE LT PUSH2 0x60 JUMPI PUSH0 CALLDATALOAD PUSH1 0xE0 SHR DUP1 PUSH4 0x27E235E3 EQ PUSH2 0x64 JUMPI DUP1 PUSH4 0x3F4BA83A EQ PUSH2 0x94 JUMPI DUP1 PUSH4 0x5C975ABB EQ PUSH2 0x9E JUMPI DUP1 PUSH4 0x8456CB59 EQ PUSH2 0xBC JUMPI DUP1 PUSH4 0x8DA5CB5B EQ PUSH2 0xC6 JUMPI DUP1 PUSH4 0xA9059CBB EQ PUSH2 0xE4 JUMPI JUMPDEST PUSH0 PUSH0 REVERT JUMPDEST PUSH2 0x7E PUSH1 0x4 DUP1 CALLDATASIZE SUB DUP2 ADD SWAP1 PUSH2 0x79 SWAP2 SWAP1 PUSH2 0x4E3 JUMP JUMPDEST PUSH2 0x100 JUMP JUMPDEST PUSH1 0x40 MLOAD PUSH2 0x8B SWAP2 SWAP1 PUSH2 0x526 JUMP JUMPDEST PUSH1 0x40 MLOAD DUP1 SWAP2 SUB SWAP1 RETURN JUMPDEST PUSH2 0x9C PUSH2 0x115 JUMP JUMPDEST STOP JUMPDEST PUSH2 0xA6 PUSH2 0x1BE JUMP JUMPDEST PUSH1 0x40 MLOAD PUSH2 0xB3 SWAP2 SWAP1 PUSH2 0x559 JUMP JUMPDEST PUSH1 0x40 MLOAD DUP1 SWAP2 SUB SWAP1 RETURN JUMPDEST PUSH2 0xC4 PUSH2 0x1D0 JUMP JUMPDEST STOP JUMPDEST PUSH2 0xCE PUSH2 0x27A JUMP JUMPDEST PUSH1 0x40 MLOAD PUSH2 0xDB SWAP2 SWAP1 PUSH2 0x581 JUMP JUMPDEST PUSH1 0x40 MLOAD DUP1 SWAP2 SUB SWAP1 RETURN JUMPDEST PUSH2 0xFE PUSH1 0x4 DUP1 CALLDATASIZE SUB DUP2 ADD SWAP1 PUSH2 0xF9 SWAP2 SWAP1 PUSH2 0x5C4 JUMP JUMPDEST PUSH2 0x29E JUMP JUMPDEST STOP JUMPDEST PUSH1 0x1 PUSH1 0x20 MSTORE DUP1 PUSH0 MSTORE PUSH1 0x40 PUSH0 KECCAK256 PUSH0 SWAP2 POP SWAP1 POP SLOAD DUP2 JUMP JUMPDEST PUSH0 PUSH0 SWAP1 SLOAD SWAP1 PUSH2 0x100 EXP SWAP1 DIV PUSH20 0xFFFFFFFFFFFFFFFFFFFFFFFFFFFFFFFFFFFFFFFF AND PUSH20 0xFFFFFFFFFFFFFFFFFFFFFFFFFFFFFFFFFFFFFFFF AND CALLER PUSH20 0xFFFFFFFFFFFFFFFFFFFFFFFFFFFFFFFFFFFFFFFF AND EQ PUSH2 0x1A3 JUMPI PUSH1 0x40 MLOAD PUSH32 0x8C379A000000000000000000000000000000000000000000000000000000000 DUP2 MSTORE PUSH1 0x4 ADD PUSH2 0x19A SWAP1 PUSH2 0x65C JUMP JUMPDEST PUSH1 0x40 MLOAD DUP1 SWAP2 SUB SWAP1 REVERT JUMPDEST PUSH0 PUSH0 PUSH1 0x14 PUSH2 0x100 EXP DUP2 SLOAD DUP2 PUSH1 0xFF MUL NOT AND SWAP1 DUP4 ISZERO ISZERO MUL OR SWAP1 SSTORE POP JUMP JUMPDEST PUSH0 PUSH1 0x14 SWAP1 SLOAD SWAP1 PUSH2 0x100 EXP SWAP1 DIV PUSH1 0xFF AND DUP2 JUMP JUMPDEST PUSH0 PUSH0 SWAP1 SLOAD SWAP1 PUSH2 0x100 EXP SWAP1 DIV PUSH20 0xFFFFFFFFFFFFFFFFFFFFFFFFFFFFFFFFFFFFFFFF AND PUSH20 0xFFFFFFFFFFFFFFFFFFFFFFFFFFFFFFFFFFFFFFFF AND CALLER PUSH20 0xFFFFFFFFFFFFFFFFFFFFFFFFFFFFFFFFFFFFFFFF AND EQ PUSH2 0x25E JUMPI PUSH1 0x40 MLOAD PUSH32 0x8C379A000000000000000000000000000000000000000000000000000000000 DUP2 MSTORE PUSH1 0x4 ADD PUSH2 0x255 SWAP1 PUSH2 0x65C JUMP JUMPDEST PUSH1 0x40 MLOAD DUP1 SWAP2 SUB SWAP1 REVERT JUMPDEST PUSH1 0x1 PUSH0 PUSH1 0x14 PUSH2 0x100 EXP DUP2 SLOAD DUP2 PUSH1 0xFF MUL NOT AND SWAP1 DUP4 ISZERO ISZERO MUL OR SWAP1 SSTORE POP JUMP JUMPDEST PUSH0 PUSH0 SWAP1 SLOAD SWAP1 PUSH2 0x100 EXP SWAP1 DIV PUSH20 0xFFFFFFFFFFFFFFFFFFFFFFFFFFFFFFFFFFFFFFFF AND DUP2 JUMP JUMPDEST PUSH0 PUSH1 0x14 SWAP1 SLOAD SWAP1 PUSH2 0x100 EXP SWAP1 DIV PUSH1 0xFF AND ISZERO PUSH2 0x2ED JUMPI PUSH1 0x40 MLOAD PUSH32 0x8C379A000000000000000000000000000000000000000000000000000000000 DUP2 MSTORE PUSH1 0x4 ADD PUSH2 0x2E4 SWAP1 PUSH2 0x6EA JUMP JUMPDEST PUSH1 0x40 MLOAD DUP1 SWAP2 SUB SWAP1 REVERT JUMPDEST DUP1 PUSH1 0x1 PUSH0 CALLER PUSH20 0xFFFFFFFFFFFFFFFFFFFFFFFFFFFFFFFFFFFFFFFF AND PUSH20 0xFFFFFFFFFFFFFFFFFFFFFFFFFFFFFFFFFFFFFFFF AND DUP2 MSTORE PUSH1 0x20 ADD SWAP1 DUP2 MSTORE PUSH1 0x20 ADD PUSH0 KECCAK256 SLOAD LT ISZERO PUSH2 0x36D JUMPI PUSH1 0x40 MLOAD PUSH32 0x8C379A000000000000000000000000000000000000000000000000000000000 DUP2 MSTORE PUSH1 0x4 ADD PUSH2 0x364 SWAP1 PUSH2 0x778 JUMP JUMPDEST PUSH1 0x40 MLOAD DUP1 SWAP2 SUB SWAP1 REVERT JUMPDEST DUP1 PUSH1 0x1 PUSH0 CALLER PUSH20 0xFFFFFFFFFFFFFFFFFFFFFFFFFFFFFFFFFFFFFFFF AND PUSH20 0xFFFFFFFFFFFFFFFFFFFFFFFFFFFFFFFFFFFFFFFF AND DUP2 MSTORE PUSH1 0x20 ADD SWAP1 DUP2 MSTORE PUSH1 0x20 ADD PUSH0 KECCAK256 SLOAD PUSH2 0x3B6 SWAP2 SWAP1 PUSH2 0x7C3 JUMP JUMPDEST PUSH1 0x1 PUSH0 CALLER PUSH20 0xFFFFFFFFFFFFFFFFFFFFFFFFFFFFFFFFFFFFFFFF AND PUSH20 0xFFFFFFFFFFFFFFFFFFFFFFFFFFFFFFFFFFFFFFFF AND DUP2 MSTORE PUSH1 0x20 ADD SWAP1 DUP2 MSTORE PUSH1 0x20 ADD PUSH0 KECCAK256 DUP2 SWAP1 SSTORE POP DUP1 PUSH1 0x1 PUSH0 DUP5 PUSH20 0xFFFFFFFFFFFFFFFFFFFFFFFFFFFFFFFFFFFFFFFF AND PUSH20 0xFFFFFFFFFFFFFFFFFFFFFFFFFFFFFFFFFFFFFFFF AND DUP2 MSTORE PUSH1 0x20 ADD SWAP1 DUP2 MSTORE PUSH1 0x20 ADD PUSH0 KECCAK256 SLOAD PUSH2 0x440 SWAP2 SWAP1 PUSH2 0x7F6 JUMP JUMPDEST PUSH1 0x1 PUSH0 DUP5 PUSH20 0xFFFFFFFFFFFFFFFFFFFFFFFFFFFFFFFFFFFFFFFF AND PUSH20 0xFFFFFFFFFFFFFFFFFFFFFFFFFFFFFFFFFFFFFFFF AND DUP2 MSTORE PUSH1 0x20 ADD SWAP1 DUP2 MSTORE PUSH1 0x20 ADD PUSH0 KECCAK256 DUP2 SWAP1 SSTORE POP POP POP JUMP JUMPDEST PUSH0 PUSH0 REVERT JUMPDEST PUSH0 PUSH20 0xFFFFFFFFFFFFFFFFFFFFFFFFFFFFFFFFFFFFFFFF DUP3 AND SWAP1 POP SWAP2 SWAP1 POP JUMP JUMPDEST PUSH0 PUSH2 0x4B2 DUP3 PUSH2 0x489 JUMP JUMPDEST SWAP1 POP SWAP2 SWAP1 POP JUMP JUMPDEST PUSH2 0x4C2 DUP2 PUSH2 0x4A8 JUMP JUMPDEST DUP2 EQ PUSH2 0x4CC JUMPI PUSH0 PUSH0 REVERT JUMPDEST POP JUMP JUMPDEST PUSH0 DUP2 CALLDATALOAD SWAP1 POP PUSH2 0x4DD DUP2 PUSH2 0x4B9 JUMP JUMPDEST SWAP3 SWAP2 POP POP JUMP JUMPDEST PUSH0 PUSH1 0x20 DUP3 DUP5 SUB SLT ISZERO PUSH2 0x4F8 JUMPI PUSH2 0x4F7 PUSH2 0x485 JUMP JUMPDEST JUMPDEST PUSH0 PUSH2 0x505 DUP5 DUP3 DUP6 ADD PUSH2 0x4CF JUMP JUMPDEST SWAP2 POP POP SWAP3 SWAP2 POP POP JUMP JUMPDEST PUSH0 DUP2 SWAP1 POP SWAP2 SWAP1 POP JUMP JUMPDEST PUSH2 0x520 DUP2 PUSH2 0x50E JUMP JUMPDEST DUP3 MSTORE POP POP JUMP JUMPDEST PUSH0 PUSH1 0x20 DUP3 ADD SWAP1 POP PUSH2 0x539 PUSH0 DUP4 ADD DUP5 PUSH2 0x517 JUMP JUMPDEST SWAP3 SWAP2 POP POP JUMP JUMPDEST PUSH0 DUP2 ISZERO ISZERO SWAP1 POP SWAP2 SWAP1 POP JUMP JUMPDEST PUSH2 0x553 DUP2 PUSH2 0x53F JUMP JUMPDEST DUP3 MSTORE POP POP JUMP JUMPDEST PUSH0 PUSH1 0x20 DUP3 ADD SWAP1 POP PUSH2 0x56C PUSH0 DUP4 ADD DUP5 PUSH2 0x54A JUMP JUMPDEST SWAP3 SWAP2 POP POP JUMP JUMPDEST PUSH2 0x57B DUP2 PUSH2 0x4A8 JUMP JUMPDEST DUP3 MSTORE POP POP JUMP JUMPDEST PUSH0 PUSH1 0x20 DUP3 ADD SWAP1 POP PUSH2 0x594 PUSH0 DUP4 ADD DUP5 PUSH2 0x572 JUMP JUMPDEST SWAP3 SWAP2 POP POP JUMP JUMPDEST PUSH2 0x5A3 DUP2 PUSH2 0x50E JUMP JUMPDEST DUP2 EQ PUSH2 0x5AD JUMPI PUSH0 PUSH0 REVERT JUMPDEST POP JUMP JUMPDEST PUSH0 DUP2 CALLDATALOAD SWAP1 POP PUSH2 0x5BE DUP2 PUSH2 0x59A JUMP JUMPDEST SWAP3 SWAP2 POP POP JUMP JUMPDEST PUSH0 PUSH0 PUSH1 0x40 DUP4 DUP6 SUB SLT ISZERO PUSH2 0x5DA JUMPI PUSH2 0x5D9 PUSH2 0x485 JUMP JUMPDEST JUMPDEST PUSH0 PUSH2 0x5E7 DUP6 DUP3 DUP7 ADD PUSH2 0x4CF JUMP JUMPDEST SWAP3 POP POP PUSH1 0x20 PUSH2 0x5F8 DUP6 DUP3 DUP7 ADD PUSH2 0x5B0 JUMP JUMPDEST SWAP2 POP POP SWAP3 POP SWAP3 SWAP1 POP JUMP JUMPDEST PUSH0 DUP3 DUP3 MSTORE PUSH1 0x20 DUP3 ADD SWAP1 POP SWAP3 SWAP2 POP POP JUMP JUMPDEST PUSH32 0x4F6E6C79206F776E65722063616E20706572666F726D2074686973207461736B PUSH0 DUP3 ADD MSTORE POP JUMP JUMPDEST PUSH0 PUSH2 0x646 PUSH1 0x20 DUP4 PUSH2 0x602 JUMP JUMPDEST SWAP2 POP PUSH2 0x651 DUP3 PUSH2 0x612 JUMP JUMPDEST PUSH1 0x20 DUP3 ADD SWAP1 POP SWAP2 SWAP1 POP JUMP JUMPDEST PUSH0 PUSH1 0x20 DUP3 ADD SWAP1 POP DUP2 DUP2 SUB PUSH0 DUP4 ADD MSTORE PUSH2 0x673 DUP2 PUSH2 0x63A JUMP JUMPDEST SWAP1 POP SWAP2 SWAP1 POP JUMP JUMPDEST PUSH32 0x54686520636F6E7472616374206973207061757365642C207472792061676169 PUSH0 DUP3 ADD MSTORE PUSH32 0x6E206C6174657200000000000000000000000000000000000000000000000000 PUSH1 0x20 DUP3 ADD MSTORE POP JUMP JUMPDEST PUSH0 PUSH2 0x6D4 PUSH1 0x27 DUP4 PUSH2 0x602 JUMP JUMPDEST SWAP2 POP PUSH2 0x6DF DUP3 PUSH2 0x67A JUMP JUMPDEST PUSH1 0x40 DUP3 ADD SWAP1 POP SWAP2 SWAP1 POP JUMP JUMPDEST PUSH0 PUSH1 0x20 DUP3 ADD SWAP1 POP DUP2 DUP2 SUB PUSH0 DUP4 ADD MSTORE PUSH2 0x701 DUP2 PUSH2 0x6C8 JUMP JUMPDEST SWAP1 POP SWAP2 SWAP1 POP JUMP JUMPDEST PUSH32 0x54686520616D6F756E7420796F75206861766520696E20796F7572206163636F PUSH0 DUP3 ADD MSTORE PUSH32 0x756E7420697320696E73756666696369656E7400000000000000000000000000 PUSH1 0x20 DUP3 ADD MSTORE POP JUMP JUMPDEST PUSH0 PUSH2 0x762 PUSH1 0x33 DUP4 PUSH2 0x602 JUMP JUMPDEST SWAP2 POP PUSH2 0x76D DUP3 PUSH2 0x708 JUMP JUMPDEST PUSH1 0x40 DUP3 ADD SWAP1 POP SWAP2 SWAP1 POP JUMP JUMPDEST PUSH0 PUSH1 0x20 DUP3 ADD SWAP1 POP DUP2 DUP2 SUB PUSH0 DUP4 ADD MSTORE PUSH2 0x78F DUP2 PUSH2 0x756 JUMP JUMPDEST SWAP1 POP SWAP2 SWAP1 POP JUMP JUMPDEST PUSH32 0x4E487B7100000000000000000000000000000000000000000000000000000000 PUSH0 MSTORE PUSH1 0x11 PUSH1 0x4 MSTORE PUSH1 0x24 PUSH0 REVERT JUMPDEST PUSH0 PUSH2 0x7CD DUP3 PUSH2 0x50E JUMP JUMPDEST SWAP2 POP PUSH2 0x7D8 DUP4 PUSH2 0x50E JUMP JUMPDEST SWAP3 POP DUP3 DUP3 SUB SWAP1 POP DUP2 DUP2 GT ISZERO PUSH2 0x7F0 JUMPI PUSH2 0x7EF PUSH2 0x796 JUMP JUMPDEST JUMPDEST SWAP3 SWAP2 POP POP JUMP JUMPDEST PUSH0 PUSH2 0x800 DUP3 PUSH2 0x50E JUMP JUMPDEST SWAP2 POP PUSH2 0x80B DUP4 PUSH2 0x50E JUMP JUMPDEST SWAP3 POP DUP3 DUP3 ADD SWAP1 POP DUP1 DUP3 GT ISZERO PUSH2 0x823 JUMPI PUSH2 0x822 PUSH2 0x796 JUMP JUMPDEST JUMPDEST SWAP3 SWAP2 POP POP JUMP INVALID LOG2 PUSH5 0x6970667358 0x22 SLT KECCAK256 GASPRICE PUSH32 0x2A0E6A9A5CE197E2D0C0CCB53AC2EC5995D6CDBFE17002F44F096A27889E6473 PUSH16 0x6C634300081C00330000000000000000 "
				},
				"gasEstimates": {
					"creation": {
						"codeDepositCost": "428600",
						"executionCost": "73374",
						"totalCost": "501974"
					},
					"external": {
						"balances(address)": "2780",
						"owner()": "2573",
						"pause()": "26671",
						"paused()": "2538",
						"transfer(address,uint256)": "infinite",
						"unpause()": "26626"
					}
				},
				"methodIdentifiers": {
					"balances(address)": "27e235e3",
					"owner()": "8da5cb5b",
					"pause()": "8456cb59",
					"paused()": "5c975abb",
					"transfer(address,uint256)": "a9059cbb",
					"unpause()": "3f4ba83a"
				}
			},
			"storageLayout": {
				"storage": [
					{
						"astId": 3,
						"contract": "contracts/Modifier.sol:Modifier",
						"label": "owner",
						"offset": 0,
						"slot": "0",
						"type": "t_address"
					},
					{
						"astId": 5,
						"contract": "contracts/Modifier.sol:Modifier",
						"label": "paused",
						"offset": 20,
						"slot": "0",
						"type": "t_bool"
					},
					{
						"astId": 9,
						"contract": "contracts/Modifier.sol:Modifier",
						"label": "balances",
						"offset": 0,
						"slot": "1",
						"type": "t_mapping(t_address,t_uint256)"
					}
				],
				"types": {
					"t_address": {
						"encoding": "inplace",
						"label": "address",
						"numberOfBytes": "20"
					},
					"t_bool": {
						"encoding": "inplace",
						"label": "bool",
						"numberOfBytes": "1"
					},
					"t_mapping(t_address,t_uint256)": {
						"encoding": "mapping",
						"key": "t_address",
						"label": "mapping(address => uint256)",
						"numberOfBytes": "32",
						"value": "t_uint256"
					},
					"t_uint256": {
						"encoding": "inplace",
						"label": "uint256",
						"numberOfBytes": "32"
					}
				}
			},
			"userdoc": {
				"kind": "user",
				"methods": {},
				"version": 1
			}
		}
	}
}